:020000040000fa
:080000000002040000000000f2
:020000040000fa
:100400002f8e2000007f22000001880000000000e5
:100410000c000700804e20000100200011000700a2
:10042000000020000000e000020032000000020096
:100430000000000088040200000000000040da0014
:100440000000fe004440a900000020000000e00081
:100450000300320000002000a00188004440a800f2
:100460000000060091018800800078000000eb0089
:1004700015003700e280400032a0b4009101ba00bc
:10048000e280400032a0b4009102ba00e280400055
:1004900032a0b4000002eb00472bde00f507b200eb
:1004a000602ce10004003a000059eb008301e900f0
:1004b000fdff3e00040037006128e100010032002a
:1004c0000082eb00040007001101ba000200e00006
:1004d000e8ff3a00000006003159ba008301e90044
:1004e0000c0032002159ba008301e90008003200f3
:1004f0000400e00003003a00e280400032a0b400b3
:10050000f5ff370011d9ba008301e900faff3a007c
:100510008100e800e180400032a0b4000000060045
:10052000881f780000047800f04680000000e0009a
:100530000100320000000100008e20000048eb00a6
:10054000c04680000000e000010032000000010011
:100550006140b800d0468800e14688004f0478002a
:1005600000000600881f7800f04680000000e000d0
:100570000100320000000100c04680000000e000e1
:100580000100320000000100b04280000000e000e5
:100590000100320000000100804280000000e00005
:1005a0000100320000000100008e20001004e00075
:1005b00026003a00d0468000e14680000004eb00af
:1005c000d2602600930120003b000700f2352f0087
:1005d000e3c6230000004100818049000804e800d0
:1005e000e80f5400f6ff3a00d0468800e146880044
:1005f00088852000d260260093012000d04680002c
:10060000e14680002c000700f2352f00e3c62300ee
:100610000000410081804900d0468800e146880002
:10062000009cbe00808d2000800f5400f1ff3a0036
:10063000a0468000b146800090428800a142880018
:1006400011c0b300008e200001487800d26026005f
:1006500093012000d0468000e1468000160007008c
:10066000f2352f00e3c623000000410081804900dd
:10067000d0468800e14688002285200012017800db
:100680007f0161004211dd008385200003014100ec
:100690001202be0094428800a54288000089be0074
:1006a00090428000a14280004008de0000f0a100de
:1006b0004f04780000000600020ab900001bb900d0
:1006c0000200b800810042008100430000000600e3
:020000040000fa
:020000040002f8
:04aff800bd7b00001d
:020000040000fa
:020000040002f8
:04affc007f3f000093
:020000040000fa
:10000800fe040000fe040000fe040000fe040000e0
:10001800fe040000fe040000fe040000fe040000d0
:10002800fe040000fe040000fe040000fe040000c0
:10003800fe040000fe040000fe040000fe040000b0
:020000040000fa
:020000040000fa
:1006d0000000fa000000eb002016880000f02f0058
:1006e000001688000080fa00000006000200fa00f0
:1006f000000f78000000280020088800060037005e
:100700000000eb000008880001088000f0e72300eb
:10071000808f5000fcff36001e0fe9000080eb00c8
:100720009e0f1000f6ff3a000080fa00000006005d
:100730000200fa000000eb00000f7800c0e2a80001
:10074000d4c2bf000044b2000004e00001003a003f
:100750001e30a000d4c2bf0001c8b3000140600039
:100760000004e00001003a001e20a000c2c2bf0049
:1007700001c8b300014060000004e00001003a003d
:100780001e10a000d5c2bf000042b2000004e0006d
:1007900001003a001e00a0001e0078000080fa0050
:1007a000000006000800fa000000eb003007980087
:1007b0000000eb00200798000000eb0010079800f5
:1007c000a0002000c9ff0700d9ff0700000f780034
:1007d0001e00e000090032002e0090009e0f100065
:1007e000020034001e007800200798003e009000b0
:1007f0000000e80030079800020037000000eb001e
:10080000300798003e009000e90f5000ecff3400e4
:100810000000eb0030079800a0002000b3ff0700a5
:10082000c3ff0700000f78001e00e0000b0032003d
:100830002e0090009e0f1000020034001e00780071
:10084000200798000000eb00300798001e00900081
:100850000000e80010079800030037003e009000f9
:100860000000e800300798003e009000e90f5000bb
:10087000e9ff34009e00900000052000808f5000aa
:10088000030034002e0090000008b00020079800fc
:100890002e0090000080fa00000006000200fa001e
:1008a000000f78001e00780060198800000e2000fc
:1008b000001988000000eb0080198800f0f3210087
:1008c000201988000000eb001019880021e3a8001f
:1008d000cbe2a900c7e2a9000080fa0000000600f0
:1008e0000200fa00000f78001e007800401988000e
:1008f0002023a80020c3bf00614060000004e00086
:10090000fcff3200001880000080fa0000000600a2
:100910000a00fa0000f02f0000168800f0fd2f00fa
:10092000deff070050002000edff0700fcfe07007f
:100930000cff0700e7006000000820000180de00d7
:10094000200798000000eb00000f78005000200006
:10095000e3ff0700400798004e0090004780de004c
:1009600030079800010820003e0090000088de005b
:100970001007980005003700fafe0700e700600046
:10098000000820000180de00200798009e009000f3
:100990002e009000808f5000f7ff32009e007800fc
:1009a0006f8060000000e00005003a009e009000ab
:1009b0002e009000008040001016880002003700d2
:1009c0001e009000101688001e0fe800dfff3700a1
:020000040000fa
:1009d000d80800000a00000002000000000001002a
:1009e00000000000000000000000000050080000af
:0c09f00088000000000000000000000073
:020000040000fa
:0409fc000000fe00f9
:00000001FF
