:020000040000fa
:080000000002040000000000f2
:020000040000fa
:100400006fc62000007f220000018800000000006d
:100410000c000700e071210001002000110007001e
:10042000000020000000e000020032000000020096
:1004300000000000c6160200000000000040da00c4
:100440000000fe004440a900400620000000e0003b
:100450000300320000002000a00188004440a800f2
:100460000000060091018800800078000000eb0089
:1004700015003700e280400032a0b4009101ba00bc
:10048000e280400032a0b4009102ba00e280400055
:1004900032a0b4000002eb00472bde00f507b200eb
:1004a000602ce10004003a000059eb008301e900f0
:1004b000fdff3e00040037006128e100010032002a
:1004c0000082eb00040007001101ba000200e00006
:1004d000e8ff3a00000006003159ba008301e90044
:1004e0000c0032002159ba008301e90008003200f3
:1004f0000400e00003003a00e280400032a0b400b3
:10050000f5ff370011d9ba008301e900faff3a007c
:100510008100e800e180400032a0b4000000060045
:10052000889fbe00e30440000900a100808f5400b2
:100530004a003600e38f540001003e0049002000cd
:10054000024380000200e0000200320082007800d6
:100550000c0037002186200003003700908f5400e4
:10056000230036008080e800110078000000e000e1
:10057000faff3a000f003700908f54001c0036003d
:100580008080e800110078000000e000faff3a00e7
:10059000120178002186200003003700908f54005c
:1005a000130036008080e80011007800820f5000b0
:1005b000faff3a00f8428000890f54000100310030
:1005c0000904780008007800770007000000e000c8
:1005d00004003a00890f5400200032000804d100c2
:1005e000f5ff3700081878001f000700d4ff370018
:1005f000110178009201780064805100890f500049
:1006000003003100120090008008780007003700d6
:1006100009004100800878009201900013009800c2
:100620001100780012881400090978009100780000
:100630000100e00005003200110090000000e00021
:10064000020032000180e800010037000000eb00ea
:10065000004388000280e800010037000000eb0042
:100660004f04be00000006000000e0003100320030
:100670008080e90091027800e38f52002d0036005f
:100680000508a3002b003a00124380000200e0009e
:1006900002003200828f500004003100020878000e
:1006a0001143880016003700030178009201900082
:1006b0000300e00002003200818f5100faff390090
:1006c0001202780004004100808f500019003900a8
:1006d000810f500003003a000509420082007800b3
:1006e000070037000300e0000300320005804000ef
:1006f000808f51000f00390093009800110198007d
:10070000110190000200e0000a0032001180400058
:10071000820f500007003a00008620000008eb001e
:100720001100900011017800900841001000900025
:100730009000980000000600800078001106b100cb
:10074000030035009101b10001003c000050a10000
:10075000000006008001eb000200370061f0790024
:100760008301e800828f5100fcff3a000000060080
:100770008001eb0008003700e342780063c2780094
:100780008301e80084cf5200030032000080eb00b8
:100790000400390010000500828f5100f6ff3a0076
:1007a0000000eb00000006000000e0000300340041
:1007b00004000700e10f400001003a000000eb00d8
:1007c00000000600889fbe0080047800204380005f
:1007d0000000e00003003a00100007000000e00005
:1007e0000a003500204380000900e00002003a00c2
:1007f000000478000600370000047800090040007b
:10080000060007000000e00001003d000084eb004e
:10081000080078004f04be00000006008000780049
:100820000000e00004003a006086200020438800b9
:1008300001017800060037000081eb0060c620004f
:10084000808f500002003e00214388000001eb0031
:1008500002007800000006006022b80006022000b6
:100860000000d0008180d2000482d2008582d200b4
:100870000000a0000202520083825a0003003100ef
:100880000202420083824a000000a1000603e90040
:08089000f3ff3a00000006002e
:020000040000fa
:020000040002f8
:04aff800bd7b00001d
:020000040000fa
:020000040002f8
:04affc007f3f000093
:020000040000fa
:100008003c1700003c1700003c1700003c1700009c
:100018003c1700003c1700003c1700003c1700008c
:100028003c1700003c1700003c1700003c1700007c
:100038003c1700003c1700003c1700003c1700006c
:020000040000fa
:020000040000fa
:10089800696e000069740000006d00006564000066
:1008a8006961000020640000657400006563000051
:1008b80074650000640000006d6f0000756e000034
:1008c8007400000072000000736f00007572000071
:1008d800636500002e740000787400000066000054
:1008e800696c0000652000006f700000656e0000f4
:1008f8006564000000660000696c00006520000067
:10090800636c00006f730000656400000063000002
:100918006f7500006c640000206e00006f740000aa
:10092800206f0000706500006e20000066690000fe
:100938006c650000006d00006564000069610000de
:10094800207500006e6d00006f7500006e74000069
:080958006564000000000000ce
:020000040000fa
:100960000e00fa00881f7800e4060700f80607006a
:100970000000e00005003a0020c0b3005ae8b700cc
:100980000000eb0060079800de003700c307070097
:100990000000e00005003200f0c0b3005ae8b700e4
:1009a0008000eb0061079800d6003700400120006e
:1009b000dbfe0700e0428800e04280000000e0002b
:1009c00005003a0010c1b3005ae8b7000001eb007f
:1009d00062079800cb00370000202000d0fe0700ff
:1009e000000f78001e00e00007003a0010c1b300bd
:1009f0005ae8b700e04280001bff07008001eb00cf
:100a000063079800bf0037001e0178006000b8003f
:100a1000170707000000e00009003a0000c1b3001a
:100a20005ae8b700e04280000fff07001e00780080
:100a30000dff07000000eb0060079800b1003700d1
:100a4000e11f20001e8040009040780050c5b30098
:100a500080cf500006003a00f21f20001e00410027
:100a600090407800a0cab30080cf50000900320047
:100a700040c0b3005ae8b700e0428000fafe070029
:100a80001e007800f8fe07008001eb006307980065
:100a90009c003700a11c20001e8040001001be00f9
:100aa0004207980053079800231c20001e80410035
:100ab000104078000080fb00100798001e00900096
:100ac000ee0f500014003e00110020001e009000a8
:100ad0008008dd0000052400008060000000e000c8
:100ae00001003a000c003700611c20001e8040000d
:100af0001001be0022079800330798001e017800fd
:100b00002e009000be009000d90607000000e00013
:100b10000a0032001000370030c0b3005ae8b700b6
:100b2000e0428000d0fe07001e007800cefe0700e5
:100b30008001eb006307980072003700e0428000fc
:100b4000c9fe07001e007800c7fe07000000eb008a
:100b5000600798006b003700e11f20001e804000f6
:100b60009040780050c5b30080cf500006003a0096
:100b7000f21f20001e00410090407800a0cab30080
:100b800080cf50000900320050c0b3005ae8b700cf
:100b9000e0428000b4fe07001e007800b2fe0700ad
:100ba0008001eb006307980056003700e1428000a7
:100bb0001e0178006d00410010407800b050980090
:100bc000e44280009e0178006e80410010007800b1
:100bd0006101b8002e009000be00900002004000ad
:100be00083804800008abe00e14280001e01780038
:100bf000760041001000780080089800e1428000f3
:100c00009e0178007080410010407800a05098004c
:100c1000e4428000e04280001001be00e04280001b
:100c200080089000e0428000205090000080fb008f
:100c30000088b900010020000200400083804800c5
:100c40002002980031029800e24280009e00780065
:100c500071804000104078008080fb009e01780089
:100c600072804100104078000080fb004800dd00e9
:100c70000080400060019800e4428000e042800073
:100c800020019000b0019000e042800060009000e0
:100c90004400de0001002000020040008380480084
:100ca0004002980051029800e8428000e042800033
:100cb00040019000d00190002e009000be009000f6
:100cc00000015100818159004e009000de0090002b
:100cd0000202500083825800e042800030509000b1
:100ce0000081fb00030020000400be00dafe0700c4
:100cf000700498001e0078005bfe0700e042800050
:100d0000600798006e0090004f0478000080fa00a1
:100d1000000006000000fa00e042800052fe0700da
:100d20000000eb00e04288000080fa0000000600ae
:100d30000800fa0020079800310798002e00900064
:100d40001000780020019000b00190003e0090005b
:100d50004400de0001002000001f4100019749000f
:100d6000ae0090000080eb00b01098002e009000c4
:100d7000100190001e00be003d0607000080fa0032
:100d8000000006000800fa002007980031079800cc
:100d90002e0090001000780020019000b00190001b
:100da0003e0090004400de0001002000001f4100d2
:100db000019749002e009000100190001e00be0017
:100dc000720607000080fa00000006000e00fa001c
:100dd000500798005e009000100f78000000eb00b4
:100de00040079800ce0090005e009000d0ff070002
:100df0000000e00003003a000000eb0060079800ec
:100e00007b0037004e0090006f0060004500dd0061
:100e1000300798005e009000900090003e00900027
:100e200000804000104078000080fb001007980010
:100e30001e0090000000e00003003a0011002000b6
:100e4000610798006a0037009e009000500e200055
:100e5000808f5000500032005e00900090009000a3
:100e60003e009000008040006b0040001040780081
:100e70000080fb00100798001e00900072006000c8
:100e80000000e00044003a000000eb00200798005a
:100e9000130037005e00900010019000ae0090003b
:100ea0003e009000008040000000410010407800ab
:100eb0000081fb002e009000de0090007a004000d0
:100ec00001004000104078000000fb00800f51003e
:100ed00006003a002e0090000000e800200798006d
:100ee0002e009000ea0f5000eaff34002e00900020
:100ef000eb0f500028003a005e009000ce009000fa
:100f0000411098005e009000900090003e0090001c
:100f10000080400076004000900078005e00900065
:100f2000310898005e009000900090003e00900014
:100f30000080400078004000900078005e00900043
:100f4000410898005e009000900090003e009000e4
:100f5000008040007c0040001000be005e01900058
:100f600010099800210998005e0090009000900000
:100f70003e009000008040007a0040001000be005b
:100f8000800078005e009000210098002000200082
:100f900060079800160037004e0090000000e8003f
:100fa000400798004e0090006f0060000000e000d5
:100fb00008003a00ce0090005e0090005cff070041
:100fc0000000e00003003a008000eb006107980099
:100fd000070037001e007800e00090004e009000ef
:100fe000808f500087ff3e001000200060079800af
:100ff0006e0090000080fa00000006000c00fa006d
:10100000400798004e009000100f78000000eb00a1
:1010100030079800be0090004e00900044ff07008b
:101020000000e00003003a000000eb0050079800c9
:101030002e0037003e0090006f0060004500dd008c
:10104000200798004e009000900090002e00900025
:1010500000804000104078000080fb0010079800de
:101060001e0090000000e000040032009e0090008e
:10107000500e2000808f500006003a004e00900075
:10108000be009000411098002000200050079800fa
:10109000160037003e0090000000e800300798007e
:1010a0003e0090006f0060000000e00008003a0081
:1010b000be0090004e0090001dff07000000e00001
:1010c00003003a008000eb0051079800070037004a
:1010d0001e007800e00090003e009000808f5000dd
:1010e000d4ff310010002000500798005e009000ef
:1010f0000080fa00000006000e00fa004007980089
:10110000510798005e0090004800de00300798000c
:101110004e009000b01090003e009000808f500074
:10112000140032004e009000100078001001be0044
:101130003e00900001002000001f4100019749007f
:101140004e009000100190001e00be0048050700f0
:101150000000e00003003a000080eb006007980008
:101160001c0037005e009000c800de004e009000ba
:10117000311098004e00900010019000de009000a9
:10118000f00f2000008060000000400000004100df
:10119000104078008081fb004e009000100190000c
:1011a000de009000f00f2000008060000000400092
:1011b000000041000000e800104078000080fb00c3
:1011c0004800dd0000804100200798002e009000bc
:1011d000600798006e0090000080fa000000060092
:1011e0001000fa0040079800510798006207980025
:1011f000de0090004e009000bfff0700de00900070
:10120000f00f2000008060000000400020079800e0
:101210004e009000900090002e00900080804000d2
:101220006e009000804878004e0090009000900082
:101230002e009000008040008000e8006e009000ca
:101240004800de00804878004e00900010007800d2
:101250001001be005e0090004800de00010020008a
:10126000001f4100019749000000eb003007980083
:10127000120037004e009000100190001e00be00ca
:10128000420507000000e00003003a000000eb0008
:1012900070079800120037003e0090000000e80040
:1012a000300798004e009000100078000008900071
:1012b000010020001e0f40005e9748004e00900085
:1012c00010007800205090008080fb003e009000cd
:1012d000808f5000e7ff3c0010002000700798004e
:1012e0007e0090000080fa00000006000a00fa006c
:1012f00020079800310798002e009000100f78000a
:101300002e009000b00090002e0090007aff0700a1
:10131000100798001e009000e90f400005003600fd
:1013200090c0b3005ae8b7000000eb0040079800f7
:10133000150037001e007800f00090001e0090009d
:10134000808f500005003e00b0c0b3005ae8b700df
:101350008000eb00410798000b0037003e00900032
:101360000000e900300798003e0090000000e00017
:10137000e3ff3a002e0090009e009000310098009c
:1013800010002000400798004e0090000080fa00f6
:10139000000006000800fa00200798002e009000c8
:1013a000b0009000010f78001e0fe8002e009000a2
:1013b00010007800700090009e0f500002003e0068
:1013c0000000eb00000f78002e009000300090002d
:1013d0009e0f500005003a00d0c0b3005ae8b70095
:1013e0000000eb00300798001c0037009e007800da
:1013f0002e00900040ff0700100798001e0090008c
:101400000000e000e8ff3a000081eb009e00780059
:101410002e00900072ff07002e0090003000900018
:101420000000e000050032002e009000b0009000a7
:101430001e0178002e00900069ff07002e0090002a
:101440009e00780031009800ae0090000080eb0014
:10145000b010980010002000300798003e00900067
:101460000080fa00000006000600fa00889fbe0017
:101470008a9fbe00200798002e0090001000780080
:1014800040059000d00590002e00900030009000a4
:101490000080e9006104b8002e0090001000780080
:1014a000305090000083fb00070020008800780087
:1014b00006007800000ab80007c0b90005017800ee
:1014c0000001410009b0b90000014100820278002a
:1014d0000a0142008b814a002e00900040009000db
:1014e00001002000001f4100019749002e009000dc
:1014f000100190001e00be00a40407004f05be00ae
:101500004f04be000080fa00000006000600fa004a
:10151000889fbe008a9fbe00200798002e00900082
:101520001000780040059000d00590002e0090003b
:10153000300090000080e9006104b8002e009000a7
:1015400010007800305090000083fb00070020005e
:101550008800780006007800000ab80007c0b900cb
:10156000050178000001410009b0b9000001410007
:10157000820278000a0142008b814a002e0090000e
:101580004000900001002000001f41000197490029
:10159000ae0090000080eb00b01098002e0090008c
:1015a000100190001e00be00310407004f05be0070
:1015b0004f04be000080fa00000006001200fa008e
:1015c0006007980071079800e04280000000e0008a
:1015d00005003a0060c0b3005ae8b7000000eb0015
:1015e000000f98009e01370000202000ccfb070070
:1015f000100798001e0090000000e00005003a006f
:1016000010c1b3005ae8b7008000eb00010f98004a
:1016100093013700a0022000c1fb0700000f7800f3
:101620001e00e00007003a0010c1b3005ae8b700fe
:101630001e0090000cfc07000000eb00000f98005b
:1016400087013700e14280001e0078000108780021
:101650001e0078009e009000110098000000eb0032
:1016600040079800190037006e0090001040780085
:101670008000fb006e0090000000e800600798000a
:10168000010078002cfc0700204f9800ae48900025
:10169000e0c2b30080cf5000190032002e48900005
:1016a0000004e000160032004e0090009e0078001a
:1016b0007a00400001004000ae48900001487800e8
:1016c0004e0090000000e800400798004e00900097
:1016d000e70f5000e4ff3400090037004e0090008f
:1016e0009e0078007a0040008100400000c2b300f4
:1016f000804878004e0090000000e8004007980005
:101700004e009000e70f5000f4ff34002e48900088
:101710000004e000350032008000200040079800ff
:10172000220037006e009000104078008000fb001f
:101730006e0090000000e80060079800010078004b
:10174000fdfb0700204f9800ae489000e0c2b300b8
:1017500080cf500009003a006e00900010407800e1
:101760008000fb006e0090000000e8006007980019
:1017700001007800f0fb0700204f98002e489000f1
:101780000004e000160032004e0090009e00780039
:101790007a00400001004000ae4890000148780007
:1017a0004e0090000000e800400798004e009000b6
:1017b000ea0f5000dbff3400090037004e009000b4
:1017c0009e0078007a0040008100400000c2b30013
:1017d000804878004e0090000000e8004007980024
:1017e0004e009000ea0f5000f4ff34007e0090009d
:1017f0009040780020c7b30080cf50000500320031
:101800007e0090009040780070c7b30080cf5000f9
:101810000b003a007e009000904078001e00780097
:10182000516098001e00780068fd0700300798009e
:101830003e0090000000e000040032000600370087
:1018400020c1b3005ae8b700fe00370030c1b30032
:101850005ae8b700fb0037001e0178006000b800ae
:1018600070019800010998009e0078000000eb00cc
:10187000c00098009e0078000000eb00d0009800a7
:101880001e007800d060900020c7b30080cf5000c9
:101890002b003a003e009000e10f500003003a0098
:1018a00070c0b3005ae8b700e60037001e007800a9
:1018b000a00090001e007800310098001e00780003
:1018c00012ff07000000e000de0032001e0078007a
:1018d00010099000a00990001e0078008008900078
:1018e000700090000001510081815900f01f20001c
:1018f00001002000800f5100818f59000c003c0036
:101900001e007800a00890001008900000017800e8
:101910001e007800800890007000900000005100c8
:10192000800078001e00780061009800c200370037
:101930009e00780000202000e0009800be003700e4
:101940003e009000e10f5000b8003a001e00780001
:101950008000eb00310098001e0078008dfe07002b
:10196000e10f500003003200d0c0b3005ae8b700c6
:10197000b40037001e007800b00090001e00780010
:10198000210098001e0078009cfd07003007980099
:101990003e0090000000e00003003a0010c0b300d9
:1019a0005ae8b700a70037003e009000e10f500052
:1019b00003003a00c0c0b3005ae8b700a1003700e6
:1019c0001e0178006000b8001009980021099800f5
:1019d0001e007800401090006f0060004500dd00a0
:1019e000200798000000eb00400798000b0037002c
:1019f0001e00780010019000ae0090004e00900094
:101a000000804000800041000040eb0080487800ea
:101a10004e0090000000e800400798004e00900043
:101a2000ff0f5000f2ff34009e007800a0782300e2
:101a3000c00898001e007800900090002e009000d2
:101a400000804000f00040001e0078004008900038
:101a5000804878001e007800900090002e009000d2
:101a600000804000f10040001e0078004008900017
:101a70004800de00804878001e007800900090004a
:101a80002e00900000804000f80040001e0078000a
:101a900040089000804878001e0078009000900078
:101aa0002e00900000804000f90040001e007800e9
:101ab000400890004800de00804878009e007800d2
:101ac00000002600b00898001e00780090009000ea
:101ad0002e00900000804000ee0040001e007800c4
:101ae00030089000804878001e0078009000900038
:101af0002e00900000804000ef0040001e007800a3
:101b0000300890004800de00804878001e00780011
:101b1000900090002e00900000804000f6004000f1
:101b20001e007800300890000040e80080487800ef
:101b30001e007800900090002e0090000080400071
:101b4000f70040001e007800300890004800de00da
:101b5000804878001e007800900090002e009000d1
:101b600000804000fa0040001e0078002000900035
:101b7000804878001e007800900090002e009000b1
:101b800000804000fb0040001e0078002000900014
:101b90004800de00804878000000eb004007980015
:101ba0000f0037001e00780010019000ae0090007a
:101bb0004e00900000804000000141004e00900067
:101bc0009e0078007a00400001004000104078003c
:101bd000004978004e0090000000e800400798009f
:101be0004e009000ea0f5000eeff34001e00780017
:101bf000900090002e00900000804000eb0040001c
:101c000000c2b300804878001e007800c010900029
:101c10001e0078005bfc07000000e00006003a00b0
:101c200010c0b3005ae8b70006003700e0c0b300a8
:101c30005ae8b700030037001e007800000f980034
:101c4000070037001e0078001000900086fa070099
:101c50001e00780084fa07008000eb00010f980056
:101c60000e0890000080fa00000006000e00fa0046
:101c70003007980041079800520798005e009000d6
:101c800090007800210798004e00900010079800ff
:101c90005e009000d060900020c7b30080cf50005d
:101ca0007c00320080c0b3005ae8b7008000eb002f
:101cb000610798007e0037005e0090007001900080
:101cc000800990005e009000a0089000100890002d
:101cd000800f5100818f590003003500a0c0b30070
:101ce0005ae8b7006e0037005e009000d000900008
:101cf0005e00900060009000808f500037003a0036
:101d0000de0090000000eb00d00098005e00900024
:101d1000400090008000e8005e00900041009800c4
:101d20005e009000c00090002e00900030509000a7
:101d30000080fb00808f500008003a005e00900099
:101d40008000eb0041009800110020005e00900030
:101d500066fd07000000e000510032005e009000c8
:101d6000eafd07000000e0004d0032005e00900038
:101d700010099000a00990005e009000800890007b
:101d8000700090000001510081815900f01f200077
:101d900001002000800f5100818f59000c003c0091
:101da0005e009000a00890001008900000017800ec
:101db0005e009000800890007000900000005100cc
:101dc000800078005e0090006100980003003700fa
:101dd000de00900000202000e00098005e009000ef
:101de000d00090001e009000808040005e009000b7
:101df00060009000808f5000030031001e009000b2
:101e0000000f7800050037005e009000e0009000b1
:101e10005e00900050009000008f50005e00900027
:101e2000900090005e009000500090008080400084
:101e30003e0090001e01780046fa07001e00900048
:101e40001e005000100798009e0078003e00900091
:101e500001004000300798005e00900050009000a4
:101e60009e0040005e009000510098005e009000cf
:101e700070019000800990001e0078000100200091
:101e800002004000838048005e01900070019800cd
:101e9000010998001e0090000000e00086ff3a0053
:101ea000ce0090001e0090008080500061079800d6
:101eb0006e0090000080fa00000006000600fa00a4
:101ec000200798000000eb00000f78002e00900023
:101ed000d060900070c7b30080cf500045003a003a
:101ee0002e009000500090000000e000040032003e
:101ef0002e0090005cfd07000000e0003f00320073
:101f00002e009000c01090002e00900088fb07006b
:101f10000000e000390032002e00900040109000d8
:101f20006f0060004500dd00100798002e00900053
:101f3000900090001e009000008040007c01400056
:101f40002e009000a0089000100890000049780032
:101f50002e009000900090001e0090000080400035
:101f60007d0140002e009000a00890001008900015
:101f7000c809dd004800de0000807100c888de006e
:101f8000004978002e009000900090001e00900004
:101f9000008040007e0140002e009000a0089000cc
:101fa000100890004088de00cf80de0000497800f5
:101fb0002e009000900090001e00900000804000d5
:101fc0007f0140002e009000a008900010089000b3
:101fd0004888de00cf80de00004978002e009000a7
:101fe000c01090002e00900066fb07000000e0008b
:101ff0000200320010002000000f78002e00900038
:102000001000900098f907002e00900096f9070044
:102010001e0078000080fa00000006000e00fa00a2
:102020003007980041079800520798005e00900022
:1020300090007800210798004e009000000f780073
:102040005e009000d060900070c7b30080cf500059
:102050006800320080c0b3005ae8b7008000eb008f
:1020600061079800690037005e009000d000900082
:102070004e00900080804000f01f2000808f5000b4
:1020800003003e004e009000100798000500370046
:102090005e009000d0009000002020000100500061
:1020a000100798005e009000900090005e00900085
:1020b0005000900000804000be0090001e01900083
:1020c000a4f907005e009000d00090001e00900070
:1020d000808040005e009000510098005e009000fb
:1020e00070019000800990001e0090000100200007
:1020f00002004000838048005e019000700198005b
:1021000001099800ce0090001e0090000080500051
:10211000400798009e0090003e00900001004000a3
:10212000300798005e0090007001900080099000d8
:102130005e009000a008900010089000800f5100f1
:10214000818f5900060034005e00900080089000e6
:10215000700090005e01900010099800210998001d
:102160005e009000d000900000202000808f500082
:1021700020003a005e009000bbfc07000000e00079
:1021800003003a008000eb00610798001f00370051
:10219000de0090000000eb00d00098005e00900090
:1021a000400090008000e8005e0090004100980030
:1021b0005e009000c00090002e0090003050900013
:1021c0000080fb00808f50000a003a005e00900003
:1021d0008000eb00410098005e0090006dfc07005d
:1021e0000000e00003003a000000eb0060079800e8
:1021f000060037004e0090000000e0009aff3a0011
:102200004e0090001e001000600798006e009000c5
:102210000080fa00000006001a00fa00200f980063
:10222000310f9800140037003e089000400f9800ce
:102230004e089000f00f5000020036000001200010
:10224000400f98004e089000100798006400470067
:102250002e0990009e00900084fe0700000f780079
:102260003e0890001e005000300f98001e009000a5
:102270009e0f100003003a003e0890000000e000ae
:10228000e9ff3a003e0890000080fa0000000600d6
:102290001600fa0070079800010f9800120f9800be
:1022a0000000eb00400798000000eb0020079800ba
:1022b000e04280000000e00005003a0060c0b3008a
:1022c0005ae8b7000000eb00200f980088003700a4
:1022d0000020200092f80700000f78001e00e000a8
:1022e00005003a0010c1b3005ae8b7008000eb00c7
:1022f000210f98007e003700a002200088f8070018
:10230000100798001e0090000000e00007003a004f
:1023100010c1b3005ae8b7001e007800d2f80700d9
:102320000000eb00200f980071003700e1428000b0
:102330001e009000010878001e0090009e007800aa
:10234000110098000000eb00600798000000eb000f
:1023500050079800ee0090001e00900074fa0700ed
:102360000000e00003003a0030c1b3005ae8b700b3
:1023700058003700ee0090001e0090006cfa070035
:10238000000037001e009000900090005e0090005a
:1023900000804000104078000080fb00300798006b
:1023a0003e0090000000e00048003200be009000b7
:1023b000500e2000808f50002a0032001e00900036
:1023c000900090005e009000008040006b00400094
:1023d000104078000080fb00300798003e0090001d
:1023e000720060000000e0001e003a001e00900035
:1023f000900090005e009000008040006800400067
:10240000320020009e089000d9f807000000e0008c
:1024100014003a001e009000900090005e009000b2
:10242000008140004e0090004300dd0080007800f5
:102430007e009000008040000700090032587800bc
:102440008000b1008200b1004e0090000000e80062
:10245000400798008e0890004e009000810f5000b9
:102460001a0031006e0090000000e800600798003c
:102470001e00900010007800e00090006e009000b8
:10248000808f5000110039005e0090000002b00003
:1024900050079800de009000f01f2000808f500051
:1024a000b8ff36000000eb0050079800ee009000e7
:1024b0001e0090001efa07000000e000b1ff3a0085
:1024c00030c1b3005ae8b700020037004e00900058
:1024d000200798001e0090001000900062f807008e
:1024e0001e00900060f80700ae009000210f9800d9
:1024f0002e0890000080fa00000006000000fa009c
:10250000e002a800de02a900c0132000101388001a
:1025100000002800001388000080fa000000060078
:102520000200fa00004f78001e80fb004013880074
:1025300060c2bf00614060000004e000fcff3200a8
:10254000401380000080fb000080fa0000000600bd
:102550000200fa00e0c2bf00624060008000eb00b1
:10256000010f78000004e00002003a001000200093
:10257000000f78001e0078000080fa0000000600be
:102580000200fa00e6c2bf00624060008000eb007b
:10259000010f78000004e00002003a001000200063
:1025a000000f78001e0078000080fa00000006008e
:1025b0000a00fa0040479800320798004307980045
:1025c000e002a900ce40900000c4b30000c070003b
:1025d000d3ff07003e009000ce0090004808de00c8
:1025e00001002000ceff07003e009000ce009000ca
:1025f0004008de0001002000c9ff07003e009000f7
:10260000ce0090004809dd004800de0000007100a7
:10261000c808de00c2ff07003e009000c0ff0700b0
:1026200050c9b300beff07009000200010079800bb
:1026300000c0eb00baff07000080fb00000f78002d
:10264000f00f20009e0f100006003a001e009000c0
:102650000000e900100798001e0090000000e00054
:10266000f3ff3c001e0078000080fa000000060026
:102670000c00fa00200798003107980042079800e4
:10268000c222a8002e009000be0090004909dd0083
:10269000c701de00830171004901dd0010c1b300f4
:1026a000c3ff0700100798001e0090000000e00024
:1026b00027003a0000712200000f780000c0eb00f4
:1026c00097ff07000080fb00100798009e00900015
:1026d000e00f2000808f5000030032001e0fe90041
:1026e0001e00e000f5ff3c001e00e0001800320074
:1026f0000000eb00000f78000e003700f00f200004
:102700004013880000138000610060000000e000ba
:10271000fcff320040138000804078004e009000a3
:10272000014878004e0090000000e8004007980043
:102730001e0fe800f01f20009e0f1000efff340076
:1027400000c0eb0076ff070000c0eb0074ff07003d
:10275000e002a80000c0eb0071ff0700c222a90040
:102760000000eb00500798009e009000e00f200052
:10277000808f500002003a0010002000500798009f
:102780005e0090000080fa00000006000a00fa00d7
:10279000200798003107980042079800c242a8001d
:1027a0002e009000be0090004909dd00c701de0048
:1027b000830171004901dd0080c1b3007cff070087
:1027c000100798001e0090000000e0002c003a0066
:1027d000e0cfb30052ff07000000eb00000f7800cd
:1027e000080037004e009000904078004e009000a6
:1027f0000000e800400798000140780048ff07000b
:102800001e0fe800f01f20009e0f1000f5ff36009d
:1028100000c0eb0042ff070000c0eb0040ff0700d4
:1028200000c0eb003eff07000080fb006f0060006f
:10283000100798001e009000e50f50000e003a00af
:102840000080eb00000f78000800370000c0eb00ac
:1028500033ff07000080fb00100798001e00900067
:102860000000e00006003a001e0fe9001e00e00034
:10287000f6ff3a00020037000000eb001007980056
:10288000e002a80000c0eb0025ff0700c242a9003b
:102890001e0090000080fa00000006000600fa000a
:1028a000e002a80000c0eb001dff07000000eb00e5
:1028b000100798000500370000c0eb0018ff070064
:1028c0001e0090000000e800100798001e00900015
:1028d000e90f5000f8ff3400e002a9006011b800d1
:1028e0000040eb0032ff0700000f7800e002a80074
:1028f00000c0eb000aff0700100020009e0f100030
:102900000300320040082000200798001f00370015
:1029100000712200100798006011b80010c0b300c9
:1029200023ff0700000f7800e002a80000c0eb00c2
:10293000fbfe07001e00e000060032001e009000b3
:102940000000e900100798001e0090000000e00061
:10295000f1ff3c001e0090000000e00003003a0080
:102960005008200020079800080037000000eb0006
:1029700000138800b0132000101388000000280006
:10298000001388000000eb00200798002e00900044
:102990000080fa00000006000000fa000000eb00d2
:1029a0002016880000f02f00001688000080fa0032
:1029b000000006000200fa00000f78000000280066
:1029c00020088800060037000000eb00000888009f
:1029d00001088000f0e72300808f5000fcff3600e4
:1029e0001e0fe9000080eb009e0f1000f6ff3a007a
:1029f0000080fa00000006000200fa000000eb0070
:102a0000000f7800c0e2a800d4c2bf000044b200aa
:102a10000004e00001003a001e30a000d4c2bf0054
:102a200001c8b300014060000004e00001003a006a
:102a30001e20a000c2c2bf0001c8b3000140600058
:102a40000004e00001003a001e10a000d5c2bf0043
:102a50000042b2000004e00001003a001e00a000a5
:102a60001e0078000080fa00000006000800fa004e
:102a70000000eb00300798000000eb0020079800f2
:102a80000000eb0010079800a0002000c9ff07001d
:102a9000d9ff0700000f78001e00e0000900320097
:102aa0002e0090009e0f1000020034001e007800df
:102ab000200798003e0090000000e80030079800d2
:102ac000020037000000eb00300798003e00900045
:102ad000e90f5000ecff34000000eb0030079800d5
:102ae000a0002000b3ff0700c3ff0700000f78001d
:102af0001e00e0000b0032002e0090009e0f100020
:102b0000020034001e007800200798000000eb004f
:102b1000300798001e0090000000e80010079800a1
:102b2000030037003e0090000000e80030079800e6
:102b30003e009000e90f5000e9ff34009e00900035
:102b400000052000808f5000030034002e0090000c
:102b50000008b000200798002e0090000080fa00c6
:102b6000000006000200fa00000f78001e00780046
:102b700060198800000e2000001988000000eb009a
:102b800080198800f0f32100201988000000eb0074
:102b90001019880021e3a800cbe2a900c7e2a90030
:102ba0000080fa00000006000200fa00000f780022
:102bb0001e007800401988002023a80020c3bf0011
:102bc000614060000004e000fcff3200001880005b
:102bd0000080fa00000006000000fa002002200039
:102be000c01188008000280080118800004020006b
:102bf00090118800e1a2a800dfa2a9000080fa00dd
:102c0000000006000200fa00000f7800e1c2bf00d9
:102c1000704060000004e000fcff3a0033c2bf00d7
:102c2000624060000004e000fcff3a001e007800f3
:102c3000a01188001e0078000080fa000000060045
:102c40000000fa00e1a2a90032c2bf0061406000aa
:102c50000004e000fcff3200e1a2a800b0118000f7
:102c60000000fb000080fa00000006000200fa00ed
:102c7000000f7800050037001e0078001040780033
:102c80000000fb001e0fe800deff07001e007800ba
:102c9000104078000004e000f7ff3a00d000200068
:102ca000d8ff0700a0002000d6ff07000080fa0030
:102cb000000006000600fa0010079800210798009f
:102cc0001e009000000f7800ddff070080407800b4
:102cd0001e009000014878001e009000104078000f
:102ce0000000fb00c7ff07001e00900010407800a6
:102cf000e84f50000e003a001e0090009e0f50005a
:102d00000b00360000022000beff070080002000fc
:102d1000bcff07002e0090000000e800200798008c
:102d20001e0090000000e900100798000e00370018
:102d30001e00900010407800ea4f50000a00320058
:102d40001e00900010407800ed4f50000900320046
:102d50001e0090000000e800100798002e00900070
:102d60000000e900200798002e009000e10f5000bd
:102d7000d5ff3c009e0090000040eb0080487800aa
:102d80001e0078000080fa00000006000400fa002f
:102d900091ff0700c0442800b4ff0700ecfd0700c6
:102da0000000e000fdff32004006200001ff0700a8
:102db00010452800adff0700e9f607000000e0001d
:102dc0001d00320000462800a8ff070061462800c9
:102dd00080462800f9f90700100798001e009000af
:102de0000000e0000f003200304728009fff07007e
:102df0001e019000a1002000008520009bfb070021
:102e0000000f7800a00020009e0f1000f8ff320095
:102e10001e00900029fc0700f047280093ff0700e0
:102e200002003700b048280090ff0700b9f70700fc
:0c2e3000f04928008dff0700ffff37006d
:020000040000fa
:102e3c00500800000a000000000000005a080000c2
:102e4c0004000000000000005e0800000600000006
:102e5c0002000000040000000000000064080000f4
:0c2e6c0002000000000000000000000058
:020000040000fa
:042e78000000fe0058
:00000001FF
