:020000040000fa
:080000000002040000000000f2
:020000040000fa
:100400000fc52000007f22000001880000000000ce
:100410000c000700803220000100200011000700be
:10042000000020000000e000020032000000020096
:100430000000000016030200000000000040da0087
:100440000000fe004440a900000020000000e00081
:100450000300320000002000a00188004440a800f2
:100460000000060091018800800078000000eb0089
:1004700015003700e280400032a0b4009101ba00bc
:10048000e280400032a0b4009102ba00e280400055
:1004900032a0b4000002eb00472bde00f507b200eb
:1004a000602ce10004003a000059eb008301e900f0
:1004b000fdff3e00040037006128e100010032002a
:1004c0000082eb00040007001101ba000200e00006
:1004d000e8ff3a00000006003159ba008301e90044
:1004e0000c0032002159ba008301e90008003200f3
:1004f0000400e00003003a00e280400032a0b400b3
:10050000f5ff370011d9ba008301e900faff3a007c
:100510008100e800e180400032a0b4000000060045
:10052000c2118800801188009111880001003700f5
:10053000b011800032c2bf000008a300fcff3a00e7
:1005400087c0a9000000060033c2bf000004a2005b
:1005500061006000000006008000780030c2bf002b
:1005600066406000e64f500001003200f10fb2001b
:10057000a11188000000060032c2bf0061006000c7
:100580000000060030c2bf0066406000e64f500029
:1005900002003a00b011800000000600b011800097
:0805a000f00fb200000006009c
:020000040000fa
:020000040002f8
:04aff800bd7b00001d
:020000040000fa
:020000040002f8
:04affc007f3f000093
:020000040000fa
:100008002a0300002a0300002a0300002a03000034
:100018002a0300002a0300002a0300002a03000024
:100028002a0300002a0300002a0300002a03000014
:100038002a0300002a0300002a0300002a03000004
:020000040000fa
:020000040000fa
:1005a8000000fa00220220000140200080002800fc
:1005b800d9ff0700e1a2a800dfa2a9000080fa0085
:1005c800000006000200fa00004f7800e1c2bf00f8
:1005d800704060000004e000fcff3a00d8ff07000c
:1005e8000004e000fdff3a001e00fb00d8ff0700f2
:1005f8001e00fb000080fa00000006000000fa0060
:10060800e1a2a900daff07000004e000fdff3200c4
:10061800e1a2a800d9ff07000000fb000080fa0053
:10062800000006000200fa00ddff0700e0c3b30087
:10063800e4ff0700f1ff0700004f78001e40780034
:08064800e0ff0700fbff370093
:020000040000fa
:0406500000000000a6
:020000040000fa
:040654000000fe00a4
:00000001FF
