:020000040000fa
:080000000002040000000000f2
:020000040000fa
:100400006f802000007f22000001880000000000b3
:100410000c000700803020000100200011000700c0
:10042000000020000000e000020032000000020096
:1004300000000000d8020200000000000040da00c6
:100440000000fe004440a900000020000000e00081
:100450000300320000002000a00188004440a800f2
:100460000000060091018800800078000000eb0089
:1004700015003700e280400032a0b4009101ba00bc
:10048000e280400032a0b4009102ba00e280400055
:1004900032a0b4000002eb00472bde00f507b200eb
:1004a000602ce10004003a000059eb008301e900f0
:1004b000fdff3e00040037006128e100010032002a
:1004c0000082eb00040007001101ba000200e00006
:1004d000e8ff3a00000006003159ba008301e90044
:1004e0000c0032002159ba008301e90008003200f3
:1004f0000400e00003003a00e280400032a0b400b3
:10050000f5ff370011d9ba008301e900faff3a007c
:100510008100e800e180400032a0b4000000060045
:020000040000fa
:020000040002f8
:04aff800bd7b00001d
:020000040000fa
:020000040002f8
:04affc007f3f000093
:020000040000fa
:10000800140300001403000014030000140300008c
:10001800140300001403000014030000140300007c
:1000280014030000140300001403000090020000f1
:10003800140300001403000014030000140300005c
:10004800140300001403000014030000140300004c
:10005800140300001403000014030000140300003c
:10006800140300001403000014030000140300002c
:10007800140300001403000014030000140300001c
:10008800140300001403000014030000140300000c
:1000980014030000140300001403000014030000fc
:1000a80014030000140300001403000014030000ec
:1000b80014030000140300001403000014030000dc
:1000c80014030000140300001403000014030000cc
:1000d80014030000140300001403000014030000bc
:1000e80014030000140300001403000014030000ac
:1000f800140300001403000014030000140300009c
:10010800140300001403000014030000140300008b
:10011800140300001403000014030000140300007b
:10012800140300001403000014030000140300006b
:10013800140300001403000014030000140300005b
:10014800140300001403000014030000140300004b
:10015800140300001403000014030000140300003b
:10016800140300001403000014030000140300002b
:10017800140300001403000014030000140300001b
:10018800140300001403000014030000140300000b
:1001980014030000140300001403000014030000fb
:1001a80014030000140300001403000014030000eb
:1001b80014030000140300001403000014030000db
:1001c80014030000140300001403000014030000cb
:1001d80014030000140300001403000014030000bb
:1001e80014030000140300001403000014030000ab
:0801f8001403000014030000d1
:020000040000fa
:10020800140300001403000014030000140300008a
:10021800140300001403000014030000140300007a
:1002280014030000140300001403000090020000ef
:10023800140300001403000014030000140300005a
:10024800140300001403000014030000140300004a
:10025800140300001403000014030000140300003a
:10026800140300001403000014030000140300002a
:10027800140300001403000014030000140300001a
:10028800140300001403000014030000140300000a
:1002980014030000140300001403000014030000fa
:1002a80014030000140300001403000014030000ea
:1002b80014030000140300001403000014030000da
:1002c80014030000140300001403000014030000ca
:1002d80014030000140300001403000014030000ba
:1002e80014030000140300001403000014030000aa
:1002f800140300001403000014030000140300009a
:100308001403000014030000140300001403000089
:100318001403000014030000140300001403000079
:100328001403000014030000140300001403000069
:100338001403000014030000140300001403000059
:100348001403000014030000140300001403000049
:100358001403000014030000140300001403000039
:100368001403000014030000140300001403000029
:100378001403000014030000140300001403000019
:100388001403000014030000140300001403000009
:1003980014030000140300001403000014030000f9
:1003a80014030000140300001403000014030000e9
:1003b80014030000140300001403000014030000d9
:1003c80014030000140300001403000014030000c9
:1003d80014030000140300001403000014030000b9
:1003e80014030000140300001403000014030000a9
:0803f8001403000014030000cf
:020000040000fa
:10052000809fbe003400f80000002000a001880079
:100530000000fa00004080000000e8000040880051
:1005400000408000e90f5000140034000000eb0070
:1005500000408800104080000000e8001040880043
:1005600011408000b0032000808f50000b00340049
:100570000000eb0010408800204080000000e800f0
:100580002040880021408000b0032000808f500070
:10059000020034000000eb00204088008460a900c5
:1005a0000080fa003400f9004f00be000040060051
:1005b0000000fa00510a200091407800f0c8b30012
:1005c00000c0600001c4b30001407000a5e0b700a6
:1005d0000000eb0000088800701a26001008880050
:1005e00000f02f0000168800000228002008880074
:1005f0008460a9009460a80042c0bf007f406000f2
:1006000042e0b7001040800010168800fdff370060
:020000040000fa
:1006100000080000060000000200000000000000ca
:080620000000000000000000d2
:020000040000fa
:040628000000fe00d0
:00000001FF
