:020000040000fa
:080000000002040000000000f2
:020000040000fa
:100400000f852000007f220000018800000000000e
:100410000c000700a02e20000100200011000700a2
:10042000000020000000e000020032000000020096
:1004300000000000ca020200000000000040da00d4
:100440000000fe004440a900000020000000e00081
:100450000300320000002000a00188004440a800f2
:100460000000060091018800800078000000eb0089
:1004700015003700e280400032a0b4009101ba00bc
:10048000e280400032a0b4009102ba00e280400055
:1004900032a0b4000002eb00472bde00f507b200eb
:1004a000602ce10004003a000059eb008301e900f0
:1004b000fdff3e00040037006128e100010032002a
:1004c0000082eb00040007001101ba000200e00006
:1004d000e8ff3a00000006003159ba008301e90044
:1004e0000c0032002159ba008301e90008003200f3
:1004f0000400e00003003a00e280400032a0b400b3
:10050000f5ff370011d9ba008301e900faff3a007c
:100510008100e800e180400032a0b4000000060045
:020000040000fa
:020000040002f8
:04aff800bd7b00001d
:020000040000fa
:020000040002f8
:04affc007f3f000093
:020000040000fa
:10000800ec020000ec020000ec020000ec02000030
:10001800ec020000ec020000ec020000ec02000020
:10002800ec020000ec020000ec020000ec02000010
:10003800ec020000ec020000ec020000ec02000000
:020000040000fa
:020000040000fa
:100520000200fa00000f78001e00780060198800b1
:10053000000e2000001988000000eb0080198800e0
:1005400010f02100201988000000eb00101988002d
:1005500021e3a800cbe2a900c7e2a9000080fa00cd
:10056000000006000200fa00000f78001e0078006c
:10057000401988002023a80020c3bf00614060000c
:100580000004e000fcff3200001880000080fa0048
:10059000000006000400fa00f0fd2f00e0ff070055
:1005a00000f02f000016880050002000edff07002b
:1005b000100798001e0090004780de00000f7800b2
:1005c000010820001e0078000088de001016880058
:0405d000f5ff3700fc
:020000040000fa
:0405d4000000000023
:020000040000fa
:0405d8000000fe0021
:00000001FF
