:020000040000fa
:080000000002040000000000f2
:020000040000fa
:100400004f802000007f22000001880000000000d3
:100410000c00070020402000010020001100070010
:10042000000020000000e000020032000000020096
:1004300000000000c6030200000000000040da00d7
:100440000000fe004440a900000020000000e00081
:100450000300320000002000a00188004440a800f2
:100460000000060091018800800078000000eb0089
:1004700015003700e280400032a0b4009101ba00bc
:10048000e280400032a0b4009102ba00e280400055
:1004900032a0b4000002eb00472bde00f507b200eb
:1004a000602ce10004003a000059eb008301e900f0
:1004b000fdff3e00040037006128e100010032002a
:1004c0000082eb00040007001101ba000200e00006
:1004d000e8ff3a00000006003159ba008301e90044
:1004e0000c0032002159ba008301e90008003200f3
:1004f0000400e00003003a00e280400032a0b400b3
:10050000f5ff370011d9ba008301e900faff3a007c
:100510008100e800e180400032a0b4000000060045
:1005200021108800301088000000060006c2bf00bd
:100530000008a300fdff3a0006c2bf000018a30098
:10054000faff3a0006c2bf000028a300f7ff3a00f6
:1005500006c2bf000038a300f4ff3a0006c2bf0085
:100560000048a300f1ff3a0009c2bf000068a300e1
:10057000eeff3a00000006000021ef00110888009d
:1005800020088800000006000602a80000000600ff
:100590000080fb001010880008c2bf0001c8b30033
:1005a000014060000080fb000000e9004f00de0019
:1005b0000000e900000006000642a8000000060056
:1005c0000662a80006c2bf000038a300fdff3a0083
:1005d00008c2a900001080000080fb000000060097
:1005e00006a2a9000682a8000000060006a2a80034
:0805f0000682a80000000600cd
:020000040000fa
:020000040002f8
:04aff800bd7b00001d
:020000040000fa
:020000040002f8
:04affc007f3f000093
:020000040000fa
:100008000a0400000a0400000a0400000a040000b0
:100018000a0400000a0400000a0400000a040000a0
:100028000a0400000a0400000a0400000a04000090
:100038000a0400000a0400000a0400000a04000080
:020000040000fa
:020000040000fa
:1005f8000000fa00f104200000042800c6ff0700ec
:10060800c8ff07008080eb0000032800d8ff070020
:100618000000eb0000088800010880003006200078
:10062800808f5000fcff36000080fa0000000600b2
:100638000600fa0010079800210798001e00900095
:10064800ae0090004909dd004700de00000071009f
:10065800c788de00ee006000000a2000008f7000ee
:10066800c7ff0700afff07001e007800c6ff07009e
:10067800acff0700912020009140780000c8b3002b
:1006880000c060000004e00003003200c8ff07005b
:10069800a4ff0700f2ff37001e009000baff070012
:1006a800a0ff07001e0078000080fa000000060086
:1006b8000800fa0020079800310798002e009000e3
:1006c800be009000daff070010079800b8ff070087
:1006d80094ff0700aaff070092ff07001e00900082
:1006e8000040e800a8ff07008eff0700b2ff0700e0
:1006f8000080fb00000f7800b7ff070089ff0700a4
:10070800adff07000080fb004800dd001e0f7000f1
:10071800b4ff070083ff0700a5ff070081ff07005c
:100728001e0078000080fa00000006000800fa00a9
:100738001007980021079800320798001e009000c3
:10074800ae009000baff0700000f78003e0090004e
:100758008040780000c0eb0000c060008aff0700fe
:1007680070ff07003e0090004880de0086ff07000b
:100778006cff07008eff07006aff07000080fa0081
:10078800000006000000fa0099ff07000000eb00d7
:1007980000408800110037000240800000408000bf
:1007a80000004000cf80de00e0ff0700004080002e
:1007b80000004000cf80de00bdff07001040880029
:1007c8001140800000408000808f500007003a00f0
:1007d800004080000000e8000040880001408000e0
:1007e800f03f2000808f5000ebff34000000000035
:0c07f8000000000000000000fcff3700c3
:020000040000fa
:1008040000080000040000000000000000000000d8
:020000040000fa
:040814000000fe00e2
:00000001FF
