:020000040000fa
:080000000002040000000000f2
:020000040000fa
:10040000cf012200007f22000001880000000000d0
:100410000c000700c07d2000010020001100070033
:10042000000020000000e000020032000000020096
:1004300000000000fc070200000000000040da009d
:100440000000fe004440a900003020000000e00051
:100450000300320000002000a00188004440a800f2
:100460000000060091018800800078000000eb0089
:1004700015003700e280400032a0b4009101ba00bc
:10048000e280400032a0b4009102ba00e280400055
:1004900032a0b4000002eb00472bde00f507b200eb
:1004a000602ce10004003a000059eb008301e900f0
:1004b000fdff3e00040037006128e100010032002a
:1004c0000082eb00040007001101ba000200e00006
:1004d000e8ff3a00000006003159ba008301e90044
:1004e0000c0032002159ba008301e90008003200f3
:1004f0000400e00003003a00e280400032a0b400b3
:10050000f5ff370011d9ba008301e900faff3a007c
:100510008100e800e180400032a0b4000000060045
:020000040000fa
:020000040002f8
:04aff800bd7b00001d
:020000040000fa
:020000040002f8
:04affc007f3f000093
:020000040000fa
:1000080004080000040800000408000004080000b8
:1000180004080000040800000408000004080000a8
:100028000408000004080000040800000408000098
:100038000408000004080000040800000408000088
:1000480090050000040800000408000004080000ef
:100058000408000004080000040800000408000068
:100068000408000004080000040800000408000058
:100078000408000004080000040800000408000048
:100088000408000004080000de0500000408000061
:100098000408000004080000040800000408000028
:1000a8000408000004080000040800000408000018
:1000b8000408000004080000040800000408000008
:1000c80004080000040800000408000004080000f8
:1000d80004080000040800000408000004080000e8
:1000e80004080000040800000408000004080000d8
:1000f80004080000040800000408000004080000c8
:1001080004080000040800000408000004080000b7
:1001180004080000040800000408000004080000a7
:100128000408000004080000040800000408000097
:100138000408000004080000040800000408000087
:100148000408000004080000040800000408000077
:100158000408000004080000040800000408000067
:100168000408000004080000040800000408000057
:100178000408000004080000040800000408000047
:100188000408000004080000040800000408000037
:100198000408000004080000040800000408000027
:1001a8000408000004080000040800000408000017
:1001b8000408000004080000040800000408000007
:1001c80004080000040800000408000004080000f7
:1001d80004080000040800000408000004080000e7
:1001e80004080000040800000408000004080000d7
:0801f8000408000004080000e7
:020000040000fa
:1002080004080000040800000408000004080000b6
:1002180004080000040800000408000004080000a6
:100228000408000004080000040800000408000096
:100238000408000004080000040800000408000086
:1002480090050000040800000408000004080000ed
:100258000408000004080000040800000408000066
:100268000408000004080000040800000408000056
:100278000408000004080000040800000408000046
:100288000408000004080000de050000040800005f
:100298000408000004080000040800000408000026
:1002a8000408000004080000040800000408000016
:1002b8000408000004080000040800000408000006
:1002c80004080000040800000408000004080000f6
:1002d80004080000040800000408000004080000e6
:1002e80004080000040800000408000004080000d6
:1002f80004080000040800000408000004080000c6
:1003080004080000040800000408000004080000b5
:1003180004080000040800000408000004080000a5
:100328000408000004080000040800000408000095
:100338000408000004080000040800000408000085
:100348000408000004080000040800000408000075
:100358000408000004080000040800000408000065
:100368000408000004080000040800000408000055
:100378000408000004080000040800000408000045
:100388000408000004080000040800000408000035
:100398000408000004080000040800000408000025
:1003a8000408000004080000040800000408000015
:1003b8000408000004080000040800000408000005
:1003c80004080000040800000408000004080000f5
:1003d80004080000040800000408000004080000e5
:1003e80004080000040800000408000004080000d5
:0803f8000408000004080000e5
:020000040000fa
:1005200000000000000000000000000000000000cb
:10053000181800001818000018000000180000002b
:100540003624000048000000000000000000000009
:10055000001200007f1400007f140000240000003f
:10056000083c0000483e0000094900003e08000029
:1005700010290000120400000a15000022000000eb
:10058000000e0000103000004a4400003b00000054
:100590001810000010000000000000000000000023
:1005a00008100000202000002010000008000000bb
:1005b00010080000040400000408000010000000ff
:1005c00000000000107c0000102800000000000067
:1005d00000180000187e000018180000000000003d
:1005e000000000000000000030300000400000006b
:1005f00000000000007e000000000000000000007d
:1006000000000000000000000018000018000000ba
:10061000030600000c18000010300000600000000d
:100620003e61000061610000616100003e00000069
:100630001838000018180000181800003c000000ce
:100640003e41000043040000081100007f0000004c
:100650003e410000010e0000014100003e0000008c
:1006600060600000606800007f0800000800000073
:100670007f610000607e0000014100003e0000003c
:100680003e610000607e0000616100003e000000ed
:100690007f460000060c000018300000300000000b
:1006a0003e610000613e0000616100003e0000000c
:1006b0003e610000613f00000204000038000000bd
:1006c000000000003030000000300000300000006a
:1006d000000000003030000000300000600000002a
:1006e000000000001820000040200000180000005a
:1006f000000000007f0000007f00000000000000fc
:100700000000000030080000040800003000000075
:100710003e41000002040000180000001800000024
:100720003e4100004d5100004e4100003e000000df
:100730001c320000616100007f6100006100000068
:100740007e610000617e0000616100007e000000ab
:100750001e61000060600000606100003e0000005b
:100760007c62000061610000616200007c000000aa
:100770007f610000607c0000606100007f0000007d
:100780007f610000607c000060600000600000008d
:100790001e61000060600000676100003e00000014
:1007a00061610000617f0000616100006100000084
:1007b0003c18000018180000181800003c00000049
:1007c0001e0c00000c0c00000c4c00003800000057
:1007d000636200006478000064620000630000004f
:1007e0007060000060600000606100007f00000039
:1007f0006163000075690000616100006300000032
:100800006371000069690000656300006100000019
:100810001e21000061610000616100003e000000d7
:100820007e610000617e00006060000060000000ea
:100830001e21000061610000616200003f000000b5
:100840007e610000617e00006864000063000000bb
:100850003e410000403e0000014100007e000000db
:100860007f59000018180000181800003c00000014
:100870006361000061610000616100003e000000f2
:100880006361000061310000321c000018000000ac
:100890006361000061690000692a00001400000023
:1008a0006322000014080000081400006300000028
:1008b0006322000014080000080800001c0000006b
:1008c0007e44000008140000182200007e00000092
:1008d00000780000606000006060000078000000a8
:1008e00040600000301800000c040000060000000a
:1008f0001e06000006060000060600001e0000009e
:1009000008140000220000000000000000000000a9
:10091000000000000000000000000000007f000058
:10092000301800000400000000000000000000007b
:10093000007c0000023f0000414300003d00000039
:1009400040400000407e0000414100005e00000089
:10095000000000003e400000404000003e0000005b
:10096000010100003f410000414100003d00000046
:10097000003e0000414100007e4000003e000000bb
:100980003c40000040780000404000004000000073
:10099000003e0000414100003f0100003e00000019
:1009a000404000005c620000414100004100000046
:1009b0000008000000180000080800001c000000eb
:1009c00000040000000c00000404000004380000d3
:1009d00020260000283000002824000073000000ba
:1009e000301000001010000010100000380000004f
:1009f000000000007649000049490000490000005d
:100a0000000000006c2200002222000066000000ae
:100a1000000000003e410000414100003e00000097
:100a2000000000006e310000212100003e70000037
:100a3000000000003b440000444400003c0e000065
:100a4000000000005e2000002020000038000000b0
:100a5000000000001f2000001e0100003e000000fa
:100a6000103c000010100000101100000e000000eb
:100a70000000000022220000222200001d000000d1
:100a800000000000612100002214000008000000a6
:100a900000000000634200005254000028000000e3
:100aa000000000006618000010280000460000004a
:100ab0000000000063140000080800001800000097
:100ac000000000003f2200000c1900003f00000061
:100ad00004080000081800000808000004000000d6
:100ae0001010000010100000101000001010000086
:100af00010080000080c00000808000010000000aa
:100b00000000000030490000060000000000000066
:100b1000ff810000818100008181000081ff0000d1
:020000040000fa
:100b200000a0fe00c202a8001808ed00c040880026
:100b300008003a00d0408000000040008180200082
:100b4000e0807800c140880001802000e0807800cb
:100b5000d1408800d0408000e10f500007003200f3
:100b6000e20f5000080032000000e00009003a00e7
:100b7000c0812000a04088000c00370040342000d5
:100b8000700c880009003700a0052000700c880058
:100b900006003700400b2000a00c880090002000c9
:100ba000b00c880020002000b04088008500a9001b
:100bb000c202a9000080fe000040060000a0fe0066
:100bc000c222a800a1408000010078003001780016
:100bd00042128800a040880010007800401288006f
:100be00064804000a0408800100078004012880017
:100bf00066804000a0408800100078004012880005
:100c000068804000a04088001000780040128800f2
:100c10006a804000a04088001000780040128800e0
:100c20006c804000a04088001000780040128800ce
:100c30006e804000a04088001000780040128800bc
:100c4000f0804000a14088001608ed00b040880008
:100c50004240a90004003400000e20009421b4009a
:100c600090002000b00c88008740a900c222a90093
:100c70000080fe0000400600a8c0bf0081cfb30086
:100c8000014060000024a000a8e0b700b1c0bf0090
:100c9000014060000024a000b1e0b7008000eb003c
:100ca00051088800803f200070088800020028005a
:100cb00092088800a0052000700c8800610c880054
:100cc000d0002000800c88008740a9009740a80031
:100cd0008500a9009500a800b043210010128800eb
:100ce000100020002012880002128800d1408800e5
:100cf00010022000c040880000000600c0812000d3
:100d00000001eb00c101220002187800810f5000a1
:100d1000fdff3a000000060013e1a90000000600f4
:100d2000d04080000000e000feff3a000000060016
:100d300000017800f00f2000800f51000f003e00ee
:100d4000f00b2000808f50000c003e00810050000e
:100d5000c408dd004410de00808040008180400037
:100d6000c38120006f016100000028000200de0046
:100d7000618179000200700080b0790000000600f7
:100d8000e4874700889fbe008a9fbe008c9fbe00fc
:100d90008e1f780080027800018251004240a90035
:100da00001003c0003825000050051004240a900b0
:100db00001003c00028052000007eb00800f52004f
:100dc000010034001e0020000e00e000060032008a
:100dd00002007800030178008001780005007800a7
:100de0008102780080007800850f510006003d00e8
:100df0000100780083007800800178000500780009
:100e000082027800000178008505510001865100ba
:100e10004240a90001003c00038650001000200061
:100e200080bf9f00818f510002003c000080eb00da
:100e300080bf9f00850f5100170034000105780026
:100e4000050478008004eb00858645000e00e00074
:100e500004003200880078000a007800b4ff070020
:100e6000030037008a00780008007800b0ff070010
:100e70008c84440009804400808f550003003c00ae
:100e80000fb89700000545008b8454000804e80063
:100e9000888f5600edff3a004f0778004f06be00de
:100ea0004f05be004f04be004f00b1000000060019
:100eb00001fe2f008101400002003b008001eb0099
:100ec00004003700f0052000808f5100010034003d
:100ed0008001780080408000ff0f50000200340045
:100ee0001028ef001228ec0090408000f70f50000f
:100ef000010034001228ef00904080004700dd0020
:100f00008140800022002000801f7800110009002d
:100f10008200d800800078004f0078000100400077
:100f200000004000c181200001014000c318dd0025
:100f3000002928008081400084002000804080003b
:100f4000e102600007f02f00f60f20000500e0002e
:100f500004003200928063003300fb0000897000bf
:100f600004003700920063003300fb004800dd00fe
:100f7000008970000202b0000402e900f3ff3a00a9
:100f80001028ec0000000600881f7800000478009c
:100f9000104078000004e000050032000000fb0073
:100fa000c3ff0700584078000004e000fbff3a0050
:080fb0004f0478000000060068
:020000040000fa
:100fb8001c080000001800000000000000080000e5
:100fc8001000000002000000010002000003000001
:100fd8000000030000220000c00021000000000003
:100fe800100800000c0000000000000000000000d5
:020000040000fa
:100ff800c022ef003fff07001dff0700ffff37007b
:020000040000fa
:041008000000fe00e6
:00000001FF
