:020000040000fa
:080000000002040000000000f2
:020000040000fa
:100400002f042200007f220000018800000000006d
:100410000c000700401e2100010020001100070011
:10042000000020000000e000020032000000020096
:100430000000000010120200000000000040da007e
:100440000000fe004440a900c00020000000e000c1
:100450000300320000002000a00188004440a800f2
:100460000000060091018800800078000000eb0089
:1004700015003700e280400032a0b4009101ba00bc
:10048000e280400032a0b4009102ba00e280400055
:1004900032a0b4000002eb00472bde00f507b200eb
:1004a000602ce10004003a000059eb008301e900f0
:1004b000fdff3e00040037006128e100010032002a
:1004c0000082eb00040007001101ba000200e00006
:1004d000e8ff3a00000006003159ba008301e90044
:1004e0000c0032002159ba008301e90008003200f3
:1004f0000400e00003003a00e280400032a0b400b3
:10050000f5ff370011d9ba008301e900faff3a007c
:100510008100e800e180400032a0b4000000060045
:10052000889fbe00e30440000900a100808f5400b2
:100530004a003600e38f540001003e0049002000cd
:1005400062c380000200e0000200320082007800f6
:100550000c003700e186210003003700908f540023
:10056000230036008080e800110078000000e000e1
:10057000faff3a000f003700908f54001c0036003d
:100580008080e800110078000000e000faff3a00e7
:1005900012017800e186210003003700908f54009b
:1005a000130036008080e80011007800820f5000b0
:1005b000faff3a0058c38000890f5400010031004f
:1005c0000904780008007800770007000000e000c8
:1005d00004003a00890f5400200032000804d100c2
:1005e000f5ff3700081878001f000700d4ff370018
:1005f000110178009201780064805100890f500049
:1006000003003100120090008008780007003700d6
:1006100009004100800878009201900013009800c2
:100620001100780012881400090978009100780000
:100630000100e00005003200110090000000e00021
:10064000020032000180e800010037000000eb00ea
:1006500060c388000280e800010037000000eb0062
:100660004f04be00000006000000e0003100320030
:100670008080e90091027800e38f52002d0036005f
:100680000508a3002b003a0072c380000200e000be
:1006900002003200828f500004003100020878000e
:1006a00071c38800160037000301780092019000a2
:1006b0000300e00002003200818f5100faff390090
:1006c0001202780004004100808f500019003900a8
:1006d000810f500003003a000509420082007800b3
:1006e000070037000300e0000300320005804000ef
:1006f000808f51000f00390093009800110198007d
:10070000110190000200e0000a0032001180400058
:10071000820f500007003a00c08621000008eb005d
:100720001100900011017800900841001000900025
:100730009000980000000600800078001106b100cb
:10074000030035009101b10001003c000050a10000
:10075000000006008001eb000200370061f0790024
:100760008301e800828f5100fcff3a000000060080
:100770008001eb0008003700e342780063c2780094
:100780008301e80084cf5200030032000080eb00b8
:100790000400390010000500828f5100f6ff3a0076
:1007a0000000eb00000006000000e0000300340041
:1007b00004000700e10f400001003a000000eb00d8
:1007c00000000600889fbe008004780080c380007f
:1007d0000000e00003003a00100007000000e00005
:1007e0000a00350080c380000900e00002003a00e2
:1007f000000478000600370000047800090040007b
:10080000060007000000e00001003d000084eb004e
:10081000080078004f04be00000006008000780049
:100820000000e00004003a002087210080c3880017
:1008300001017800060037000081eb00200422004f
:10084000808f500002003e0081c388000001eb0051
:1008500002007800000006006022b80006022000b6
:100860000000d0008180d2000482d2008582d200b4
:100870000000a0000202520083825a0003003100ef
:100880000202420083824a000000a1000603e90040
:08089000f3ff3a00000006002e
:020000040000fa
:020000040002f8
:04aff800bd7b00001d
:020000040000fa
:020000040002f8
:04affc007f3f000093
:020000040000fa
:1000080034120000341200003412000034120000d0
:1000180034120000341200003412000034120000c0
:1000280034120000341200003412000034120000b0
:1000380034120000341200003412000034120000a0
:10004800861100003412000034120000341200003f
:100058003412000034120000341200003412000080
:100068003412000034120000341200003412000070
:100078003412000034120000341200003412000060
:100088003412000034120000341200003412000050
:100098003412000034120000341200003412000040
:1000a8003412000034120000341200003412000030
:1000b8003412000034120000341200003412000020
:1000c8003412000034120000341200003412000010
:1000d8003412000034120000341200003412000000
:1000e80034120000341200003412000034120000f0
:1000f80034120000341200003412000034120000e0
:1001080034120000341200003412000034120000cf
:1001180034120000341200003412000034120000bf
:1001280034120000341200003412000034120000af
:10013800341200003412000034120000341200009f
:10014800341200003412000034120000341200008f
:10015800341200003412000034120000341200007f
:10016800341200003412000034120000341200006f
:10017800341200003412000034120000341200005f
:10018800341200003412000034120000341200004f
:10019800341200003412000034120000341200003f
:1001a800341200003412000034120000341200002f
:1001b800341200003412000034120000341200001f
:1001c800341200003412000034120000341200000f
:1001d80034120000341200003412000034120000ff
:1001e80034120000341200003412000034120000ef
:0801f800341200003412000073
:020000040000fa
:1002080034120000341200003412000034120000ce
:1002180034120000341200003412000034120000be
:1002280034120000341200003412000034120000ae
:10023800341200003412000034120000341200009e
:10024800861100003412000034120000341200003d
:10025800341200003412000034120000341200007e
:10026800341200003412000034120000341200006e
:10027800341200003412000034120000341200005e
:10028800341200003412000034120000341200004e
:10029800341200003412000034120000341200003e
:1002a800341200003412000034120000341200002e
:1002b800341200003412000034120000341200001e
:1002c800341200003412000034120000341200000e
:1002d80034120000341200003412000034120000fe
:1002e80034120000341200003412000034120000ee
:1002f80034120000341200003412000034120000de
:1003080034120000341200003412000034120000cd
:1003180034120000341200003412000034120000bd
:1003280034120000341200003412000034120000ad
:10033800341200003412000034120000341200009d
:10034800341200003412000034120000341200008d
:10035800341200003412000034120000341200007d
:10036800341200003412000034120000341200006d
:10037800341200003412000034120000341200005d
:10038800341200003412000034120000341200004d
:10039800341200003412000034120000341200003d
:1003a800341200003412000034120000341200002d
:1003b800341200003412000034120000341200001d
:1003c800341200003412000034120000341200000d
:1003d80034120000341200003412000034120000fd
:1003e80034120000341200003412000034120000ed
:0803f800341200003412000071
:020000040000fa
:10089800534f00004e4700002e57000041560000fd
:0808a8000000000072000000d6
:020000040000fa
:1008b0000400fa00889fbe008a9fbe008c9fbe0085
:1008c0003a05070048050700800078000000e000b6
:1008d00004003a0020c0b30064e8b70001007800cb
:1008e000a6003700cf0507000000e000040032003a
:1008f000f0c0b30064e8b7000000eb009f003700d1
:100900004001200006ff0700800078003043880087
:100910000000e00004003a0010c1b30064e8b70032
:10092000010078009500370000202000fcfe070041
:10093000800478000000e00006003a0010c1b30017
:1009400064e8b7003043800047ff070009007800e3
:100950008a003700000178006000b8004d050700ec
:10096000000478000000e00008003a0000c1b30075
:1009700064e8b700304380003bff070009007800bf
:1009800039ff0700080078007c003700e81f2000ce
:100990000904440050c5b300984f100005003a0008
:1009a000fa1f200009054500a0cab3009a4f1000a5
:1009b0000800320040c0b30064e8b7003043800054
:1009c00029ff07000900780027ff07000000eb005f
:1009d0006a00370059a09100e9a0910080bf9f00f4
:1009e00091bf9f0029c09300ee4f500006003e00cb
:1009f0000000fb00110020008008dd00000524003d
:100a00008080600008003a0030c0b30064e8b7009e
:100a10003043800014ff07000900780012ff070030
:100a20000000eb005500370039a69100c9a69100df
:100a3000090178000c00be0016050700800578004b
:100a40000000e00006003a003043800006ff070087
:100a50000900780004ff07000b007800470037000a
:100a600050c5b300984f100003003a00a0cab3006d
:100a70009a4f10000800320050c0b30064e8b7007d
:100a800030438000f8fe070009007800f6fe0700fa
:100a90000000eb003900370030438000d948900057
:100aa000315098007900900000004600e0804e0030
:100ab000324380000089be00304380003909900035
:100ac000020898003043800089519000235098001c
:100ad00033438000235090000080fb000309900006
:100ae0000280b9000100200033024000a3824800c8
:100af000a4019800b5019800995090008180fb00f6
:100b0000295090004800dd00808040003043800084
:100b10006100980034438000640090004400de00cf
:100b200024019000b401900000004100e0804900e1
:100b3000400298005102980038438000480090001d
:100b4000d80090000c0050008d8058000fb997001d
:100b50009fb99700000051008180590038519000e2
:100b60000281fb00030020003bff07007004980097
:100b700009007800bcfe0700304380004f06be002d
:100b80004f05be004f04be000080fa0000000600c2
:100b900030438000b4fe07006628ef000000060026
:100ba00001017800900078004412de0021019000dd
:100bb000b101900004024100e08249008080eb0016
:100bc00031109800100190000400be00b10407002d
:100bd000000006001001900010007800c409de003b
:100be000b00090002000900003004000e08048002a
:100bf000dc04070000000600889fbe008a1f780002
:100c000000047800100578008000eb00e4ff070086
:100c10000000e000330032008004eb006f806400cd
:100c200098009000c502dd0065c078000004e00077
:100c30002e003200fb4f40001f0032008580400034
:100c400031489000720060001b003a00810178007a
:100c50007a014400000278009380fb001200fb0040
:100c6000808f500014003a000402e8008301e8007d
:100c70000201e800eb0f5200f7ff3a004914980018
:100c80001800900000804200b0089000310c9800dd
:100c900040099000420c980060099000f009900013
:100ca000120c9800230c9800500890002004980023
:100cb000200020000e0037008904e8006f806400e7
:100cc00004003a000800be00b5ff07000000e00085
:100cd000040032006a009000808f5400030031004d
:100ce000ceff37000000eb000100370010002000ad
:100cf0004f0578004f04be0000000600889fbe002c
:100d00008a1f780080047800100578008000eb00ce
:100d1000a3ff07000000e000190032000004eb0010
:100d20006f006400990090004500dd0060c078000d
:100d30000004e00002003200fb4f400003003a00d4
:100d4000c8149800200020000e0037000804e800b6
:100d50006f00640005003a00880078000900780000
:100d60008fff07000000e000050032006a009000dd
:100d7000800f5400eaff3600100020000100370009
:100d80000000eb004f0578004f04be000000060095
:100d9000889fbe008a1f7800000478000105780053
:100da000c80cde0030109000808f54000b00320021
:100db00018019000980178006148b80033024000a3
:100dc000a38248000400be00320407008080eb00cc
:100dd0000000e00009003200391498000a80fb008e
:100de0000000400098009000010040009080fb004f
:100df000104090004800dd00808040000100780035
:100e00004f0578004f04be0000000600889fbe001a
:100e10008a9fbe00000578000104780082047800f3
:100e2000dbff07008880fb00818040001a009000f3
:100e3000897078001a00900001004000c848de0068
:100e4000114098001a007800c840de006109b8001f
:100e500030044100a0844900205090000004e000cc
:100e60000f0032008005eb001a0190000800be0060
:100e70003c0407000000e0000a0032008b05e80097
:100e80009a0078000108900000044400e0844c00bf
:100e9000215090000080fb00808f5500f2ff35004c
:100ea000100020004f05be004f04be0000000600e9
:100eb000889fbe008a9fbe000004780081057800ec
:100ec000100578008004eb00b8009000080078005e
:100ed000afff070080007800e90f400004003600f3
:100ee00090c0b30064e8b7000000eb000c003700ce
:100ef0007a009000810f500004003e00b0c0b300a3
:100f000064e8b7000000eb00050037008904e80042
:100f1000898f5500ecff3a00310498001000200042
:100f20004f05be004f04be0000000600889fbe00b3
:100f300080047800300490000804e800190078006c
:100f400070009000800f5400010039000004eb0095
:100f500039009000880f500004003a00d0c0b30060
:100f600064e8b7000000eb00130037008800780049
:100f70000900780086ff07000000e000eeff3a005d
:100f80000081eb0088007800090078009fff0700cf
:100f9000b90090000100e000030032000801780071
:100fa0000900780099ff0700b80498000080eb0062
:100fb000b0149800100020004f04be00000006008e
:100fc00090007800100190003003900031529000a2
:100fd0000482fb00050020000683e9000433b8000a
:100fe00041029000d10290000603420087834a002c
:100ff0004000900000004300e0804b00d903070050
:101000000000060000027800900278003001900095
:10101000355090000080fb00010020000281e900b3
:101020000011b80045009000d5009000020140007a
:10103000838148004400900000004100e0804900a6
:101040000081eb0032129800140190009103070018
:1010500000000600889fbe008a9fbe008c9fbe00d5
:1010600000057800810678006608e20004003a0076
:1010700060c0b30064e8b7000006eb00f50037007d
:101080000020200026fd0700000478000000e0009a
:1010900004003a0010c1b30064e8b7000806780005
:1010a000ec003700a00220001dfd070000067800bc
:1010b0000000e00005003a0010c1b30064e8b7008a
:1010c0000800780068fd0700e20037003043800028
:1010d000000e780018069800fa0446000004eb00a1
:1010e000ebc2b3003a00fb0093fd0700804078009c
:1010f0008b4f5000070032000004e0000500320072
:10110000805c78000804e800e80f54000a00320010
:10111000f4ff37007a0044000000460002c2b3002a
:10112000025878000804e800e70f5400fcff340080
:101130000104e0001d0032002b0220008c854500d8
:10114000880020008a04e8001a00fb007afd0700ee
:1011500080407800e0c2b30080cf500004003a0025
:101160001900fb008a84e80073fd070080407800c6
:101170000104e00006003200815d78000804e80008
:10118000eb0f54000900320009057800edff37002d
:101190007a0044000000460001c2b3000158780004
:1011a0000804e800ea0f5400fcff34009d4078007a
:1011b00020c7b30080cf50000300320065404000dc
:1011c00080cf500007003a00516698000c0078006c
:1011d00089fe0700000178000000e00004003200f2
:1011e0000600370020c1b30064e8b7009400370060
:1011f00030c1b30064e8b700910037006000b80068
:1012000070069800010e98000000eb004006980060
:1012100050069800dc60900020c7b30080cf5000db
:101220001b003a00e10f510003003a0070c0b30008
:1012300064e8b70082003700ac00900031069800e7
:101240000c0078006fff07000000e0007c00320017
:101250001c0a9000ac0a90007c0190008c09900060
:101260000200520083805a00f61f2000860f5000b3
:10127000e08f580003003c00020052006006980016
:1012800074003700002020006006980071003700cd
:10129000e10f510068003a000000eb0030069800b2
:1012a0000c00780021ff0700e10f5000030032001e
:1012b000d0c0b30064e8b700610037003c00900084
:1012c000200698000c0078008cfe07000000e0006b
:1012d00003003a0010c0b30064e8b70058003700bc
:1012e000e10f500003003a00c0c0b30064e8b7004b
:1012f000530037006000b800100e9800210e9800cf
:101300004c1090006f0060008000eb004502dd0093
:101310008041eb00020220001c0090000100400010
:1013200004004000034878008100e800828f5000ec
:10133000f9ff3a00a0782300400e980004017800dd
:101340001c00900004004000a1c8b30001509800a8
:101350001c009000000042009c5890001150980022
:101360001c009000000042000c5b900006589800a2
:101370001c009000000042009c58900011589800fa
:1013800000002600300e98001c0090000000420073
:10139000634898001c009000000042007c539000bd
:1013a000764898009c009000810042003c08900024
:1013b0000040e800e05098001c009000000042004f
:1013c000fc509000715098001c00900000004200fa
:1013d0004c439000265898001c00900000004200ea
:1013e000dc40900031589800fa0146008000eb0084
:1013f0001c0090000100400033707a008100e8007a
:10140000eb8f5000faff3a001c00900000004100f2
:10141000f5c0400031489800cc1090000c007800d6
:10142000ecfd07000000e0000a003a0010c0b30025
:1014300064e8b70002003700e0c0b30064e8b7001a
:101440001c00900088fc07000c00780086fc070058
:101450000006eb000c0078004f06be004f05be00f2
:101460004f04be0000000600889fbe008a9fbe0099
:101470008c9fbe0080057800010678000204780089
:1014800092067800d260900020c7b30080cf500051
:101490004f00320080c0b30064e8b7000000eb00ea
:1014a0005800370018089000a8089000820f5000dc
:1014b000838f580004003c00a0c0b30064e8b7006c
:1014c000410037000c057800d800900068009000bb
:1014d000808f500022003a000001eb005204980077
:1014e000c80090008100e800410498003d50900041
:1014f0000080fb00808f500006003a0042049800f4
:10150000110020000800780069fe07000000e000dc
:101510002d00320008007800bafe07000000e0004d
:1015200029003200180a9000a80a90007801900063
:10153000880990000200520083805a00f61f2000a4
:10154000860f5000e08f580003003c00020052005c
:10155000600498000200370000202000600498001a
:10156000d8019000e80090000a804100810f5000ef
:10157000020031008a0478000100370083845000a3
:101580009800900081804100090178000b007800ec
:1015900070fc07000905550089854500580090003a
:1015a0000080440050049800780090008808900063
:1015b00009014000e081480072049800030c980083
:1015c0000a00e000b7ff3a000a0056000d0037009d
:1015d0000c00e00002003a000c057800faff37002a
:1015e000820990007201900018089000a8089000ed
:1015f000800f5100818f5900b2ff35000c05780033
:10160000adff37004f06be004f05be004f04be00c1
:1016100000000600889fbe0000047800d0609000a3
:1016200070c7b30080cf50002b003a0058009000e4
:101630000000e000040032000800780060fe0700af
:101640000000e00022003200c8109000080078007e
:1016500053fd07000000e0001d003200481190001b
:101660006f0161004511dd0018009000020040008c
:10167000a8509000415898009801900083014100c3
:1016800018089000a8089000480add004800de0015
:1016900000007200c888de00d05998001800900041
:1016a00000004100c8509000615898001800900058
:1016b000000141005852900074599800c8109000e1
:1016c0000800780043fd07000000e00002003a0037
:1016d0008004eb0001003700190020001800900082
:1016e000e1fb070008007800dffb07000900780035
:1016f0004f04be0000000600889fbe008a9fbe0007
:101700008c9fbe008e1f780080057800010678004f
:101710000204780092067800d260900070c7b3008f
:1017200080cf50003f00320080c0b30064e8b700b3
:101730000006eb003d0037000c0578000e2020006d
:101740005801900082004500f01f2000808f50005b
:1017500002003e008a04780001003700820457002e
:101760001800900000004100090178008b0078000b
:10177000f8fb0700580090000080440050049800d7
:10178000780090008808900009014000e08148003e
:1017900072049800030c98000905550089854500de
:1017a00018089000a8089000800f5100818f590000
:1017b00002003400120c9800230c9800580090008e
:1017c0008e0f500012003a0008007800fcfd070060
:1017d0000000e000110032000001eb00520498000c
:1017e000c80090008100e800410498003d5090003e
:1017f0000080fb00808f500005003a0042049800f2
:1018000008007800c9fd07000000e0000300320076
:101810000a00e00005003200c9ff37000006eb00b7
:10182000020037000c00e000c3ff3a000c00780013
:101830004f0778004f06be004f05be004f04be00a4
:10184000000006001000fa00889fbe008a1f780082
:1018500000057800010478000100e0000d0032006e
:1018600088047800f00f54000100360009012000c0
:101870000a0178008900780076805700fafe070098
:1018800000045400808f540002003a000800e00079
:10189000f3ff3a00080078004f0578004f04be00bf
:1018a0000080fa0000000600e4874700889fbe0021
:1018b0008a9fbe008c9fbe008e1f780080bf9f0055
:1018c00001077800820678006608e20004003a000a
:1018d00060c0b30064e8b7000004eb005a003700b2
:1018e000002020000efb0700000478000000e0004c
:1018f00003003a0010c1b30064e8b700520037009b
:10190000a002200006fb0700800478000000e00031
:1019100006003a0010c1b30064e8b7000800780080
:1019200051fb07000904780047003700304380006e
:10193000800c7800980498008000eb000900780083
:1019400097fc0700800078000000e00004003a00e7
:1019500030c1b30064e8b7000104780036003700f6
:101960008000eb00090078008dfc07000006eb000a
:101970000c0578008c057800010037008005eb002d
:10198000190090000b044000184078000004e000ab
:1019900028003200fb4f400013003200384890000e
:1019a0007200600010003a0068004400320020001d
:1019b0008d0078006efb07000000e0000a003a008e
:1019c0004360dd008fb89700010040000700090068
:1019d000385878008000b1008800b1000c06e8009b
:1019e0008e0f5600130031000a05e8001900780038
:1019f00060009000800f55000e003e000b02b0000a
:101a0000f01f2000808f5500ddff36008a0078002f
:101a10000900780062fc0700800078000000e00008
:101a2000d6ff3a0030c1b30064e8b7000104780083
:101a3000010037000c047800190090000afb070031
:101a40000900780008fb0700080078004f077800bd
:101a50004f06be004f05be004f04be004f00b10050
:101a6000000006000f02b000889fbe008a9fbe00e3
:101a70008c9fbe008e1f78006145280075fd070011
:101a8000800478000000e000c2003200000178000d
:101a9000c100200040fd2f000f00400072fe070033
:101aa00020952400616424002fa99700bfa9970006
:101ab000800f5100818f5900aa003a006fa997004a
:101ac000ffa997007015240061552400800f510074
:101ad000818f5900a3003a0009017800810020009d
:101ae00040fd2f000f0040005ffe070060d626007b
:101af000410722002fa99700bfa99700800f51002e
:101b0000818f590097003a000901780001012000f7
:101b100003fe2f000f80410053fe0700cfa897005f
:101b2000f08050000900780046ff07004a162600a2
:101b30004b172600090178008100200040fd2f008e
:101b40000f00400048fe0700e80f500085003a00f3
:101b50002fa89700bfa897008a0f50008b8f5800be
:101b600004003200cfa897000900780035ff070075
:101b7000f0ff37004fae9700dfae97002fb597000c
:101b8000bfb597001e00200011622500810f55008f
:101b9000e08f5d0009003e001e002000106225005d
:101ba000010020000a0545008b854d000e07470007
:101bb000800f5500818f5d00faff36000a01be00dc
:101bc00000402200410f200023fb0700610050006d
:101bd000e08058000200200013002000820f500017
:101be000838f5800040036000900780089fe070042
:101bf0000000eb00670037005028ef001fb197008e
:101c000082bf9f00ffb097000140a2000100ea00e0
:101c1000010070004f04de0062041400f3ff200096
:101c2000830f5600e08f5e004e00360009017800f9
:101c300001002100a08620000bfe07005228ef00c3
:101c400000002f00f1ff2f000c0640008d86480099
:101c50000fba9700880178000e0178000a00be00d4
:101c600080010700f07f2000800f5600e08f5e00ab
:101c700017003600aa8620002b0107000004780018
:101c80000000e00034003a005208e200faff32009f
:101c900080428000610010004b00dd000a0040001f
:101ca0000901780001802000effd070098428800bc
:101cb00000802f00f1ff2f000c0640008d864800a9
:101cc000f17f2000810f5600e08f5e00eaff3e00aa
:101cd000e00f5600e08f5e001f003200804280005f
:101ce000610010004b00dd00a886200008004000c5
:101cf000090178008c007800dbfd07006101b80065
:101d000080428000e10010004b08dd00020040002e
:101d10000000e90060407c000082fb00f07f2000b2
:101d2000800f5100e08f590008003e00120037007c
:101d30000458780061014100e081490001802000e1
:101d4000810f5100e08f5900f9ff3a005228ef004f
:101d50005208e200feff32005228ef005208e20073
:101d6000feff3200670107000900780029fe070026
:101d700010002000070037000400e000f3ff3400eb
:101d80004b08dd0002004000a18620000100400059
:101d9000e7ff37004f0778004f06be004f05be0033
:101da0004f04be000f02b10000000600e002a800d0
:101db000de02a900c01320001013880000002800d4
:101dc00000138800000006000080fb00401388001c
:101dd00060c2bf000008a300fdff32004013800076
:101de0000080fb0000000600e0c2bf000080fb0096
:101df0000000d1000000a2006100600000000600a9
:101e0000e6c2bf000080fb000000d1000000a2007d
:101e10006100600000000600889fbe000204be0052
:101e2000e002a9000064a000e7ff07004848de00c8
:101e300001002000e4ff07004048de000100200010
:101e4000e1ff07004849dd004840de000000710066
:101e5000c848de00dcff070008407800daff070012
:101e600050c9b300d8ff07009800200000c0eb0065
:101e7000d5ff07008080fb00e14f400002003a00e0
:101e80000804e900f9ff3a00010078004f04be00a1
:101e900000000600889fbe008a1f780002047800b8
:101ea000c222a8004909dd00c701de0083017100dc
:101eb0004901dd0010c1b300d7ff0700000578001d
:101ec0000000e0001a003a000971220000c0eb0097
:101ed000bdff07000085fb00e24f40000300320019
:101ee0008904e90012003200f8ff37000900e00021
:101ef0000f0032008000eb00f30f200002202000d2
:101f0000431388006002ab00feff320040138000e4
:101f1000005c78008100e800828f5000f8ff3a00f2
:101f200000c0eb00a8ff070000c0eb00a6ff070001
:101f3000e002a80000c0eb00a3ff0700c222a90036
:101f40008000eb00e00f2000800f550001003a00f8
:101f500011002000010078004f0578004f04be00fa
:101f600000000600889fbe008a1f78008204780067
:101f7000c242a8004909dd00c701de0083017100eb
:101f80004901dd0080c1b300a3ff07000005780010
:101f90000000e0001b003a00e0cfb3008aff07001a
:101fa0000a0478000a2020003940780086ff0700e4
:101fb0000804e8008a0f5400fbff3a0000c0eb0061
:101fc00081ff070000c0eb007fff070000c0eb00af
:101fd0007dff07006f0060000005eb00e50f50007b
:101fe00008003a000084eb0000c0eb0076ff070019
:101ff0000085fb000004e00002003a000804e9004c
:10200000f9ff3a00e002a80000c0eb006eff0700f5
:10201000c242a9000a0078004f0578004f04be00b4
:1020200000000600889fbe00e002a80000c0eb0090
:1020300065ff07000004eb0000c0eb0062ff070033
:102040000804e800ea0f5400fbff3a00e002a90090
:102050006011b8000040eb006fff0700000478003b
:10206000e002a80000c0eb0057ff07004008200076
:10207000e10f540017003a00097122006011b80006
:1020800010c0b30064ff070000047800e002a8005d
:1020900000c0eb004cff07000800e0000300320026
:1020a0008904e9000a003200f4ff37000900e0006b
:1020b000070032000000eb0000138800b11320007d
:1020c0001113880001002800011388000100370067
:1020d000500820004f04be0000000600c422ef009c
:1020e00000f02f0000168800000006008001780034
:1020f00000002800200888000001eb000002eb002f
:102100000600370004088800f1e72300000880007b
:10211000810f5000fdff36000201e800828f510060
:10212000f8ff3a0000000600c0e2a800d4c2bf00d9
:102130000044b2000080fb000000e900cf00de0098
:10214000c308dd00d442e200010035000120a000f8
:10215000c242e200010035000110a000d5c2bf005c
:102160000058a30001003a000100a000010078001f
:1021700000000600889fbe008a1f78000004eb0064
:1021800088047800010037000004eb00a000200064
:10219000d6ff0700e4ff07000000e000faff32006e
:1021a000808f540001003d00800478000804e8009e
:1021b000e90f5400f5ff34000004eb000805780037
:1021c000a0002000c9ff0700d7ff07000000e000c3
:1021d00006003200808f540001003d00800478002a
:1021e0000a05e8000004eb00f5ff37000804e800ea
:1021f000e90f5400f2ff340000052000800f550065
:10220000010034000908b000090078004f0578008b
:102210004f04be000000060060198800000e200078
:10222000001988008000eb0081198800f0f321007c
:10223000201988001119880021e3a800cbe2a90029
:10224000c7e2a90000000600401988002023a8006a
:1022500020c3bf000008a300fdff3200001880006b
:10226000000006000003be008000eb0081428800f1
:102270009086200000804100f0428800008020000d
:102280000043880091428800d24288000008200064
:10229000e28f5100010032000000eb00c0428800d4
:1022a000b4428800e34288000498b90010438800d3
:1022b00000002800900888000601be0000402200af
:1022c000410f200064f90700700888000e01d50056
:1022d000a04288008500a9009500a800000c880095
:1022e000010c8000110c8800300c8800300c80003c
:1022f000400c8800e0002000200c8800500c880072
:10230000000006009500a9000000060000a0fe00e5
:102310006808ed004043880028003a00d042800061
:1023200040438800f1428000c24280001180fb00df
:10233000020068007e004000000c8800b04280006f
:10234000e20f500007003a00e042800060c07800d1
:102350000080fb00000069007e004000300c880017
:1023600002003700000c8000300c88001043800011
:1023700080804000f14288006008b500004388007a
:102380004240a9000d003c00804280006100100026
:10239000804288004b00dd00e142800001004000e7
:1023a0009186200001004000f0428800008020005b
:1023b0000043880010002000904288008500a9009a
:0823c0000080fe000040060051
:020000040000fa
:1023c8006a08000000100000000000006808000013
:1023d8000200000002000000010000005008000098
:1023e8001400000000000000640800000400000061
:1023f800000000006a18000006000000020000004b
:102408000400000000000000701800000200000036
:082418000000000000000000bc
:020000040000fa
:102420002eff070022f907000000e00005003a0037
:1024300064c8bf000000fb000008b0001016880050
:1024400008003700f00f200010168800c044280054
:1024500084fd07000000e0000200320010002000b0
:0824600010168800ffff370091
:020000040000fa
:042468000000fe0072
:00000001FF
