:020000040000fa
:080000000002040000000000f2
:020000040000fa
:100400000f852000007f220000018800000000000e
:100410000c00070020392000010020001100070017
:10042000000020000000e000020032000000020096
:10043000000000005e030200000000000040da003f
:100440000000fe004440a900000020000000e00081
:100450000300320000002000a00188004440a800f2
:100460000000060091018800800078000000eb0089
:1004700015003700e280400032a0b4009101ba00bc
:10048000e280400032a0b4009102ba00e280400055
:1004900032a0b4000002eb00472bde00f507b200eb
:1004a000602ce10004003a000059eb008301e900f0
:1004b000fdff3e00040037006128e100010032002a
:1004c0000082eb00040007001101ba000200e00006
:1004d000e8ff3a00000006003159ba008301e90044
:1004e0000c0032002159ba008301e90008003200f3
:1004f0000400e00003003a00e280400032a0b400b3
:10050000f5ff370011d9ba008301e900faff3a007c
:100510008100e800e180400032a0b4000000060045
:020000040000fa
:020000040002f8
:04aff800bd7b00001d
:020000040000fa
:020000040002f8
:04affc007f3f000093
:020000040000fa
:10000800940300009403000094030000940300008c
:10001800940300009403000094030000940300007c
:10002800940300009403000094030000940300006c
:10003800940300009403000094030000940300005c
:020000040000fa
:020000040000fa
:100520000000fa00d582a800d382a9002012200082
:100530001013880000002800001388000080fa00d3
:10054000000006000200fa00000f78001e0078008c
:100550004013880060c2bf00614060000004e000fa
:10056000fcff3200401380000080fa00000006000b
:100570000200fa00d582a90050002000f1ff070018
:100580000000eb00efff0700000f7800d582a80005
:100590001e0078000080fa00000006000800fa0043
:1005a0002007980031079800f1ff07006100600004
:1005b0000004e000fcff3a00d582a90030002000d2
:1005c000e0ff07002e009000be0090004809dd000b
:1005d0004800de0000007100c888de00d9ff070077
:1005e000ae009000e00f200000806000d5ff070003
:1005f0000000eb00d3ff0700000f78000000eb00c5
:10060000d0ff070010079800d582a8001e007800d0
:10061000c800dd001e009000008040000080fa004d
:10062000000006000000fa00d582a900600020004a
:10063000c4ff0700d582a8000080fa000000060071
:100640000600fa00008fbe0022079800c8ff0700ce
:10065000610060000004e000fcff3a00f1ff0700c9
:10066000d582a90020002000b6ff07001e00be00b2
:100670004809dd004800de0000007100c888de0087
:10068000b0ff07009e007800e00f200000806000af
:10069000acff07002e0090004880de00a9ff070095
:1006a000ae009000f00f200000806000a5ff070062
:1006b000d582a8000080fa00000006000400fa00bd
:1006c00097ff07000000eb001007980010003700ac
:1006d0001e00900000004000cf80de001e01900050
:1006e000d7ff07001e00900000004000cf80de0012
:1006f000aaff0700000f78001e0090009e0f100058
:1007000007003a001e0090000000e8001007980063
:100710009e009000f0ff2300808f5000ecff34001b
:04072000ffff3700a0
:020000040000fa
:0407240000000000d1
:020000040000fa
:040728000000fe00cf
:00000001FF
