:020000040000fa
:080000000002040000000000f2
:020000040000fa
:100400004f0b2100007f2200000188000000000047
:100410000c000700009920000100200011000700d7
:10042000000020000000e000020032000000020096
:1004300000000000d0080200000000000040da00c8
:100440000000fe004440a900603120000000e000f0
:100450000300320000002000a00188004440a800f2
:100460000000060091018800800078000000eb0089
:1004700015003700e280400032a0b4009101ba00bc
:10048000e280400032a0b4009102ba00e280400055
:1004900032a0b4000002eb00472bde00f507b200eb
:1004a000602ce10004003a000059eb008301e900f0
:1004b000fdff3e00040037006128e100010032002a
:1004c0000082eb00040007001101ba000200e00006
:1004d000e8ff3a00000006003159ba008301e90044
:1004e0000c0032002159ba008301e90008003200f3
:1004f0000400e00003003a00e280400032a0b400b3
:10050000f5ff370011d9ba008301e900faff3a007c
:100510008100e800e180400032a0b4000000060045
:10052000881f780000047800808580000000e000cb
:100530000100320000000100200b21000048eb0008
:10054000508580000000e000010032000000010042
:100550006140b80060858800718588004f0478008c
:1005600000000600881f7800808580000000e00001
:100570000100320000000100508580000000e00012
:100580000100320000000100408180000000e00016
:100590000100320000000100108180000000e00036
:1005a0000100320000000100200b21001004e000d7
:1005b00026003a0060858000718580000004eb0011
:1005c000d2602600930120003b000700f2352f0087
:1005d000e3c6230000004100818049000804e800d0
:1005e000e80f5400f6ff3a006085880071858800a6
:1005f000a8022100d26026009301200060858000bf
:10060000718580002c000700f2352f00e3c623001f
:100610000000410081804900608588007185880064
:10062000009cbe00a00a2100800f5400f1ff3a0098
:1006300030858000418580002081880031818800dc
:1006400011c0b300200b210001487800d2602600c1
:1006500093012000608580007185800016000700ee
:10066000f2352f00e3c623000000410081804900dd
:10067000608588007185880042022100120178009f
:100680007f0161004211dd00a3022100030141004e
:100690001202be0024818800358188000089be00d6
:1006a00020818000318180004008de0000f0a10040
:1006b0004f04780000000600020ab900001bb900d0
:1006c0000200b800810042008100430000000600e3
:020000040000fa
:020000040002f8
:04aff800bd7b00001d
:020000040000fa
:020000040002f8
:04affc007f3f000093
:020000040000fa
:10000800be090000be090000be090000be090000cc
:10001800be090000be090000be090000be090000bc
:10002800be090000be090000be090000be090000ac
:10003800be090000be090000be090000be0900009c
:100048007e060000be090000be090000be090000cf
:10005800be090000be090000be090000be0900007c
:10006800be090000be090000be090000be0900006c
:10007800be090000be090000be090000be0900005c
:10008800be090000be090000ec060000be09000021
:10009800be090000be090000be090000be0900003c
:1000a800be090000be090000be090000be0900002c
:1000b800be090000be090000be090000be0900001c
:1000c800be090000be090000be090000be0900000c
:1000d800be090000be090000be090000be090000fc
:1000e800be090000be090000be090000be090000ec
:1000f800be090000be090000be090000be090000dc
:10010800be090000be090000be090000be090000cb
:10011800be090000be090000be090000be090000bb
:10012800be090000be090000be090000be090000ab
:10013800be090000be090000be090000be0900009b
:10014800be090000be090000be090000be0900008b
:10015800be090000be090000be090000be0900007b
:10016800be090000be090000be090000be0900006b
:10017800be090000be090000be090000be0900005b
:10018800be090000be090000be090000be0900004b
:10019800be090000be090000be090000be0900003b
:1001a800be090000be090000be090000be0900002b
:1001b800be090000be090000be090000be0900001b
:1001c800be090000be090000be090000be0900000b
:1001d800be090000be090000be090000be090000fb
:1001e800be090000be090000be090000be090000eb
:0801f800be090000be09000071
:020000040000fa
:10020800be090000be090000be090000be090000ca
:10021800be090000be090000be090000be090000ba
:10022800be090000be090000be090000be090000aa
:10023800be090000be090000be090000be0900009a
:100248007e060000be090000be090000be090000cd
:10025800be090000be090000be090000be0900007a
:10026800be090000be090000be090000be0900006a
:10027800be090000be090000be090000be0900005a
:10028800be090000be090000ec060000be0900001f
:10029800be090000be090000be090000be0900003a
:1002a800be090000be090000be090000be0900002a
:1002b800be090000be090000be090000be0900001a
:1002c800be090000be090000be090000be0900000a
:1002d800be090000be090000be090000be090000fa
:1002e800be090000be090000be090000be090000ea
:1002f800be090000be090000be090000be090000da
:10030800be090000be090000be090000be090000c9
:10031800be090000be090000be090000be090000b9
:10032800be090000be090000be090000be090000a9
:10033800be090000be090000be090000be09000099
:10034800be090000be090000be090000be09000089
:10035800be090000be090000be090000be09000079
:10036800be090000be090000be090000be09000069
:10037800be090000be090000be090000be09000059
:10038800be090000be090000be090000be09000049
:10039800be090000be090000be090000be09000039
:1003a800be090000be090000be090000be09000029
:1003b800be090000be090000be090000be09000019
:1003c800be090000be090000be090000be09000009
:1003d800be090000be090000be090000be090000f9
:1003e800be090000be090000be090000be090000e9
:0803f800be090000be0900006f
:020000040000fa
:1006d000000000000000000000000000000000001a
:1006e000181800001818000018000000180000007a
:1006f0003624000048000000000000000000000058
:10070000001200007f1400007f140000240000008d
:10071000083c0000483e0000094900003e08000077
:1007200010290000120400000a1500002200000039
:10073000000e0000103000004a4400003b000000a2
:100740001810000010000000000000000000000071
:100750000810000020200000201000000800000009
:10076000100800000404000004080000100000004d
:1007700000000000107c00001028000000000000b5
:1007800000180000187e000018180000000000008b
:1007900000000000000000003030000040000000b9
:1007a00000000000007e00000000000000000000cb
:1007b0000000000000000000001800001800000009
:1007c000030600000c18000010300000600000005c
:1007d0003e61000061610000616100003e000000b8
:1007e0001838000018180000181800003c0000001d
:1007f0003e41000043040000081100007f0000009b
:100800003e410000010e0000014100003e000000da
:1008100060600000606800007f08000008000000c1
:100820007f610000607e0000014100003e0000008a
:100830003e610000607e0000616100003e0000003b
:100840007f460000060c0000183000003000000059
:100850003e610000613e0000616100003e0000005a
:100860003e610000613f000002040000380000000b
:1008700000000000303000000030000030000000b8
:100880000000000030300000003000006000000078
:1008900000000000182000004020000018000000a8
:1008a000000000007f0000007f000000000000004a
:1008b00000000000300800000408000030000000c4
:1008c0003e41000002040000180000001800000073
:1008d0003e4100004d5100004e4100003e0000002e
:1008e0001c320000616100007f61000061000000b7
:1008f0007e610000617e0000616100007e000000fa
:100900001e61000060600000606100003e000000a9
:100910007c62000061610000616200007c000000f8
:100920007f610000607c0000606100007f000000cb
:100930007f610000607c00006060000060000000db
:100940001e61000060600000676100003e00000062
:1009500061610000617f00006161000061000000d2
:100960003c18000018180000181800003c00000097
:100970001e0c00000c0c00000c4c000038000000a5
:10098000636200006478000064620000630000009d
:100990007060000060600000606100007f00000087
:1009a0006163000075690000616100006300000080
:1009b0006371000069690000656300006100000068
:1009c0001e21000061610000616100003e00000026
:1009d0007e610000617e0000606000006000000039
:1009e0001e21000061610000616200003f00000004
:1009f0007e610000617e000068640000630000000a
:100a00003e410000403e0000014100007e00000029
:100a10007f59000018180000181800003c00000062
:100a20006361000061610000616100003e00000040
:100a30006361000061310000321c000018000000fa
:100a40006361000061690000692a00001400000071
:100a50006322000014080000081400006300000076
:100a60006322000014080000080800001c000000b9
:100a70007e44000008140000182200007e000000e0
:100a800000780000606000006060000078000000f6
:100a900040600000301800000c0400000600000058
:100aa0001e06000006060000060600001e000000ec
:100ab00008140000220000000000000000000000f8
:100ac000000000000000000000000000007f0000a7
:100ad00030180000040000000000000000000000ca
:100ae000007c0000023f0000414300003d00000088
:100af00040400000407e0000414100005e000000d8
:100b0000000000003e400000404000003e000000a9
:100b1000010100003f410000414100003d00000094
:100b2000003e0000414100007e4000003e00000009
:100b30003c400000407800004040000040000000c1
:100b4000003e0000414100003f0100003e00000067
:100b5000404000005c620000414100004100000094
:100b60000008000000180000080800001c00000039
:100b700000040000000c0000040400000438000021
:100b80002026000028300000282400007300000008
:100b9000301000001010000010100000380000009d
:100ba00000000000764900004949000049000000ab
:100bb000000000006c2200002222000066000000fd
:100bc000000000003e410000414100003e000000e6
:100bd000000000006e310000212100003e70000086
:100be000000000003b440000444400003c0e0000b4
:100bf000000000005e2000002020000038000000ff
:100c0000000000001f2000001e0100003e00000048
:100c1000103c000010100000101100000e00000039
:100c20000000000022220000222200001d0000001f
:100c300000000000612100002214000008000000f4
:100c40000000000063420000525400002800000031
:100c50000000000066180000102800004600000098
:100c600000000000631400000808000018000000e5
:100c7000000000003f2200000c1900003f000000af
:100c80000408000008180000080800000400000024
:100c900010100000101000001010000010100000d4
:100ca00010080000080c00000808000010000000f8
:100cb00000000000304900000600000000000000b5
:100cc000ff810000818100008181000081ff000020
:100cd0007b7d00005b5d000021400000235e000082
:100ce0002a290000282b00002d5c00007c600000f9
:0c0cf0007e5f00002d3d000000000000b1
:020000040000fa
:100cfc0000a0fe00c202a8000c10ed00608088006d
:100d0c0008003a008080800000004000a101210012
:100d1c00e08078006180880021012100e08078006b
:100d2c008180880081808000e18f500008003200b3
:100d3c00e28f5000090032000100e0000a003a0086
:100d4c000085200030688800718088001b00370007
:100d5c0010352000700c880018003700500520005a
:100d6c00700c880015003700f00a2000a00c8800d9
:100d7c0090002000b00c88003000200050808800cb
:100d8c0073808000000620000098b90082d02000fb
:100d9c000001410042808800306880002068880093
:100dac008301e80073808800e88f510003003a004b
:100dbc000e30ef000003b000306888008500a900f9
:100dcc00c202a9000080fe000040060000a0fe0048
:100ddc00841f7800c222a800448080008300200079
:100dec002268800002007800b000fb00e4c07800ac
:100dfc0020688800c808dd001000fb0060407a0005
:100e0c000080fb0080807000411288000281e800a5
:100e1c00226888008301e900f1ff3a000a10ed0016
:100e2c00508088004240a9000400340000102000cb
:100e3c009421b40090002000b00c88008740a900d9
:100e4c00c222a9004f0278000080fe00004006007c
:100e5c008336280084d020000537280084007800d1
:100e6c0003007800020620009058780068004000cb
:100e7c000201e900fcff3a008301e8000406b0001f
:100e8c00838f5200f5ff3a00a8c0bf0081cfb3009a
:100e9c00014060000024a000a8e0b700b1c0bf0072
:100eac00014060000024a000b1e0b70052088800a7
:100ebc00004020007008880001002800910888007c
:100ecc0050052000700c8800620c8800d0002000b7
:100edc00800c88008740a9009740a8008500a900d5
:100eec009500a800b04321001012880010002000cb
:100efc002012880001128800828088006003200084
:100f0c006080880000000600048520008041eb0012
:100f1c000203200005d02000840078000000eb00c4
:100f2c00835878000000e800820f5000fcff3a0064
:100f3c000403b000848f5200f7ff3a000000060053
:100f4c0013e1a9000000060001fe2f000102400081
:100f5c0002003b000002eb0004003700f00520000b
:100f6c00800f5200010034000002780001688000fc
:100f7c00f0022000808f500002003400002def00a2
:100f8c00022dec0012688000930120001100090072
:100f9c000301d80001007800106888000368800005
:100fac00020320000280b90000804100028520006d
:100fbc00047079008301e8000368880000000600d3
:100fcc00881f780000047800104078000004e000ce
:100fdc00050032000000fb00dbff070058407800e2
:100fec000004e000fbff3a004f047800000006000c
:100ffc00002def00020dec00920120001100090001
:10100c000200d8001168880000000600c422ef001e
:10101c0000f02f0000168800000006008001780008
:10102c0000002800200888000001eb000002eb0003
:10103c000600370004088800f1e723000008800050
:10104c00810f5000fdff36000201e800828f510035
:10105c00f8ff3a0000000600c0e2a800d4c2bf00ae
:10106c000044b2000080fb000000e900cf00de006d
:10107c00c308dd00d442e200010035000120a000cd
:10108c00c242e200010035000110a000d5c2bf0031
:10109c000058a30001003a000100a00001007800f4
:1010ac0000000600889fbe008a1f78000004eb0039
:1010bc0088047800010037000004eb00a000200039
:1010cc00d6ff0700e4ff07000000e000faff320043
:1010dc00808f540001003d00800478000804e80073
:1010ec00e90f5400f5ff34000004eb00080578000c
:1010fc00a0002000c9ff0700d7ff07000000e00098
:10110c0006003200808f540001003d0080047800fe
:10111c000a05e8000004eb00f5ff37000804e800be
:10112c00e90f5400f2ff340000052000800f550039
:10113c00010034000908b000090078004f05780060
:10114c004f04be000000060060198800000e20004d
:10115c00001988008000eb0081198800f0f3210051
:10116c00201988001119880021e3a800cbe2a900fe
:10117c00c7e2a90000000600401988002023a8003f
:10118c0020c3bf000008a300fdff32000018800040
:10119c00000006006000fa00889fbe008a9fbe0017
:1011ac008c1f78000004eb000816880028ff07004d
:1011bc0055ff07000868880018688800c0002000e8
:1011cc00d4fc070068f92f000f044400990120009b
:1011dc006a855700e0fc0700110009000900d800df
:1011ec00011c7800880f5500faff3a000000eb0054
:1011fc000068880010688800800478004b0120008b
:10120c008c66280068f92f000f044400988f140096
:10121c0007003400d0fc0700110009000b00d800b7
:10122c0061407e000000fb0047ff07000200370012
:10123c000002200044ff07000884e800880f5500d6
:10124c00f2ff3a006aff07008904e800f98f5400a6
:10125c00ecff3a00800c200070ff07000005eb004b
:10126c0069f92f008f844400bbfc0700320020007a
:10127c00110009000200d8000100e0000300320058
:10128c00e18f50001d003a001300370089007800f0
:10129c001900e800800c7800f90f500002003400af
:1012ac0090012000800c78000a6888001100e90089
:1012bc0010688800a8fc07004201200011000900fa
:1012cc000200d80080662800614078000000fb0016
:1012dc001dff070009003700190078000000e0002e
:1012ec00060034000a6888000004e90018688800c9
:1012fc000002200014ff0700880c78000a05e800a3
:10130c008984e80000032000800f5500d6ff3a00c6
:04131c00d0ff3700c7
:020000040000fa
:101320001210000010000000020000000100020086
:10133000000300000000030000370000c800360072
:101340000000000050080000c2070000000000007c
:10135000aa1000000a0000000200000000000100c6
:10136000000000000000000000000000221000004b
:0c137000880000000000000000000000e9
:020000040000fa
:04137c000000fe006f
:00000001FF
