:020000040000fa
:080000000002040000000000f2
:020000040000fa
:100400000f852000007f220000018800000000000e
:100410000c000700804720000100200011000700a9
:10042000000020000000e000020032000000020096
:10043000000000006e030200000000000040da002f
:100440000000fe004440a900200120000000e00060
:100450000300320000002000a00188004440a800f2
:100460000000060091018800800078000000eb0089
:1004700015003700e280400032a0b4009101ba00bc
:10048000e280400032a0b4009102ba00e280400055
:1004900032a0b4000002eb00472bde00f507b200eb
:1004a000602ce10004003a000059eb008301e900f0
:1004b000fdff3e00040037006128e100010032002a
:1004c0000082eb00040007001101ba000200e00006
:1004d000e8ff3a00000006003159ba008301e90044
:1004e0000c0032002159ba008301e90008003200f3
:1004f0000400e00003003a00e280400032a0b400b3
:10050000f5ff370011d9ba008301e900faff3a007c
:100510008100e800e180400032a0b4000000060045
:020000040000fa
:020000040002f8
:04aff800bd7b00001d
:020000040000fa
:020000040002f8
:04affc007f3f000093
:020000040000fa
:100008007a0400007a0400007a0400007a040000f0
:100018007a0400007a0400007a0400007a040000e0
:100028007a0400007a0400007a0400007a040000d0
:100038007a0400007a0400007a0400007a040000c0
:020000040000fa
:020000040000fa
:10052000466c0000796900006e67000020740000ce
:10053000686500002050000049430000323400008c
:0405400000000000b7
:020000040000fa
:100544000000fa00f03b280000308800f03f200053
:10055400103088001000200060308800000328005c
:10056400200888000000eb000008880001088000d3
:10057400f07c2000808f5000fcff36000000eb0070
:100584002030880080032000403088000000eb0009
:100594000008880000088000e20f5000fdff3600cc
:1005a400c0002000403088000000eb0000088800f4
:1005b40000088000e20f5000fdff3600100020000c
:1005c400403088000000eb0000088800010880002b
:1005d40030062000808f5000fcff360060002000b1
:1005e400403088000000eb0000088800010880000b
:1005f40030062000808f5000fcff36000080fa0097
:10060400000006000400fa001007980003c6bf00ab
:1006140001c8b300014060000004e000fbff3a00a1
:100624001e0090002030880040308000000f7800c9
:1006340003c6bf0001c8b300014060000004e0002d
:10064400fbff3a00403080000000fb000080fa000d
:10065400000006000400fa00000f7800214798000b
:100664000000eb00e7ff07000004e000fcff35009a
:1006740003c6bf0001c8b300014060000004e000ed
:10068400fbff3a001e007800203088002e409000c6
:100694000000fb00403088000080fa0000000600e3
:1006a4000200fa00000f7800050037001e007800f1
:1006b400904078001e0fe80010002000e5ff0700be
:1006c4001e007800104078000004e000f7ff3a00b4
:1006d4000080fa00000006000200fa0098ff0700fc
:1006e40000292800eeff070001c4b3000000eb005e
:1006f400d8ff070021c0b30010002000d5ff070079
:1007040021c0b30010002000d2ff070061c0b30075
:1007140010002000cfff0700f1c1b300100020003b
:10072400ccff070061c0b30010002000c9ff070020
:1007340021c0b30010002000c6ff070021c0b30091
:1007440010002000c3ff07008040eb0010002000d1
:10075400c0ff07008040eb0010002000bdff070031
:1007640041c0b30010002000baff0700c1c0b300ad
:1007740010002000b7ff0700c1c1b3001000200023
:10078400b4ff07008040eb0010002000b1ff070019
:100794008040eb0010002000aeff07008040eb001b
:1007a40010002000abff07008040eb001000200089
:1007b400a8ff0700e1ccb3000000eb00a5ff070091
:1007c4008040eb0010002000a2ff070011c0b3001e
:1007d400100020009fff07000000eb0000088800c5
:1007e4000108800070322200808f5000fcff360028
:1007f400d0002000000f7800180037001e00780099
:100804000044b000804078000174a10000c8b30027
:1008140080c070000000eb008eff07008040eb00fa
:10082400100020008bff070011c0b300100020004f
:1008340088ff070001c2b3001000200085ff0700f5
:100844000000eb00000888000108800070322200dc
:10085400808f5000fcff36001e0fe9001e00e000f0
:10086400e6ff3d0001ccb3000000eb0079ff070078
:1008740011c0b3001000200076ff070001c2b300ce
:100884001000200073ff07000000eb000008880040
:100894000108800070322200808f5000fcff360077
:1008a40001ccb3000000eb006aff070001c2b300f3
:1008b4001000200067ff0700f1ccb3000000eb003c
:1008c40064ff07008040eb001000200061ff070078
:1008d4000000eb000008880001088000703222004c
:0c08e400808f5000fcff3600b2ff370090
:020000040000fa
:0408f0000000000004
:020000040000fa
:0408f4000000fe0002
:00000001FF
