:020000040000fa
:080000000002040000000000f2
:020000040000fa
:100400000fc52000007f22000001880000000000ce
:100410000c000700c0582000010020001100070058
:10042000000020000000e000020032000000020096
:100430000000000008050200000000000040da0093
:100440000000fe004440a900000020000000e00081
:100450000300320000002000a00188004440a800f2
:100460000000060091018800800078000000eb0089
:1004700015003700e280400032a0b4009101ba00bc
:10048000e280400032a0b4009102ba00e280400055
:1004900032a0b4000002eb00472bde00f507b200eb
:1004a000602ce10004003a000059eb008301e900f0
:1004b000fdff3e00040037006128e100010032002a
:1004c0000082eb00040007001101ba000200e00006
:1004d000e8ff3a00000006003159ba008301e90044
:1004e0000c0032002159ba008301e90008003200f3
:1004f0000400e00003003a00e280400032a0b400b3
:10050000f5ff370011d9ba008301e900faff3a007c
:100510008100e800e180400032a0b4000000060045
:100520008001eb0008003700e342780063c27800e6
:100530008301e80084cf5200030032000080eb000a
:100540000400390010000500828f5100f6ff3a00c8
:080550000000eb0000000600b2
:020000040000fa
:020000040002f8
:04aff800bd7b00001d
:020000040000fa
:020000040002f8
:04affc007f3f000093
:020000040000fa
:100008009405000094050000940500009405000084
:100018009405000094050000940500009405000074
:100028009405000094050000940500009405000064
:100038009405000094050000940500009405000054
:020000040000fa
:020000040000fa
:10055800e002a800de02a900c013200010138800e2
:100568000000280000138800000006000080fb003f
:100578004013880060c2bf000008a300fdff3200de
:10058800401380000080fb0000000600e0c2bf00ae
:100598000080fb000000d1000000a20061006000a4
:1005a80000000600e6c2bf000080fb000000d1008a
:1005b8000000a2006100600000000600889fbe00e5
:1005c8000204be00e002a9000064a000e7ff0700e3
:1005d8004848de0001002000e4ff07004048de0034
:1005e80001002000e1ff07004849dd004840de0027
:1005f80000007100c848de00dcff070008407800f2
:10060800daff070050c9b300d8ff070098002000a0
:1006180000c0eb00d5ff07008080fb00e14f4000e1
:1006280002003a000804e900f9ff3a0001007800e6
:100638004f04be0000000600889fbe008a1f780095
:1006480002047800c222a8004909dd00c701de00c3
:10065800830171004901dd0010c1b300d7ff070015
:10066800000578000000e0001a003a000971220035
:1006780000c0eb00bdff07000085fb00e24f400013
:10068800030032008904e90012003200f8ff370045
:100698000900e0000f0032008000eb00f30f20009b
:1006a80002202000431388006002ab00feff3200e6
:1006b80040138000005c78008100e800828f5000c1
:1006c800f8ff3a0000c0eb00a8ff070000c0eb00ed
:1006d800a6ff0700e002a80000c0eb00a3ff070088
:1006e800c222a9008000eb00e00f2000800f550017
:1006f80001003a0011002000010078004f05780041
:100708004f04be0000000600889fbe008a1f7800c4
:1007180082047800c242a8004909dd00c701de0052
:10072800830171004901dd0080c1b300a3ff070008
:10073800000578000000e0001b003a00e0cfb3009d
:100748008aff07000a0478000a2020003940780050
:1007580086ff07000804e8008a0f5400fbff3a00f0
:1007680000c0eb0081ff070000c0eb007fff07001f
:1007780000c0eb007dff07006f0060000005eb0084
:10078800e50f500008003a000084eb0000c0eb00c1
:1007980076ff07000085fb000004e00002003a0035
:1007a8000804e900f9ff3a00e002a80000c0eb00e5
:1007b8006eff0700c242a9000a0078004f057800c2
:1007c8004f04be0000000600889fbe00e002a8009b
:1007d80000c0eb0065ff07000004eb0000c0eb0061
:1007e80062ff07000804e800ea0f5400fbff3a0024
:1007f800e002a9006011b8000040eb006fff07009d
:1008080000047800e002a80000c0eb0057ff0700d2
:1008180040082000e10f540017003a000971220037
:100828006011b80010c0b30064ff0700000478002e
:10083800e002a80000c0eb004cff07000800e00041
:10084800030032008904e9000a003200f4ff37008f
:100858000900e000070032000000eb0000138800e8
:10086800b11320001113880001002800011388002b
:1008780001003700500820004f04be0000000600a9
:10088800c422ef0000f02f000016880000000600c8
:100898008001780000002800200888000001eb0093
:1008a8000002eb000600370004088800f1e7230087
:1008b80000088000810f5000fdff36000201e800ab
:1008c800828f5100f8ff3a0000000600c0e2a8003d
:1008d800d4c2bf000044b2000080fb000000e90061
:1008e800cf00de00c308dd00d442e200010035007d
:1008f8000120a000c242e200010035000110a00062
:10090800d5c2bf000058a30001003a000100a000b2
:100918000100780000000600889fbe008a1f78004a
:100928000004eb0088047800010037000004eb00a5
:10093800a0002000d6ff0700e4ff07000000e00049
:10094800faff3200808f540001003d0080047800d7
:100958000804e800e90f5400f5ff34000004eb0038
:1009680008057800a0002000c9ff0700d7ff07008e
:100978000000e00006003200808f540001003d00b6
:10098800800478000a05e8000004eb00f5ff370052
:100998000804e800e90f5400f2ff340000052000c5
:1009a800800f5500010034000908b00009007800e4
:1009b8004f0578004f04be0000000600601988004b
:1009c800000e2000001988008000eb0081198800c3
:1009d800f0f32100201988001119880021e3a800ec
:1009e800cbe2a900c7e2a900000006004019880070
:1009f8002023a80020c3bf000008a300fdff320089
:100a08000018800000000600889fbe000004eb006c
:100a180008168800cefe070008007800028520002e
:100a280001202000007079000000e800810f5000cc
:100a380003003200fbff37004006200094ff070048
:100a4800d2fe07000000e000fbff32005eff070057
:100a580008712200090020000000e00002003200b6
:100a680010168800ffff3700028520000800be002e
:100a780025ff07000000e00003003a00f000200016
:100a880010168800ffff370061044400e0844c0022
:100a980000e22400800f5400e08f5c00f2ff3a006f
:100aa800087122000900200002a520000800be00ed
:100ab800e1fe07000000e00003003a00000f2000fc
:100ac80010168800ffff37000220200001a5200033
:100ad8000085200090fe07000000e00003003200bf
:100ae8005005200010168800ffff370061044400fd
:100af800e0844c0000e22400800f5400e08f5c008a
:100b0800e9ff3a00f00f200010168800ffff3700b9
:020000040000fa
:100b18005008000000040000000000000000000071
:020000040000fa
:040b28000000fe00cb
:00000001FF
