:020000040000fa
:080000000002040000000000f2
:020000040000fa
:10040000af802000007f2200000188000000000073
:100410000c00070000372000010020001100070039
:10042000000020000000e000020032000000020096
:100430000000000050030200000000000040da004d
:100440000000fe004440a900000020000000e00081
:100450000300320000002000a00188004440a800f2
:100460000000060091018800800078000000eb0089
:1004700015003700e280400032a0b4009101ba00bc
:10048000e280400032a0b4009102ba00e280400055
:1004900032a0b4000002eb00472bde00f507b200eb
:1004a000602ce10004003a000059eb008301e900f0
:1004b000fdff3e00040037006128e100010032002a
:1004c0000082eb00040007001101ba000200e00006
:1004d000e8ff3a00000006003159ba008301e90044
:1004e0000c0032002159ba008301e90008003200f3
:1004f0000400e00003003a00e280400032a0b400b3
:10050000f5ff370011d9ba008301e900faff3a007c
:100510008100e800e180400032a0b4000000060045
:020000040000fa
:020000040002f8
:04aff800bd7b00001d
:020000040000fa
:020000040002f8
:04affc007f3f000093
:020000040000fa
:1000080078030000780300007803000078030000fc
:1000180078030000780300007803000078030000ec
:1000280078030000780300007803000078030000dc
:1000380078030000780300007803000078030000cc
:1000480078030000780300007803000078030000bc
:1000580078030000780300007803000078030000ac
:10006800780300007803000078030000a60200006f
:10007800780300007803000078030000780300008c
:10008800780300007803000078030000780300007c
:10009800780300007803000078030000780300006c
:1000a800780300007803000078030000780300005c
:1000b800780300007803000078030000780300004c
:1000c800780300007803000078030000780300003c
:1000d800780300007803000078030000780300002c
:1000e800780300007803000078030000780300001c
:1000f800780300007803000078030000780300000c
:1001080078030000780300007803000078030000fb
:1001180078030000780300007803000078030000eb
:1001280078030000780300007803000078030000db
:1001380078030000780300007803000078030000cb
:1001480078030000780300007803000078030000bb
:1001580078030000780300007803000078030000ab
:10016800780300007803000078030000780300009b
:10017800780300007803000078030000780300008b
:10018800780300007803000078030000780300007b
:10019800780300007803000078030000780300006b
:1001a800780300007803000078030000780300005b
:1001b800780300007803000078030000780300004b
:1001c800780300007803000078030000780300003b
:1001d800780300007803000078030000780300002b
:1001e800780300007803000078030000780300001b
:0801f800780300007803000009
:020000040000fa
:1002080078030000780300007803000078030000fa
:1002180078030000780300007803000078030000ea
:1002280078030000780300007803000078030000da
:1002380078030000780300007803000078030000ca
:1002480078030000780300007803000078030000ba
:1002580078030000780300007803000078030000aa
:10026800780300007803000078030000a60200006d
:10027800780300007803000078030000780300008a
:10028800780300007803000078030000780300007a
:10029800780300007803000078030000780300006a
:1002a800780300007803000078030000780300005a
:1002b800780300007803000078030000780300004a
:1002c800780300007803000078030000780300003a
:1002d800780300007803000078030000780300002a
:1002e800780300007803000078030000780300001a
:1002f800780300007803000078030000780300000a
:1003080078030000780300007803000078030000f9
:1003180078030000780300007803000078030000e9
:1003280078030000780300007803000078030000d9
:1003380078030000780300007803000078030000c9
:1003480078030000780300007803000078030000b9
:1003580078030000780300007803000078030000a9
:100368007803000078030000780300007803000099
:100378007803000078030000780300007803000089
:100388007803000078030000780300007803000079
:100398007803000078030000780300007803000069
:1003a8007803000078030000780300007803000059
:1003b8007803000078030000780300007803000049
:1003c8007803000078030000780300007803000039
:1003d8007803000078030000780300007803000029
:1003e8007803000078030000780300007803000019
:0803f800780300007803000007
:020000040000fa
:100520000000fa00e522a800e582a8000040eb00e8
:1005300000e8b70000802000000388008660a90062
:100540009660a8000080fa0000000600809fbe00b0
:100550000200fa00e7c2bf00624060000004e00051
:100560004b003a0010408000000f78001e00780019
:10057000e20f5000290032001e007800e30f500007
:10058000390032001e007800e10f50000b003200ed
:10059000e7c2bf00704060000004e0003c003a0089
:1005a00080002000304088000000eb0040408800c0
:1005b00010002000104088003500370020408000e7
:1005c0000080d10020408800e7c2bf00704060007a
:1005d0000004e000040032002040800001082000f8
:1005e00001007000204088004140800020408000d1
:1005f0000080680040408800304080000000e90032
:1006000030408800304080000000e00020003a00c8
:1006100020002000104088001d003700e7c2bf0006
:10062000704060000004e0000400320040408000a0
:100630000108200001006800404088004040800020
:100640004700de00610060000004e00003003200ab
:1006500030002000104088000d0037000000eb0043
:10066000104088000a003700e7c2bf0070406000f9
:100670000004e000040032002040800001e8b700e0
:1006800010c0b30000e8b7000000eb001040880085
:100690008660a9000080fa004f00be0000400600fe
:1006a0000000fa009eff07000000eb002016880003
:1006b0000000eb00001688000000370000c8bf00f3
:1006c0000004e000fdff320001c8bf000000fb0095
:1006d000101688000040eb0000e8b700f7ff370075
:020000040000fa
:1006e000000800000a0000000000000000000000f8
:020000040000fa
:0406f0000000fe0008
:00000001FF
