:020000040000fa
:080000000002040000000000f2
:020000040000fa
:10040000ef842000007f220000018800000000002f
:100410000c000700a06f2000010020001100070061
:10042000000020000000e000020032000000020096
:10043000000000001c060200000000000040da007e
:100440000000fe004440a900000020000000e00081
:100450000300320000002000a00188004440a800f2
:100460000000060091018800800078000000eb0089
:1004700015003700e280400032a0b4009101ba00bc
:10048000e280400032a0b4009102ba00e280400055
:1004900032a0b4000002eb00472bde00f507b200eb
:1004a000602ce10004003a000059eb008301e900f0
:1004b000fdff3e00040037006128e100010032002a
:1004c0000082eb00040007001101ba000200e00006
:1004d000e8ff3a00000006003159ba008301e90044
:1004e0000c0032002159ba008301e90008003200f3
:1004f0000400e00003003a00e280400032a0b400b3
:10050000f5ff370011d9ba008301e900faff3a007c
:100510008100e800e180400032a0b4000000060045
:10052000889fbe008a9fbe008c1f78000205be0017
:100530000004be000006eb00e00f5000e08f580002
:10054000e00f5900e08f590007003d006000b8003f
:100550006011b80008045000898458000a05590049
:100560008b8559001c002000e00f5200e08f5a00dc
:10057000e00f5b00e08f5b0002003d000f00070012
:100580000c00a2000800be000a01be00bb0007006c
:100590000203be000002be000c00e00001003200b9
:1005a000060007000400be000601be004f067800ea
:1005b0004f05be004f04be00000006006000b800fa
:1005c0006011b800040250008582580006035900eb
:1005d0008783590000000600889fbe008a9fbe00e6
:1005e0008c1f7800c7000700ce00330003866c0024
:1005f0006450e100240032006420e1002700320052
:100600006150e100220032006120e100210032004f
:100610008b854200eb07b1000134b800003ab80006
:100620000804420089844a00013ab8000030b8004a
:100630008880400009014a000400330000004000a7
:1006400081804800020149008b05e900c909dd00ed
:10065000830170000100320013002000c814de0086
:100660004814dd004709de001200b200c808de00b1
:1006700008847000bb00070001f0a1000cf0a70087
:1006800001f0a000b00037006120e100b2003200ac
:100690000801be000200be00f7ff37006150e10014
:1006a000fcff3a00ac0037002800fa00889fbe002b
:1006b0008a9fbe008c9fbe0003866b00cf000700a0
:1006c0000028a30064003a000128a30067003a0054
:1006d0000008a30062003a000108a30065003a0088
:1006e0001e009000be08900081064000ed3fb10062
:1006f000f4805700ee019000111ab8008e099000a6
:10070000311bb8009e099000311cb800511db80083
:10071000f485570046000700fe0190003a000700ec
:100720008b85e8003e0007008e099000400007001e
:10073000ee019000340007008b85e80038000700c8
:100740008e099000400007009e0990001b18b80019
:10075000890440000a854800fe019000340007002b
:100760008b85e80038000700ee019000300007009c
:100770008e0990001b18b800890440000a854800c3
:100780000a98a30008003a000402420085824a0049
:1007900006034b0087834b0008044c0089844c00ff
:1007a0000a054d008d06e9008482720085027300ff
:1007b0004c3add0085027200010032001500200075
:1007c000443ade001400b2004538de00cb45dd00bf
:1007d0000b007000c540de00cb4ddd008b8070004b
:1007e0004549de00cb55dd000b017100c551de002f
:1007f0000d0378009a00070003f0a1000cf0a70099
:1008000003f0a000910037001b18b80085024000db
:1008100006834800e0834b0060044c00070037006b
:100820001b18b8000603400087834800faff370012
:100830001b18b8008703400008844800e0844c007f
:1008400060054d00000006001b18b80008044000b9
:1008500089844800faff37000108a30078003a00b5
:100860005800be005801be00e3ff37000008a30097
:1008700073003a0009047800f9ff3700889fbe0032
:100880008a9fbe008c9fbe000404b8000506b80015
:100890008904460060854e000606b8000a05460039
:1008a000e0854e000706b8008b054600040eb80030
:1008b000890446000a854e00e0854d00050eb8000b
:1008c0000a0546008b854e00060eb8008b054600d3
:1008d0000416b8000a0546008b854e000516b800c0
:1008e0008b054600041eb8008b0546000800be00bc
:1008f0000a01be004f06be004f05be004f04be00f9
:10090000000006000004be00810007000003be00d6
:100910000405be000200be007d000700844f750084
:10092000000006000200be006450e1000500360031
:100930006420e100020036000968a30001003a00cb
:100940000800be000160a0004f0678004f05be0001
:100950004f04be0000000600f0ff2f00f1ff27004b
:10096000f9ff370081002000618055000b003d0039
:100970000b00200061fe2f000100e1001d0034008b
:1009800082817100610164008904d1000884d30070
:100990000000e800faff3a007100200061006400e6
:1009a000030070000200600009003200610444008e
:1009b000e0844c000988a500050032008b05e800a2
:1009c0006808e10002003a008904d1000884d300dd
:1009d000f20f20000258e10005003d00c75ddd0078
:1009e000f907b20089807500080078000000060051
:1009f0000bf827008b007800000005006804470012
:100a00000294be000094be00fc0447008694be0021
:100a10008494be00090078005200070008007800a6
:100a20005000070099007800814f70000b003b00d8
:100a30000800be00720007004f00b100030037003d
:100a4000f3ff2700f2ff2f006110b9004f06be0030
:100a50004f05be004f04be000080fa0000000600f3
:100a60001800200057002000080453000d003d002e
:100a70000600200097fc2f000740e1001e00340014
:100a800084827200610260008301d1000281d30080
:100a90008180d3000080d3000804e800f8ff3a000a
:100aa0004700200061046000050474000404640031
:100ab0000d00320061004000e08048006001490004
:100ac000e081490003b8a500070032000603e800f2
:100ad0006538e10004003a008301d1000281d300af
:100ae0008180d3000080d300f87f20000830e1002f
:100af00003003500080378006000b8006011b800fa
:100b00004433dd00f300b2008301730000000600ef
:100b1000c70ade00f107b200f50fb200080032008c
:100b2000e1cf4200020032000170a0002400050065
:100b3000810f700001003200040805004400050028
:100b4000810f700002003a00140005008502e900e0
:100b50000000400081c04800fcff3b000170a00085
:100b600024000500800078005002be005003be0043
:100b70004439de00f700b200f37f2000030161007a
:100b8000090032000218e10016003a0085017200e7
:100b900083017300838173000008200015003a0070
:100ba00040002000130037008501720083017300ac
:100bb0008381730005003a0004a8be0006a8be00a9
:100bc000100020000b0037000201e900040242007f
:100bd00085824a0006034b0087834b000748a30029
:100be000f9ff32000740a00004a8be0006a8be001e
:100bf000200020008000980092009800000006006d
:100c0000e48240001078a300070032006402400034
:100c10001178a3003400be001401be0004003200ad
:100c20000330a700000006003500be001501be001d
:080c30000330a00000000600e3
:020000040000fa
:020000040002f8
:04aff800bd7b00001d
:020000040000fa
:020000040002f8
:04affc007f3f000093
:020000040000fa
:1000080002070000020700000207000002070000c4
:1000180002070000020700000207000002070000b4
:1000280002070000020700000207000002070000a4
:100038000207000002070000020700000207000094
:020000040000fa
:020000040000fa
:100c38000000fa00889fbe000000280020088800f5
:100c4800402321000040880080672500104088006c
:100c58000000eb0000088800014080001040800080
:100c68000088b90020408800705624003112200006
:100c78003040880041408800f0de2c00b19a2800fe
:100c880050408800614088000000eb0000088800a0
:100c9800384080004940800056408000674080000e
:100ca8008800780006007800000ab80007c0b9007c
:100cb800050178000001410009b0b90000014100b8
:100cc80082027800744088008540880024812000d2
:100cd800f0de2c00b19a280072562400331220004e
:100ce800009abe000292be00a481200000212300c9
:100cf8004165270082a92b00c3ed2f00009abe0092
:100d08000292be000000eb0000088800208120004d
:100d18005001be004000be00a48120005403be0064
:100d28004402be00fcfd070024822000009abe0099
:100d38000292be00400a2700511424005041880046
:100d48006141880080eb2100312624007041880031
:100d5800814188000000eb000008880050418000b5
:100d680061418000724180008341800018fe0700c5
:100d780090418800a141880064832000e07a240023
:100d880011ae270042e12a0083022400009abe0027
:100d98000292be00e4832000400a2700d1a320006d
:100da800723d2600c3042400009abe000292be00d1
:100db8000000eb0000088800608320005001be009e
:100dc8004000be00e48320005403be004402be007d
:100dd80033fe070064842000009abe000292be0021
:0c0de8004f04be000080fa00000006006e
:020000040000fa
:100df400000800004e000000000000000000000099
:020000040000fa
:040e04000000fe00ec
:00000001FF
