:020000040000fa
:080000000002040000000000f2
:020000040000fa
:100400004f872000007f22000001880000000000cc
:100410000c000700e052200001002000110007003e
:10042000000020000000e000020032000000020096
:100430000000000014050200000000000040da0087
:100440000000fe004440a900001020000000e00071
:100450000300320000002000a00188004440a800f2
:100460000000060091018800800078000000eb0089
:1004700015003700e280400032a0b4009101ba00bc
:10048000e280400032a0b4009102ba00e280400055
:1004900032a0b4000002eb00472bde00f507b200eb
:1004a000602ce10004003a000059eb008301e900f0
:1004b000fdff3e00040037006128e100010032002a
:1004c0000082eb00040007001101ba000200e00006
:1004d000e8ff3a00000006003159ba008301e90044
:1004e0000c0032002159ba008301e90008003200f3
:1004f0000400e00003003a00e280400032a0b400b3
:10050000f5ff370011d9ba008301e900faff3a007c
:100510008100e800e180400032a0b4000000060045
:020000040000fa
:020000040002f8
:04aff800bd7b00001d
:020000040000fa
:020000040002f8
:04affc007f3f000093
:020000040000fa
:100008003e0500003e0500003e0500003e050000dc
:100018003e0500003e0500003e0500003e050000cc
:100028003e0500003e0500003e0500003e050000bc
:100038003e0500003e0500003e0500003e050000ac
:100048003e0500003e0500003e0500003e0500009c
:100058003e0500003e0500003e0500003e0500008c
:100068003e0500003e0500003e0500003e0500007c
:100078003e0500003e0500003e0500003e0500006c
:100088003e0500003e0500003e050000b6030000e6
:100098003e0500003e0500003e0500003e0500004c
:1000a8003e0500003e0500003e0500003e0500003c
:1000b8003e0500003e0500003e0500003e0500002c
:1000c8003e0500003e0500003e0500003e0500001c
:1000d8003e0500003e0500003e0500003e0500000c
:1000e8003e0500003e0500003e0500003e050000fc
:1000f8003e0500003e0500003e0500003e050000ec
:100108003e0500003e0500003e0500003e050000db
:100118003e0500003e0500003e0500003e050000cb
:100128003e0500003e0500003e0500003e050000bb
:100138003e0500003e0500003e0500003e050000ab
:100148003e0500003e0500003e0500003e0500009b
:100158003e0500003e0500003e0500003e0500008b
:100168003e0500003e0500003e0500003e0500007b
:100178003e0500003e0500003e0500003e0500006b
:100188003e0500003e0500003e0500003e0500005b
:100198003e0500003e0500003e0500003e0500004b
:1001a8003e0500003e0500003e0500003e0500003b
:1001b8003e0500003e0500003e0500003e0500002b
:1001c8003e0500003e0500003e0500003e0500001b
:1001d8003e0500003e0500003e0500003e0500000b
:1001e8003e0500003e0500003e0500003e050000fb
:0801f8003e0500003e05000079
:020000040000fa
:100208003e0500003e0500003e0500003e050000da
:100218003e0500003e0500003e0500003e050000ca
:100228003e0500003e0500003e0500003e050000ba
:100238003e0500003e0500003e0500003e050000aa
:100248003e0500003e0500003e0500003e0500009a
:100258003e0500003e0500003e0500003e0500008a
:100268003e0500003e0500003e0500003e0500007a
:100278003e0500003e0500003e0500003e0500006a
:100288003e0500003e0500003e050000b6030000e4
:100298003e0500003e0500003e0500003e0500004a
:1002a8003e0500003e0500003e0500003e0500003a
:1002b8003e0500003e0500003e0500003e0500002a
:1002c8003e0500003e0500003e0500003e0500001a
:1002d8003e0500003e0500003e0500003e0500000a
:1002e8003e0500003e0500003e0500003e050000fa
:1002f8003e0500003e0500003e0500003e050000ea
:100308003e0500003e0500003e0500003e050000d9
:100318003e0500003e0500003e0500003e050000c9
:100328003e0500003e0500003e0500003e050000b9
:100338003e0500003e0500003e0500003e050000a9
:100348003e0500003e0500003e0500003e05000099
:100358003e0500003e0500003e0500003e05000089
:100368003e0500003e0500003e0500003e05000079
:100378003e0500003e0500003e0500003e05000069
:100388003e0500003e0500003e0500003e05000059
:100398003e0500003e0500003e0500003e05000049
:1003a8003e0500003e0500003e0500003e05000039
:1003b8003e0500003e0500003e0500003e05000029
:1003c8003e0500003e0500003e0500003e05000019
:1003d8003e0500003e0500003e0500003e05000009
:1003e8003e0500003e0500003e0500003e050000f9
:0803f8003e0500003e05000077
:020000040000fa
:1005200000000000000000000000000000000000cb
:100530000000000000000000000900006000000052
:1005400000000000120000000071000031000000f7
:10055000000000007a7300006177000032000000a4
:100560000063000078640000653400003300000080
:100570000020000076660000747200003500000064
:10058000006e00006268000067790000360000001d
:10059000000000006d6a00007537000038000000a0
:1005a000002c00006b6900006f3000003900000073
:1005b000002e00002f6c00003b7000002d0000009a
:1005c00000000000270000005b3d0000000000006c
:1005d000581200000d5d0000005c000000000000eb
:1005e0000000000000000000000000000800000003
:1005f000003100000034000037000000000000005f
:10060000002e000032350000363800001b000000cc
:10061000002b0000332d00002a39000000000000ec
:1006200000000000000000000000000000000000ca
:100630000000000000000000000900007e00000033
:100640000000000012000000005100002100000026
:10065000000000005a530000415700004000000015
:10066000004300005844000045240000230000001f
:1006700000200000564600005452000025000000f3
:10068000004e000042480000475900005e00000094
:10069000000000004d4a0000552600002a0000001e
:1006a000003c00004b4900004f29000028000000da
:1006b000003e00003f4c00003a5000005f00000088
:1006c00000000000220000007b2b00000000000062
:1006d000581200000d7d0000007c000000000000aa
:1006e0000000000000000000000000000800000002
:1006f000003100000034000037000000000000005e
:10070000002e000032350000363800001b000000cb
:10071000002b0000332d00002a39000000000000eb
:020000040000fa
:10072000e5a6a800e5a2a800e582a8000000eb006d
:10073000f04288000043880050e8b700001920000c
:10074000d008880000002800f0088800b1c0bf0071
:10075000f1c8b300014060000043b300b1e0b7004e
:100760008760a9009760a800000006003600f80026
:10077000809fbe00829fbe005048e20011003a00f8
:10078000f142800000438000808f50000d00320055
:10079000f24280002186200062c0780051e8b70054
:1007a0000200e800f0428800f042800002012000d0
:1007b000110009000200d800f142880010c0b30007
:1007c00050e8b700c202a800311780005608e200c6
:1007d0004a003200000022000080600042003a001f
:1007e000b042880040012000e04288009042800032
:1007f000e20f50001b003200e30f500023003200d4
:10080000e10f5000090032000000210080806000ec
:1008100043003a0080002000c0428800d142880096
:1008200010002000904288003d0037005488d50019
:10083000a042880001c8a300020032000070a0009e
:10084000a0428800a04280005aa8b6005808ed00d7
:10085000c042880032003a00200020009042880008
:100860002f00370001c8a300010032005ae8aa0097
:100870005ae8ab00030032003000200090428800ac
:10088000270037005228ef002500370001c8a300d9
:1008900013003200014380002086200042852000a2
:1008a000124178008270780000438000f34280009b
:1008b0000000e80002012000110009000200d80039
:1008c000838f5000010032006028ec00004380005c
:1008d00002012000110009000200d8000143880035
:1008e0005228ef000e0037005c08ed00e04288005f
:1008f0000b003a00904288000900370001d8a3009d
:100900000300320010002000b042880004003700cd
:100910005c08ed00e042880001003a009042880047
:100920008760a900c202a9004f01be004f00be00af
:100930003600f90000400600924380008041eb0041
:1009400084c5b3008040eb005048e2000d003a003f
:10095000fcff37000100780050e8b7005048e20083
:10096000feff320051c8bf00f24f500001003a00b4
:100970000001eb000100780050e8b7005048e200a9
:10098000feff320051c8bf00f04f4000f1ff3200bf
:1009900051c8bf00f24f500004003a000300780035
:1009a00050e8b70012002000e6ff370051c8bf0032
:1009b000844f500007003a000200ea000200700075
:1009c0004f00de00610110000300780050e8b7001e
:1009d000dcff3700924388000200e000080032008c
:1009e00051c8bf000000fb000208200011000900f0
:1009f0000200d8000031280061407800070037006d
:100a000051c8bf000000fb000208200011000900cf
:100a10000200d80000292800614078005068ef00eb
:100a20000000fb00000006003dff07000000eb0097
:100a300020168800001688008040eb005048e20035
:100a4000feff320051c8bf000000fb0010168800f6
:0c0a50000100780050e8b700f8ff370004
:020000040000fa
:100a5c00720800000200000002000000000000000c
:100a6c005008000022000000000000000000000000
:020000040000fa
:040a7c000000fe0078
:00000001FF
