:020000040000fa
:080000000002040000000000f2
:020000040000fa
:10040000af852000007f220000018800000000006e
:100410000c00070000392000010020001100070037
:10042000000020000000e000020032000000020096
:100430000000000070030200000000000040da002d
:100440000000fe004440a900000020000000e00081
:100450000300320000002000a00188004440a800f2
:100460000000060091018800800078000000eb0089
:1004700015003700e280400032a0b4009101ba00bc
:10048000e280400032a0b4009102ba00e280400055
:1004900032a0b4000002eb00472bde00f507b200eb
:1004a000602ce10004003a000059eb008301e900f0
:1004b000fdff3e00040037006128e100010032002a
:1004c0000082eb00040007001101ba000200e00006
:1004d000e8ff3a00000006003159ba008301e90044
:1004e0000c0032002159ba008301e90008003200f3
:1004f0000400e00003003a00e280400032a0b400b3
:10050000f5ff370011d9ba008301e900faff3a007c
:100510008100e800e180400032a0b4000000060045
:020000040000fa
:020000040002f8
:04aff800bd7b00001d
:020000040000fa
:020000040002f8
:04affc007f3f000093
:020000040000fa
:10000800980300009803000098030000980300007c
:10001800980300009803000098030000980300006c
:1000280098030000aa02000098030000980300004b
:100038009803000098030000980300005c03000088
:10004800980300009803000098030000980300003c
:10005800980300009803000098030000980300002c
:10006800980300009803000098030000980300001c
:10007800980300009803000098030000980300000c
:1000880098030000980300009803000098030000fc
:1000980098030000980300009803000098030000ec
:1000a80098030000980300009803000098030000dc
:1000b80098030000980300009803000098030000cc
:1000c80098030000980300009803000098030000bc
:1000d80098030000980300009803000098030000ac
:1000e800980300009803000098030000980300009c
:1000f800980300009803000098030000980300008c
:10010800980300009803000098030000980300007b
:10011800980300009803000098030000980300006b
:10012800980300009803000098030000980300005b
:10013800980300009803000098030000980300004b
:10014800980300009803000098030000980300003b
:10015800980300009803000098030000980300002b
:10016800980300009803000098030000980300001b
:10017800980300009803000098030000980300000b
:1001880098030000980300009803000098030000fb
:1001980098030000980300009803000098030000eb
:1001a80098030000980300009803000098030000db
:1001b80098030000980300009803000098030000cb
:1001c80098030000980300009803000098030000bb
:1001d80098030000980300009803000098030000ab
:1001e800980300009803000098030000980300009b
:0801f8009803000098030000c9
:020000040000fa
:10020800980300009803000098030000980300007a
:10021800980300009803000098030000980300006a
:1002280098030000aa020000980300009803000049
:100238009803000098030000980300005c03000086
:10024800980300009803000098030000980300003a
:10025800980300009803000098030000980300002a
:10026800980300009803000098030000980300001a
:10027800980300009803000098030000980300000a
:1002880098030000980300009803000098030000fa
:1002980098030000980300009803000098030000ea
:1002a80098030000980300009803000098030000da
:1002b80098030000980300009803000098030000ca
:1002c80098030000980300009803000098030000ba
:1002d80098030000980300009803000098030000aa
:1002e800980300009803000098030000980300009a
:1002f800980300009803000098030000980300008a
:100308009803000098030000980300009803000079
:100318009803000098030000980300009803000069
:100328009803000098030000980300009803000059
:100338009803000098030000980300009803000049
:100348009803000098030000980300009803000039
:100358009803000098030000980300009803000029
:100368009803000098030000980300009803000019
:100378009803000098030000980300009803000009
:1003880098030000980300009803000098030000f9
:1003980098030000980300009803000098030000e9
:1003a80098030000980300009803000098030000d9
:1003b80098030000980300009803000098030000c9
:1003c80098030000980300009803000098030000b9
:1003d80098030000980300009803000098030000a9
:1003e8009803000098030000980300009803000099
:0803f8009803000098030000c7
:020000040000fa
:100520000000fa00d302a800e582a8000040eb001a
:1005300050e8b70020082000100a88008420a90095
:100540009420a80084e0a90094e0a8000080fa00ac
:1005500000000600809fbe000200fa000000eb00d1
:100560003008880090428000000f78001e0078005c
:10057000e20f50002d0032001e007800e30f500003
:100580003d0032001e007800e10f50000f003200e5
:10059000e7c2bf00704060000004e00042003a0083
:1005a00080002000b04288000000eb00c0428800bc
:1005b00000f42100600888000000280080088800fe
:1005c000100020009042880037003700a0428000d1
:1005d0000080d100a0428800e7c2bf0070406000e8
:1005e0000004e00004003200a04280000108200066
:1005f00001007000a0428800c1428000a04280003b
:1006000000806800c0428800b04280000000e9001d
:10061000b0428800b04280000000e00022003a00b2
:1006200020002000904288001f003700e7c2bf0072
:10063000704060000004e00004003200c04280000e
:100640000108200001006800c0428800c04280000c
:100650004700de00610060000004e000030032009b
:1006600030002000904288000f0037000000eb00af
:10067000904288000c003700e7c2bf007040600065
:100680000004e00006003200a042800051e8b700fc
:1006900010c0b30050e8b7000000eb0080088800ed
:1006a0000000eb00904288008420a9000080fa003e
:1006b0004f00be0000400600801f78000000fa00d6
:1006c0000000eb00904288000000eb0080088800ea
:1006d00084e0a9000080fa004f0078000040060086
:1006e0000000fa008eff07000000eb0020168800d3
:1006f0000000eb00001688000000370050c8bf0063
:100700000004e000fdff320051c8bf000000fb0004
:10071000101688000040eb0050e8b700f7ff3700e4
:020000040000fa
:10072000500800000a000000000000000000000067
:020000040000fa
:040730000000fe00c7
:00000001FF
