:020000040000fa
:080000000002040000000000f2
:020000040000fa
:100400000f852000007f220000018800000000000e
:100410000c000700604220000100200011000700ce
:10042000000020000000e000020032000000020096
:1004300000000000b0030200000000000040da00ed
:100440000000fe004440a900000020000000e00081
:100450000300320000002000a00188004440a800f2
:100460000000060091018800800078000000eb0089
:1004700015003700e280400032a0b4009101ba00bc
:10048000e280400032a0b4009102ba00e280400055
:1004900032a0b4000002eb00472bde00f507b200eb
:1004a000602ce10004003a000059eb008301e900f0
:1004b000fdff3e00040037006128e100010032002a
:1004c0000082eb00040007001101ba000200e00006
:1004d000e8ff3a00000006003159ba008301e90044
:1004e0000c0032002159ba008301e90008003200f3
:1004f0000400e00003003a00e280400032a0b400b3
:10050000f5ff370011d9ba008301e900faff3a007c
:100510008100e800e180400032a0b4000000060045
:020000040000fa
:020000040002f8
:04aff800bd7b00001d
:020000040000fa
:020000040002f8
:04affc007f3f000093
:020000040000fa
:100008002804000028040000280400002804000038
:100018002804000028040000280400002804000028
:100028002804000028040000280400002804000018
:100038002804000028040000280400002804000008
:020000040000fa
:020000040000fa
:100520000000fa000000eb002016880000f02f0009
:10053000001688000080fa00000006000200fa00a1
:10054000000f78000000280020088800060037000f
:100550000000eb000008880001088000f0e723009d
:10056000808f5000fcff36001e0fe9000080eb007a
:100570009e0f1000f6ff3a000080fa00000006000f
:100580000200fa000000eb00000f7800c0e2a800b3
:10059000d4c2bf000044b2000004e00001003a00f1
:1005a0001e30a000d4c2bf0001c8b30001406000eb
:1005b0000004e00001003a001e20a000c2c2bf00fb
:1005c00001c8b300014060000004e00001003a00ef
:1005d0001e10a000d5c2bf000042b2000004e0001f
:1005e00001003a001e00a0001e0078000080fa0002
:1005f000000006000800fa000000eb003007980039
:100600000000eb00200798000000eb0010079800a6
:10061000a0002000c9ff0700d9ff0700000f7800e5
:100620001e00e000090032002e0090009e0f100016
:10063000020034001e007800200798003e00900061
:100640000000e80030079800020037000000eb00cf
:10065000300798003e009000e90f5000ecff340096
:100660000000eb0030079800a0002000b3ff070057
:10067000c3ff0700000f78001e00e0000b003200ef
:100680002e0090009e0f1000020034001e00780023
:10069000200798000000eb00300798001e00900033
:1006a0000000e80010079800030037003e009000ab
:1006b0000000e800300798003e009000e90f50006d
:1006c000e9ff34009e00900000052000808f50005c
:1006d000030034002e0090000008b00020079800ae
:1006e0002e0090000080fa00000006000200fa00d0
:1006f000000f78001e00780060198800000e2000ae
:10070000001988000000eb0080198800f0f3210038
:10071000201988000000eb001019880021e3a800d0
:10072000cbe2a900c7e2a9000080fa0000000600a1
:100730000200fa00000f78001e00780040198800bf
:100740002023a80020c3bf00614060000004e00037
:10075000fcff3200001880000080fa000000060054
:100760000800fa00f0fe2f00e0ff070000f02f0065
:10077000001688000000eb00300798000001200000
:10078000000f78000600370040002000e8ff070057
:10079000be00900000804000300798001e0fe90066
:1007a0001e00e000f8ff3c003e0090004480de00a8
:1007b000200798000000eb0030079800000120009f
:1007c000000f78000600370040002000d8ff070027
:1007d000be00900000804000300798001e0fe90026
:1007e0001e00e000f8ff3c003e0090004480de0068
:1007f00030079800401f200050ff0700be00900007
:100800002e00900000805000630040001007980008
:100810001e009000e70f500002003400700020001e
:10082000100798001e0090000000e00002003d004c
:100830000000eb0010079800010820001e00900047
:0c0840000088de0010168800daff370088
:020000040000fa
:04084c0000000000a8
:020000040000fa
:040850000000fe00a6
:00000001FF
