:020000040000fa
:080000000002040000000000f2
:020000040000fa
:10040000af062200007f22000001880000000000eb
:100410000c00070000ad20000100200011000700c3
:10042000000020000000e000020032000000020096
:100430000000000006090200000000000040da0091
:100440000000fe004440a900000020000000e00081
:100450000300320000002000a00188004440a800f2
:100460000000060091018800800078000000eb0089
:1004700015003700e280400032a0b4009101ba00bc
:10048000e280400032a0b4009102ba00e280400055
:1004900032a0b4000002eb00472bde00f507b200eb
:1004a000602ce10004003a000059eb008301e900f0
:1004b000fdff3e00040037006128e100010032002a
:1004c0000082eb00040007001101ba000200e00006
:1004d000e8ff3a00000006003159ba008301e90044
:1004e0000c0032002159ba008301e90008003200f3
:1004f0000400e00003003a00e280400032a0b400b3
:10050000f5ff370011d9ba008301e900faff3a007c
:100510008100e800e180400032a0b4000000060045
:10052000889fbe008a9fbe008c1f7800d200070003
:10053000d900330003866c006450e1002e003200c5
:100540006420e100330032006150e1002f003200ee
:100550006120e1003100320085855500eb07b000d5
:1005600009002000080420000500370008044400aa
:1005700089844c000a0031000603430087834b0046
:100580000001530081815b00f8ff33000203be00cd
:100590000800a0000804440089844c00f6ff3900dc
:1005a000c639dd0083017300010032001300200012
:1005b0008904d1000884d3000998a3000500320003
:1005c0000800a7000300a0008904d1000884d3001c
:1005d0008b05e8008904d1000884d3000001eb00fa
:1005e0000281d200bc00070001f0a1000cf0a700be
:1005f00001f0a000b10037006420e100b300320038
:100600000801be000200be00f7ff37006120e100d4
:10061000ae0032006000b800f3ff37000000200099
:1006200001f82700f0ff3700889fbe008a9fbe00b8
:100630008c1f7800900007009700330003866c0041
:100640006450e100240032006420e1002700320001
:100650006150e100220032006120e10021003200ff
:100660008b854200eb07b1000134b800003ab800b6
:100670000804420089844a00013ab8000030b800fa
:100680008880400009014a00040033000000400057
:1006900081804800020149008b05e900c909dd009d
:1006a000830170000100320013002000c814de0036
:1006b0004814dd004709de001200b200c808de0061
:1006c000088470008400070001f0a1000cf0a7006e
:1006d00001f0a000790037006120e1007b003200ca
:1006e0000801be000200be00f7ff37006150e100c4
:1006f000fcff3a007500370003f0a200889fbe009f
:100700008a9fbe008c1f78005b00070062003300e8
:100710006450e1004f0032006420e10052003200da
:1007200003826c0007003b000905d0000306d000df
:10073000820f54000c065d000200390002003200f6
:1007400089017800030678008582550004003d0089
:100750000003fd008103fd008502ea008b85420055
:10076000840f720002003b0060001000e08018005f
:100770006011b8000005eb007a28e1000a0039009a
:1007800006007800c75ddd00f707b20087807500be
:100790002d003700828171000a0178006105600038
:1007a0008180d1000080d3008502e900f9ff3b0081
:1007b000060440008784480002003b0060041400e7
:1007c000e0841c000988a300070032008a817100c0
:1007d00082817100610164008904d1000884d30022
:1007e0008b05e800170037000978a30013003a00d2
:1007f0000b00e000130034008b05e90008044400fe
:1008000089844c000a4474000978a3000d003a0062
:100810000b00e000070034008b05e90008044400e9
:1008200089844c0001003a000b0020000978a300e5
:10083000f7ff32000001eb000200370082817100f7
:100840000a017800240007000cf0a70001f0a000c6
:100850001a0037006420e10002003a00838f6c0028
:100860001a0033000801be000200be00130037006a
:10087000140020003e0037000004be0057000700af
:100880000003be000405be000200be0053000700c6
:10089000844f7500000006000200be006450e100b5
:1008a000050036006420e100020036000968a3005c
:1008b00001003a000800be000160a0004f06780069
:1008c0004f05be004f04be0000000600f0ff2f00e1
:1008d000f1ff2700f9ff37008100200061805500fb
:1008e0000b003d000b00200061fe2f000100e10025
:1008f0001d00340082817100610164008904d1000f
:100900000884d3000000e800faff3a0071002000dc
:100910006100640003007000020060000900320002
:1009200061044400e0844c000988a5000500320001
:100930008b05e8006808e10002003a008904d10054
:100940000884d300f20f20000258e10005003d00aa
:10095000c75ddd00f907b2008980750008007800e6
:10096000000006000bf827008b007800000005004f
:10097000889fbe008a9fbe00841f7800beff0700cc
:100980004f00780011003300f0ff2f00838f6c00c0
:1009900006003b00040565000a00a70008003700b8
:1009a00009f0a6001000200008003700820f540054
:1009b000838f5c00030039001000200001003e001e
:1009c0000000200009f0a7000000ea004f05be006b
:1009d0004f04be000000e00000000600c70ade0071
:1009e000f107b200f50fb20008003200e1cf42007b
:1009f000020032000170a00024000500810f700089
:100a0000010032000408050044000500810f700059
:100a100002003a00140005008502e90000004000d1
:100a200081c04800fcff3b000170a00024000500cd
:020000040000fa
:020000040002f8
:04aff800bd7b00001d
:020000040000fa
:020000040002f8
:04affc007f3f000093
:020000040000fa
:10000800f00a0000f00a0000f00a0000f00a000000
:10001800f00a0000f00a0000f00a0000f00a0000f0
:10002800f00a0000f00a0000f00a0000f00a0000e0
:10003800f00a0000f00a0000f00a0000f00a0000d0
:1000480018050000f00a0000f00a0000f00a00009d
:10005800f00a0000f00a0000f00a0000f00a0000b0
:10006800f00a0000f00a0000f00a0000f00a0000a0
:10007800f00a0000f00a0000f00a0000f00a000090
:10008800f00a0000f00a00007e050000f00a0000f7
:10009800f00a0000f00a0000f00a0000f00a000070
:1000a800f00a0000f00a0000f00a0000f00a000060
:1000b800f00a0000f00a0000f00a0000f00a000050
:1000c800f00a0000f00a0000f00a0000f00a000040
:1000d800f00a0000f00a0000f00a0000f00a000030
:1000e800f00a0000f00a0000f00a0000f00a000020
:1000f800f00a0000f00a0000f00a0000f00a000010
:10010800f00a0000f00a0000f00a0000f00a0000ff
:10011800f00a0000f00a0000f00a0000f00a0000ef
:10012800f00a0000f00a0000f00a0000f00a0000df
:10013800f00a0000f00a0000f00a0000f00a0000cf
:10014800f00a0000f00a0000f00a0000f00a0000bf
:10015800f00a0000f00a0000f00a0000f00a0000af
:10016800f00a0000f00a0000f00a0000f00a00009f
:10017800f00a0000f00a0000f00a0000f00a00008f
:10018800f00a0000f00a0000f00a0000f00a00007f
:10019800f00a0000f00a0000f00a0000f00a00006f
:1001a800f00a0000f00a0000f00a0000f00a00005f
:1001b800f00a0000f00a0000f00a0000f00a00004f
:1001c800f00a0000f00a0000f00a0000f00a00003f
:1001d800f00a0000f00a0000f00a0000f00a00002f
:1001e800f00a0000f00a0000f00a0000f00a00001f
:0801f800f00a0000f00a00000b
:020000040000fa
:10020800f00a0000f00a0000f00a0000f00a0000fe
:10021800f00a0000f00a0000f00a0000f00a0000ee
:10022800f00a0000f00a0000f00a0000f00a0000de
:10023800f00a0000f00a0000f00a0000f00a0000ce
:1002480018050000f00a0000f00a0000f00a00009b
:10025800f00a0000f00a0000f00a0000f00a0000ae
:10026800f00a0000f00a0000f00a0000f00a00009e
:10027800f00a0000f00a0000f00a0000f00a00008e
:10028800f00a0000f00a00007e050000f00a0000f5
:10029800f00a0000f00a0000f00a0000f00a00006e
:1002a800f00a0000f00a0000f00a0000f00a00005e
:1002b800f00a0000f00a0000f00a0000f00a00004e
:1002c800f00a0000f00a0000f00a0000f00a00003e
:1002d800f00a0000f00a0000f00a0000f00a00002e
:1002e800f00a0000f00a0000f00a0000f00a00001e
:1002f800f00a0000f00a0000f00a0000f00a00000e
:10030800f00a0000f00a0000f00a0000f00a0000fd
:10031800f00a0000f00a0000f00a0000f00a0000ed
:10032800f00a0000f00a0000f00a0000f00a0000dd
:10033800f00a0000f00a0000f00a0000f00a0000cd
:10034800f00a0000f00a0000f00a0000f00a0000bd
:10035800f00a0000f00a0000f00a0000f00a0000ad
:10036800f00a0000f00a0000f00a0000f00a00009d
:10037800f00a0000f00a0000f00a0000f00a00008d
:10038800f00a0000f00a0000f00a0000f00a00007d
:10039800f00a0000f00a0000f00a0000f00a00006d
:1003a800f00a0000f00a0000f00a0000f00a00005d
:1003b800f00a0000f00a0000f00a0000f00a00004d
:1003c800f00a0000f00a0000f00a0000f00a00003d
:1003d800f00a0000f00a0000f00a0000f00a00002d
:1003e800f00a0000f00a0000f00a0000f00a00001d
:0803f800f00a0000f00a000009
:020000040000fa
:100a300000a0fe000200fa00204380000000e90050
:100a400020438800204380000000e0000c003a00b2
:100a500030438000818520000000400001004000fc
:100a6000100078002043880030438000018520007a
:100a70000000400001004000100078003043880072
:100a800030438000000f78001e007800e10f500016
:100a90000a0032001e007800e20f50000a00320007
:100aa0001e0078000000e00001003200090037005d
:100ab000a0862000004388000c003700c0342000ce
:100ac000700c880009003700a0052000700c880019
:100ad00006003700400b2000a00c8800900020008a
:100ae000b00c880020002000104388008500a90079
:100af0000080fa000080fe000040060000a0fe001a
:100b00000000fa00014380001100780040128800c4
:100b10000180e80000438800014380001100780054
:100b2000401288000180e8000043880001438000f3
:100b300011007800401288000180e800004388001e
:100b40000143800011007800401288000180e80015
:100b500000438800014380001100780040128800a3
:100b60000180e80000438800014380001100780004
:100b7000401288000180e8000043880001438000a3
:100b800011007800401288000180e80000438800ce
:100b90000143800011007800401288000180e800c5
:100ba00000438800104380000000e90010438800e3
:100bb000104380000000e00005003400a00c80001d
:100bc000000eb000a00c880090002000b00c88003f
:100bd0008740a9000080fa000080fe000040060067
:100be0000000fa00810a20009140780080cfb30015
:100bf00000c060000024a000a8e0b700110b200096
:100c00009140780080cfb30000c060000024a000b5
:100c1000b1e0b7000000eb00500888000040200061
:100c2000700888000000280090088800a0052000b7
:100c3000700c88000000eb00600c8800d0002000e1
:100c4000800c88008740a9009740a8008500a90073
:100c50009500a80042c0bf007f40600042e0b7009e
:100c6000b0432100101288001000200020128800dc
:100c700000002800001288000000eb0030438800cc
:100c8000a0032000204388000080fa000000060036
:100c90000400fa00a0862000000f78000000eb009e
:100ca00010079800070037009e0078000000eb0056
:100cb000800878001e8fe8001e0090000000e80009
:100cc000100798009e009000f0bf2000808f500019
:100cd000f5ff34000080fa00000006000000fa0072
:100ce00013e1a9000080fa00000006000000fa00ed
:100cf00020438000e10f5000fdff3a000080fa0021
:100d0000000006000400fa00000f780011079800a8
:100d1000f00f20009e0f100021003e009e0090006a
:100d2000f00b2000808f50001d003e00f10b2000d2
:100d30001e00900000805000c400dd001e007800fe
:100d40004400de0080814000f10b20001e00900076
:100d500000805000c400dd001e0078004400de006a
:100d60000080400080004000a086200000804000fd
:100d700010007800000178001e007800ef0060008d
:100d8000000028000100de00000071000001780072
:100d900083804100a0862000008040000208780087
:100da0000080fa00000006001e00fa00000f980004
:100db000110f9800220f9800330f98003e08900002
:100dc0009e089000010050000000e0000500340083
:100dd000be0890001e08900080805000610f9800af
:100de000040037009e0890003e089000808050006c
:100df000610f98002e0890008e08900001005000ae
:100e00000000e00005003400ae0890000e089000dd
:100e100080805000510f9800040037008e08900029
:100e20002e08900080805000510f98000000eb00c9
:100e3000700798006e089000de089000810f500047
:100e40000200340010002000700798007e0090001f
:100e50000000e0000c0032000e08900060079800cf
:100e60009e089000010f98006e009000100f9800ef
:100e7000ae089000610798003e089000200f98008f
:100e8000ee009000310f98008e0890002e08900020
:100e9000808f50000c0034000e089000600798000e
:100ea000ae089000010f98006e009000200f98008f
:100eb0009e089000610798003e089000100f98006f
:100ec000ee009000310f9800ae0890000e089000e0
:100ed0000080500050079800be0890001e08900047
:100ee000008050000000e00005003400be089000c3
:100ef0001e08900080805000410f980004003700c9
:100f00009e0890003e08900080805000410f98009d
:100f10004e089000400798000000eb003007980052
:100f20009e089000110798009e0890003e089000cf
:100f3000808f500003003d0010002000000f78005b
:100f4000020037000080eb00000f78000e089000d0
:100f5000200798001e0037007e0090000000e0008f
:100f600004003200ae0090001e00900065ff0700f4
:100f7000030037009e0090002e00900061ff0700e4
:100f8000be0090004e0090000080400030079800a6
:100f90003e00900000004000800078005e0090005d
:100fa000808f5000070035001e0090001e0040009a
:100fb00010079800be0090005e0090000080500076
:100fc000300798002e0090000000e80020079800ed
:100fd000ae0090002e089000808f5000deff35009c
:100fe0000080fa00000006003000fa001017980098
:100ff000211798003217980043179800541798004b
:101000006517980002002000033424005e10900051
:10101000ee10900042fd0700300f9800410f98003d
:101020003e109000ce10900070079800010f9800bd
:101030000000eb00200798006e0037001e109000a3
:10104000ae109000100f9800210f98000000eb00e8
:1010500010079800570037001e089000ae08900057
:10106000700f9800011798007e0090008e08900085
:10107000500f9800610f98000000eb00000f7800ff
:101080007e0990008e1190007e0890008e109000d6
:1010900065fd070050079800610798005e09900001
:1010a000ee0990005e089000ee0890005efd0700db
:1010b00030079800410798007e0890008e1090003d
:1010c0000001be008dfd07005e099000ee09900052
:1010d00055fd07007e0190008e09900087fd0700f6
:1010e000500f9800610f98003e019000ce019000d3
:1010f0005e009000ee0090007ffd07001e0990004a
:10110000ae0990007dfd0700700f98000117980050
:101110001e0fe8003e019000ce0190005e0090009e
:10112000ee00900075fd07000041eb00626f980033
:101130000200200003082400cdfd07000000e000ad
:10114000010035000200370010c0b300606f980046
:101150006e6890000004a2000004e00003003a0062
:10116000f00320009e0f1000c5ff34001e00780021
:101170000000d100610060000004e00003003200c4
:10118000ae0090001e009000defe07003e099000b9
:10119000ce0990001e089000ae08900057fd070091
:1011a000100f9800210f98001e0090000000e8002a
:1011b000100798009e009000f00b2000808f5000d8
:1011c000a5ff34002e009000101688003e09900004
:1011d000ce0990007e0090008e08900047fd070029
:1011e00070079800010f98002e0090000000e800a2
:1011f00020079800ae009000f00b2000808f500078
:101200008eff34000080fa00000006000c00fa0097
:101210005600070072fe07000000200001002c00ad
:1012200040079800510798000000200001002c00a2
:1012300020079800310798000000200001082400d2
:10124000008fbe000000370091fe07001e02be00a6
:101250002e019000be0190004e009000de00900034
:1012600061ff0700d4c2bf000044b2000004e000e8
:101270000c003a0002002000030024001e00be0003
:10128000a7fc0700008fbe001e01be002e009000cc
:10129000be00900019fd0700200798003107980054
:1012a000e9ff3700d4c2bf0001c8b30001406000ad
:1012b0000004e00012003a000200200003002400b5
:1012c0001e00be0096fc0700008fbe001e01be007f
:1012d0002e009000be00900008fd07002007980037
:1012e000310798001e01be004e009000de00900005
:1012f00002fd07004007980051079800d2ff370011
:10130000c2c2bf0001c8b300014060000004e00099
:101310000c003a0002002000030024001e00be0062
:101320007ffc0700008fbe001e01be004e00900033
:10133000de009000f1fc070040079800510798007c
:10134000c1ff3700d5c2bf000042b2000004e00078
:10135000c4ff3a0002002000030024001e00be006b
:101360006ffc0700008fbe00b7ff37000000fa00d7
:101370000000eb00201688000008200000168800fe
:101380000080fa00000006000200fa00000f78005a
:101390000000280020088800060037000000eb004d
:1013a0000008880001088000f0e72300808f5000cb
:1013b000fcff36001e0fe9000080eb009e0f1000be
:1013c000f6ff3a000080fa00000006000200fa0072
:1013d0000000eb00000f7800d4c2bf000044b20050
:1013e0000004e00001003a001e30a000d4c2bf009b
:1013f00001c8b300014060000004e00001003a00b1
:101400001e20a000c2c2bf0001c8b300014060009e
:101410000004e00001003a001e10a000d5c2bf0089
:101420000042b2000004e00001003a001e00a000eb
:101430001e0078000080fa00000006000800fa0094
:101440000000eb00300798000000eb002007980038
:101450000000eb0010079800a0002000caff070062
:10146000daff0700000f78001e00e00009003200dc
:101470002e0090009e0f1000020034001e00780025
:10148000200798003e0090000000e8003007980018
:10149000020037000000eb00300798003e0090008b
:1014a000e90f5000ecff34000000eb00300798001b
:1014b000a0002000b4ff0700c4ff0700000f780061
:1014c0001e00e0000b0032002e0090009e0f100066
:1014d000020034001e007800200798000000eb0096
:1014e000300798001e0090000000e80010079800e8
:1014f000030037003e0090000000e800300798002d
:101500003e009000e90f5000e9ff34009e0090007b
:1015100000052000808f5000030034002e00900052
:101520000008b000200798002e0090000080fa000c
:10153000000006000200fa00000f78001e0078008c
:1015400060198800000e2000001988000000eb00e0
:101550008019880020f02100201988000000eb008d
:101560001019880021e3a8000080fa00000006009e
:101570000200fa00000f78001e0078004019880071
:101580002023a80020c3bf00614060000004e000e9
:10159000fcff3200001880000080fa000000060006
:020000040000fa
:1015a0006a08000000180000000000005008000059
:1015b0001000000002000000010002000003000013
:1015c00000000300003b0000c0003a0000000000e3
:1015d000600800000a000000000000000000000099
:020000040000fa
:0415e0000000fe0009
:00000001FF
