:020000040000fa
:080000000002040000000000f2
:020000040000fa
:100400000f8f2000007f2200000188000000000004
:100410000c00070040fd2000010020001100070033
:10042000000020000000e000020032000000020096
:100430000000000012100200000000000040da007e
:100440000000fe004440a900800420000000e000fd
:100450000300320000002000a00188004440a800f2
:100460000000060091018800800078000000eb0089
:1004700015003700e280400032a0b4009101ba00bc
:10048000e280400032a0b4009102ba00e280400055
:1004900032a0b4000002eb00472bde00f507b200eb
:1004a000602ce10004003a000059eb008301e900f0
:1004b000fdff3e00040037006128e100010032002a
:1004c0000082eb00040007001101ba000200e00006
:1004d000e8ff3a00000006003159ba008301e90044
:1004e0000c0032002159ba008301e90008003200f3
:1004f0000400e00003003a00e280400032a0b400b3
:10050000f5ff370011d9ba008301e900faff3a007c
:100510008100e800e180400032a0b4000000060045
:100520009402040000000000881f78000204780094
:1005300014000700080040004f0478000000060087
:100540000000fa00881f7800000478003fb9970087
:10055000ea81570080007800402920001000070041
:10056000800078000000e000020035000040eb0051
:1005700000f47800010078004f0478000080fa0051
:10058000000006008001eb000200370061f07900f6
:100590008301e800828f5100fcff3a000000060052
:1005a0006200fa00889fbe008a9fbe000004be0061
:1005b000020578008300780060f92f000f004000ea
:1005c000b000070088979f0099979f000000eb00fc
:1005d000a09f9f009a4578000b80fb000000ea0076
:1005e000cf04de0050c2b30080cf550002003200bd
:1005f00009047800010037000904e9000800e00060
:100600000b0034001f909700080178008a007800e2
:100610008f9197000300010090979f000000e00079
:10062000930032002f98970000004400a09f9f0085
:100630000905450050c2b30080cf550004003200c8
:100640000b04e000e3ff3a002f9897008900370081
:100650000000eb00809f9f00f0979f00e0979f00b5
:10066000d0979f00c0979f00b0979f00c09f9f00aa
:1006700009003700e08720000080500000004000a3
:1006800021872000e10078004f989700010070005a
:10069000c09f9f000a05e8001a4478008800fb000c
:1006a000e08720007c000700800078000000e00068
:1006b000f0ff3a00a0c2b300804f54000e003a0091
:1006c000bf8897000180e900b08f9f00100078007c
:1006d000b09f9f000000e00005003d000000ea0020
:1006e000b09f9f004f9897000020a000c09f9f00e0
:1006f0000a05e80010003700b19f9f0003fd2f009e
:10070000f4ff2700080037003f989700840f50003f
:10071000040032006a00b9000000410003004000fc
:10072000b09f9f000a05e8001a01fb00030041008a
:10073000e90f5000f4ff3600e0c2b3009a4f1000fa
:10074000040032000080eb00909f9f008a04780034
:100750001c0037008a04e800a0c2b300994f1000c3
:1007600007003a00bf8897000180e900b08f9f0022
:1007700010007800909f9f008a84e80011003700e5
:100780000000eb00909f9f0003fd2f00f4ff270067
:10079000080037001f989700840f500004003200b3
:1007a0006a00b9000000410003004000909f9f00d4
:1007b0008904e8001901fb0003004100e90f500023
:1007c000f4ff3600194478008800fb0040882000c0
:1007d000310007000000e00002003a000044780009
:1007e000010037008904e800a87f9f0080c6b3009d
:1007f000804f540004003a00994f14000a003a0058
:100800006640500006003700c0c6b300804f540059
:1008100005003a00994f140003003a00654040007b
:10082000a07f9f008904e8000905e800cbfb2f00aa
:100830008f8545001901fb0060f92f000f00400073
:100840000084e8008b0178008000780008007800c0
:100850001a0007000000e00005003a008b00780055
:1008600008007800580107000000e00059ff3d0033
:100870000080eb004f05be004f04be000080fa0070
:10088000000006000200fa00f1bf9f000108780096
:100890000080fa0000000600040037000204e000b7
:1008a00001003a00000005000000e8001041780057
:1008b000814f5100f9ff3a0000000600889fbe00fa
:1008c0008a1f7800000478000102780082447800d2
:1008d00003057800e0c6b300804f5100d20032001b
:1008e00015003c006b405000804f51002400320046
:1008f0000a003c0070405000804f51000f01320050
:1009000065404000804f51007400320050c2b30077
:10091000804f510020013a001c01370040c6b3004f
:10092000804f51001b00320065404000804f510055
:1009300019013a001700370030c7b300804f51004b
:10094000fe00320007003c0064405000804f510020
:10095000620032000040e800804f51000e013a0072
:10096000e700370050c7b300804f51005b003200f2
:1009700063404000804f510007013a0057003700a4
:100980009180e900010a7800780090009171780068
:1009900007013700a8609000c0c6b30080cf5000a8
:1009a0000a003a009400780064805000000a780041
:1009b0001000be004f89de00cf91de000002be00b5
:1009c00002037800820378001300370010c7b300d9
:1009d00080cf500003003200a0c6b30080cf50008b
:1009e00006003a009400780068805000000a780001
:1009f0003002be002003be00070037001480e9006b
:100a0000000a78001000780000027800cfa2de0013
:100a10000503780086037800049cbe000694be009f
:100a2000a860900080c6b30080cf50000e00320056
:100a300020c6b30080cf500005003a000400fb0040
:100a4000cf80de0001017800820178000a003700c3
:100a500040c7b30080cf5000030032006640400022
:100a600080cf500006003a0004007800cf80de00fe
:100a70000101780082017800009cbe000294be0053
:100a80003800be002801be00e00f5000e08f580083
:100a9000e00f5900e08f590003003d0078009000fe
:100aa000d1c2b3000a003700081090000018a3005c
:100ab0000300320078009000b1c2b3000400370098
:100ac0000008a300530032007800900001c2b30078
:100ad000017578000000e8004d003700a860900024
:100ae000c0c6b30080cf500006003a0094007800e2
:100af00064805000000a78001002be006033b80025
:100b00001300370010c7b30080cf5000030032003d
:100b1000a0c6b30080cf500006003a0094007800d1
:100b200068805000000a78003002be002003be003a
:100b3000070037001480e900000a780010007800f0
:100b400000027800050020000600200007002000b9
:100b5000049cbe000694be00a860900080c6b3004e
:100b600080cf50000e00320020c6b30080cf50006e
:100b700005003a000480fb00010020000200200074
:100b8000030020000a00370040c7b30080cf5000a8
:100b9000030032006640400080cf500006003a005b
:100ba0000400780001002000020020000300200063
:100bb000009cbe000294be00081090000038a30004
:100bc000140032003800be002801be00e00f5000c3
:100bd000e08f5800e00f5900e08f59000d003200ff
:100be00080c7b30080cf54000300320080c5b3003b
:100bf00080cf540007003a007800900001c3b30092
:100c0000017578008000e80009f578000080e800b0
:100c1000700498007800900000004500600498007f
:100c20008940780042003700a8609000c0c6b30039
:100c300080cf5000250032000a003c006440500084
:100c400080cf50002800320000c0e80080cf500064
:100c5000140032006840500080cf500022003a005b
:100c60000a00370040c7b30080cf50001e0032009a
:100c70006640400080cf50001b00320069405000a9
:100c800080cf500018003a00060037001480e900b9
:100c9000000a780010007800485c9000084878004e
:100ca000450037001480e900000a7800100278003f
:100cb00068089000cf80de00010178008201780092
:100cc000009abe000292be003b0037001480e9008b
:100cd000000a78001001780068089000cf80de00dc
:100ce0000089be00340037001480e900000a780053
:100cf00010007800680c9000080878002e0037007b
:100d00001180e9008008780010007800cf80de00b4
:100d10000101780082017800009cbe000294be00b0
:100d200078009000000045006004980081c7b3007f
:100d300008007800ee0007001f0037001480e9006b
:100d4000000a7800100078006004980058099000ac
:100d50000200e00002003d006e02070009003700bb
:100d60008000eb0072020700800078000000e000c5
:100d7000030032006800900000805000010037003e
:100d800058089000100c98000b0037007800900075
:100d9000027578000600370078009000800045005a
:100da0000904e00001003a0059c2b3008948780004
:100db0000000e800700498000000eb004f05780088
:100dc0004f04be00000006000400fa00889fbe0029
:100dd0008a9fbe008c1f780000047800010678000e
:100de00070089000f8009000010050008808900002
:100df000010050009808900001005000a8089000e1
:100e000001005000b808900001005000c808900090
:100e1000810550000002220090bf9f0000032300c4
:100e2000a0bf9f00081090000028a30018003a00ff
:100e30000b00e000160034008b04780009057800f0
:100e4000e28f5400020036002a0020000200370022
:100e50000900e0000b00340058009000c801900029
:100e60000a017800ee80570003000100500498004a
:100e70000000e00096003200680890000000450085
:100e8000600c98008a8454004240a900ebff3c00ab
:100e9000780190000200e0000b0034005800900040
:100ea000c80190008c0078000300010050049800f5
:100eb0000000e0008600320068089000f800900012
:100ec00001004000600c9800880c90000900e000d0
:100ed0001500340009057800e28f54000200360046
:100ee0002a002000020037000900e0000b00340057
:100ef00058009000c80190000a017800ec8057006b
:100f000003000100500498000000e000700032006f
:100f10006808900000004500600c98008a84540026
:100f20004240a900ebff3c00180990000200e000dd
:100f30000b003400e800900058009000c8019000b9
:100f400003000100500498000000e000600032003f
:100f5000680890009808900001004000600c98001c
:100f6000a80c90000900e000150034000905780085
:100f7000e28f5400020036002a00200002003700f1
:100f80000900e0000b00340058009000c8019000f8
:100f90000a017800ec80570003000100500498001b
:100fa0000000e0004a0032006808900000004500a0
:100fb000600c98008a8454004240a900ebff3c007a
:100fc000380990000200e0000d003400e8009000b5
:100fd000180890008080400058009000c8019000e0
:100fe00003000100500498000000e00038003200c7
:100ff00068089000b808900001004000600c98005c
:10100000c80c90000900e0001500340009057800c4
:10101000e28f5400020036002a0020000200370050
:101020000900e0000b00340058009000c801900057
:101030000a017800ec80570003000100500498007a
:101040000000e00022003200680890000000450027
:10105000600c98008a8454004240a900ebff3c00d9
:10106000081090000028a3001b0032000b00e000d5
:10107000190034008b04780009057800e28f5400d1
:10108000020036002a002000020037000900e000bc
:101090000b00340058009000c80190000a0178004d
:1010a000ee80570003000100500498000000e000ab
:1010b000070032006808900000004500600c9800ae
:1010c0008a8454004240a90003003400eaff37003c
:1010d0000080eb00010037000000eb004f067800b5
:1010e0004f05be004f04be000080fa00000006005d
:1010f0002f03b000889fbe008a9fbe008c9fbe0059
:101100008e1f78000007780010862000c0b79f006f
:1011100080c5b30080cf5000080032000285200057
:10112000c2b79f007740400080cf500003003a00d4
:1011300083002000b3b79f000a00370080c7b300c8
:1011400080cf500005003200a4002000b4b79f00fb
:1011500080c5b30080cf500002003a000501200096
:10116000b5b79f003e04be002e05be0040c6b300ca
:1011700080cf5000030032006540400080cf500017
:101180000b003a00e00f5400e08f5c00e00f5d00c0
:10119000e08f5d0006003d006000b8006011b800ff
:1011a00008045000898458000a0559008b855900ad
:1011b000bfb39700e88f530003003200f08f530055
:1011c00045003a00020037003600200001003700d9
:1011d00046002000e00f5400e08f5c00e00f5d004f
:1011e000e08f5d0005003a005e089000810120005c
:1011f000a1b79f000000e000080032003fb1970057
:101200000200e90008006000cfb197006340780059
:1012100090df9f0074012000a4b79f008602780031
:101220008502e900050033008b05d1000a85d30053
:101230008984d3000884d300f9ff3700089fbe00db
:101240000a97be00afb397000700e90021fc2f000a
:101250008f804000008240003fb197008202e90089
:1012600012003700afb397008703e900a7b79f00cc
:1012700000806200cfb09700615278003e00be004f
:101280002e01be00860378008703e90005003300c5
:101290008381d1000281d3008180d3000080d300fc
:1012a000f9ff3700009fbe000297be003e00be005f
:1012b0002e01be00e00f5000e08f5800e00f5900f3
:1012c000e08f5900d6003400afb397000700e0006c
:1012d000e4ff3c00d2003700ae60900080c6b3004f
:1012e00080cf50000b00320006003c000104e000fb
:1012f000080032006640500080cf500073003a0072
:1013000004003700c0c6b30080cf50006f003a0021
:1013100031003700080178000800e00005003a00bd
:101320005e08900081012000a1b79f000000e0004e
:1013300009003200bfb19700110009000381d800f5
:101340008000fd004fb297006440780090df9f005e
:1013500075012000a5b79f00bfb3970011000900d9
:101360000781d80080017800afb097000100e90044
:1013700022fc2f000f014100000241000c00370049
:10138000bfb29700110009008501d8000001780064
:10139000afb397008703e900a7b79f000590b90096
:1013a00000805100cfb09700615278008201780030
:1013b0000300e000030034002fb197000200e000ba
:1013c000efff3c0003007800cf80de0001017800d1
:1013d000820178003a0037000806be00e00f540092
:1013e000e08f5c0005003a005e0890008301200059
:1013f000a3b79f000000e000090032003fb2970051
:101400006121b9000c00be00d9000700cfb29700df
:101410006540780090df9f0077012000a7b79f000c
:101420003fb297006121b9000c00be00d300070055
:101430000006be00afb297000500e90027fc2f00b0
:101440008f8343008083430097b79f0011003700cc
:101450003fb197006114b9000801be000c00be0046
:10146000d60007000005be00afb197008301e90078
:10147000a3b79f000801be00b70007000000560098
:101480001fb29700cfb297006552780094b79f00c3
:101490000a06be00e00f5600e08f5e000300340035
:1014a000afb397000700e000e9ff3c004feade0021
:1014b000cfa2de000c00be00040178008401780099
:1014c000009fbe000297be0055003700e00f540099
:1014d000e08f5c00e00f5d00e08f5d0005003a00ea
:1014e0005e08900081012000a1b79f000000e0008d
:1014f0000d0032003fb1970002027800cfa2de005b
:1015000005037800860378000800be000a01be00cb
:101510003a0107004fb297006440780090df9f00c7
:1015200075012000a5b79f003fb197000202780027
:10153000cfa2de0005037800860378000800be0015
:101540000a01be0026010700009fbe000297be00f0
:10155000afb197000300e90024fc2f000f02420006
:101560000006420020003700bfb297000504780053
:10157000cfc4de00090578008a0578000802be00a5
:101580000a03be005fa89700efa897007fa9970005
:101590008fb197001d010700d0b79f00e1b79f00f2
:1015a000f2b79f0083bf9f00afb397008703e900a6
:1015b000a7b79f000802be000a03be0099010700fa
:1015c0005faa970000005200cfb2970065567800de
:1015d0005fb09700efb097007fb197008fb9970089
:1015e000009fbe000297be003e00be002e01be005e
:1015f000d0af9f00e1af9f00f2af9f0083b79f0085
:10160000e00f5000e08f5800e00f5900e08f5900c4
:1016100003003400afb097000100e000d2ff3c00af
:101620003fb19700e80f510013003a000e109000f0
:101630000038a30010003200afb19700f78f5100bf
:1016400006003e0024fc2f000f02420083004200ef
:1016500000c3b300914f100007003200afb29700f3
:101660008502e900a5b79f0000c3b30027fc2f0047
:101670008f83430080f37a00afb197007881110027
:10168000120f98006e00900024fc2f000f02420001
:1016900083004200bbfb07001e0990005e0890001b
:1016a000800f510006003d0002005000000f98001e
:1016b0000e1090000040a100001798000f003700a6
:1016c0000000e0000d003d000e109000740060006e
:1016d000f00f500009003a007e089000fe009000d4
:1016e000010050008e0890000100500002005000e0
:1016f0004240a90001003400000f98004f07780015
:101700004f06be004f05be004f04be002f03b100c0
:101710000000060080007800010037000000e800ab
:101720001004e000fdff3a00010050000000060038
:101730008001eb00040037008301e80090cf100027
:10174000040032000000e800828f5100faff3a00e6
:101750000000eb0000000600020ab900001bb900ff
:101760000200b80081004200810043000000060032
:10177000020007000400be00000006006022b8005e
:10178000060220000000d0008180d2000482d20036
:101790008582d2000000a0000202520083825a001b
:1017a000030031000202420083824a000000a100cf
:1017b0000603e900f3ff3a0000000600839f68007b
:1017c0000100e00002003d0060001000e080180011
:1017d0000300e00002003d0060011100e0811900fb
:1017e000e6ff07004f00e00002003b006000100031
:1017f000e080180000000600881f780000047800d0
:101800005001be004000be0004004000858048003a
:101810000601490087814900009cbe000294be0079
:101820000400e1000588e1000690e1000798e1006e
:1018300002003100680044001008e8004f047800fe
:1018400000000600f4874700889fbe008a9fbe0004
:101850008c9fbe008e1f78000205be000004be00f3
:10186000d4b79f00e5b79f00f6b79f0087bf9f00e2
:101870000000eb00c0b79f00b0b79f00a0b79f006b
:1018800090b79f0080b79f000d042000bfb0970065
:101890004fb09700000140000000e0000f003d0045
:1018a0004f08de0000007100c0b79f009e000700d7
:1018b00001003d0012002000a100070001003d00d2
:1018c00012002000a6000700b1000700b6000700c4
:1018d0000f004000c8ff0700220037004f08de005d
:1018e00000067100ccb79f008f00070001003d008b
:1018f000120020009200070001003d0012002000ad
:1019000097000700a20007000fb297009fb2970050
:101910002fb39700bfb39700a90007000000520043
:1019200081805a0002015b0083815b0080b79f00c9
:1019300091b79f00a2b79f00b3b79f000007eb00cd
:101940009f0007000020e10001a8e10002b0e100d3
:1019500003b8e100010031001e0020000e00560017
:10196000c0b79f004fb297000400e00007003500a9
:1019700010002000010020006011b8000804700071
:10198000898470000a0571008b8571008d06e9005d
:10199000beff3a000400e00003003d0082000700a3
:1019a0000f00400094ff07004fa897000000e000e0
:1019b00004003a000fb497009fb497002fb597002a
:1019c000bfb59700940007004f0778004f06be0090
:1019d0004f05be004f04be004f01b10000000600dd
:1019e000881f780018002000881f780095ff0700e6
:1019f0008f87e9004f04780000000600801feb008d
:101a000090ff07008f87e90000000600889fbe0056
:101a10008a9fbe008c1f78006e00070007003d0003
:101a200073000700e00f5b00e08f5b0007003d00e4
:101a3000320007000006eb00040037003400070006
:101a400002003d002a0007001c0020007200070071
:101a5000e3ff07000203be000002be000c00e0002e
:101a600001003200220007000400be000601be0093
:101a70004f0678004f05be004f04be000000060070
:101a8000889fbe008a9fbe008c1f7800510007000f
:101a900005003d0056000700e00f5b00e08f5b0093
:101aa00006003d00040037001900070003003d0058
:101ab0006000b8006011b800100007005600070071
:101ac000ceff07000203be000002be000c00e000d3
:101ad00001003200060007000400be000601be003f
:101ae0004f0678004f05be004f04be000000060000
:101af0006000b8006011b800000037000402500018
:101b000085825800060359008783590000000600ab
:101b10000006eb00e00f5200e08f5a00e00f5b0080
:101b2000e08f5b00000006000180400090b79f003e
:101b30000001eb008fb097000100e00000000600fc
:101b40000200700090b79f000180400080b79f00a6
:101b50000001eb00ffa897000100e0000000060074
:101b60000200700080b79f00018040006faa9700bc
:101b7000cf20de0001007000f0af9f0004024200a1
:101b8000250007004f18de0000027200000006006a
:101b9000e4af9f000804440089844c000a054d000e
:101ba0008b854d00000006003fb29700cfb2970032
:101bb0005fb39700efb3970000fe2f000000060010
:101bc0003fb09700cfb097005fb19700efb197009b
:101bd000000006000205be000004be00e00f500039
:101be000e08f5800e00f5900e08f59000000060018
:101bf0006000b8006011b8000804500089845800e3
:101c00000a0559008b8559001c002000e00f520086
:101c1000e08f5a00000006000800be000a01be0066
:101c200000000600889fbe008a9fbe008c1f7800bf
:101c30000205be000004be000006eb00e00f5000ed
:101c4000e08f5800e00f5900e08f590007003d0079
:101c50006000b8006011b800080450008984580082
:101c60000a0559008b8559001c002000e00f520026
:101c7000e08f5a00e00f5b00e08f5b0002003d0048
:101c80000f0007000c00a2000800be000a01be0001
:101c9000120007000203be000002be000c00e000bc
:101ca00001003200060007000400be000601be006d
:101cb0004f0678004f05be004f04be00000006002e
:101cc0006000b8006011b80004025000858258001e
:101cd000060359008783590000000600889fbe0054
:101ce0008a9fbe008c9fbe000404b8000506b800a1
:101cf0008904460060854e000606b8000a054600c5
:101d0000e0854e000706b8008b054600040eb800bb
:101d1000890446000a854e00e0854d00050eb80096
:101d20000a0546008b854e00060eb8008b0546005e
:101d30000416b8000a0546008b854e000516b8004b
:101d40008b054600041eb8008b0546000800be0047
:101d50000a01be004f06be004f05be004f04be0084
:041d60000000060079
:020000040000fa
:020000040002f8
:04aff800bd7b00001d
:020000040000fa
:020000040002f8
:04affc007f3f000093
:020000040000fa
:100008007c1000007c1000007c1000007c100000b8
:100018007c1000007c1000007c1000007c100000a8
:100028007c1000007c1000007c1000007c10000098
:100038007c1000007c1000007c1000007c10000088
:020000040000fa
:020000040000fa
:101d64001b5b0000324a0000001b00005b310000d6
:101d74003b310000480000004c6500006172000027
:101d84006e200000746f0000206600006c79000073
:101d94002077000069740000682000007468000067
:101da4006520000050490000433200003421000047
:101db4000d0a0000004c000065610000726e000016
:101dc400207400006f200000666c00007920000081
:101dd4007468000065200000504900004332000090
:101de4003421000020250000640d00000a000000da
:020000040000fa
:101df4000000fa0020022000c011880080002800a2
:101e0400801188000040200090118800e1a2a80001
:101e1400dfa2a9000080fa00000006000200fa0018
:101e2400000f7800e1c2bf00704060000004e000d1
:101e3400fcff3a0033c2bf00624060000004e000cf
:101e4400fcff3a001e007800a01188001e007800f4
:101e54000080fa00000006000000fa00e1a2a900d8
:101e640032c2bf00614060000004e000fcff3200a9
:101e7400e1a2a800b01180000000fb000080fa007d
:101e8400000006000200fa00000f78000500370089
:101e94001e007800104078000000fb001e0fe800d0
:101ea400deff07001e007800104078000004e00008
:101eb400f7ff3a00d0002000d8ff0700a000200060
:101ec400d6ff07000080fa00000006000600fa00b2
:101ed40010079800210798001e009000000f78005a
:101ee400ddff0700804078001e0090000148780064
:101ef4001e009000104078000000fb00c7ff0700a0
:101f04001e00900010407800e84f50000e003a0088
:101f14001e0090009e0f50000b00360000022000af
:101f2400beff070080002000bcff07002e009000c9
:101f34000000e800200798001e0090000000e9005f
:101f4400100798000e0037001e0090001040780023
:101f5400ea4f50000a0032001e0090001040780042
:101f6400ed4f5000090032001e0090000000e80010
:101f7400100798002e0090000000e9002007980048
:101f84002e009000e10f5000d5ff3c009e00900011
:101f94000040eb00804878001e0078000080fa00c2
:041fa4000000060033
:020000040000fa
:101fa8007208000012000000020000000100020098
:101fb800000400000800100000000000202b2d0085
:101fc8002330000084080000080000000200000020
:101fd800686a6c00747a4c00000000005008000029
:101fe8002200000002000000303132003334350096
:101ff8003637380039616200636465006600300076
:102008003132330034353600373839004142430025
:0c201800444546000000000000000000ed
:020000040000fa
:102024008000fa0072ff070020eb280095ff0700ec
:1020340070eb280093ff0700e0eb280091ff0700f6
:1020440010012000801f7800d0ed2800801f780048
:102054000e00780039f90700e48757000e00780075
:1020640088ff0700010820000e00780097ff070092
:102074000e00780083ff0700d000200067ff0700f0
:10208400a000200065ff0700f6ff37000800fa00f3
:102094001007980021079800320798001e0090004e
:1020a40060004000e20f50000f003e003e00900030
:1020b400000f7800080037002e00900010407800d0
:1020c4008000fb002e0090000000e800200798002c
:1020d4000100780051ff07001e0fe9000080eb00ab
:1020e4009e0f1000f4ff3a003e0090000080fa00ba
:0420f40000000600e2
:020000040000fa
:0420f8000000fe00e6
:00000001FF
